:0400000055EF00F0C8
:10000800401B4D1A531A591A401B401B401B401BDA
:10001800401B401B401B401B401B401B401B401B00
:10002800401B401B401B401B401B401B401B401BF0
:10003800401B401B401B401B8B1A8F1804189F182D
:10004800401B401B401B401B401B401B7F18AA1431
:10005800401B401B401B401B401B401B401B401BC0
:10006800401B401B401B401B401B401B401B401BB0
:10007800401B401B401B5116E716291229102A0065
:10008800401B401B401B401B401B2A002A002A0023
:10009800401B401B401B401B401B401B401B401B80
:0600A800FF00A6EF2AF0A4
:1015000000C858C05FB45D0000545D0000346BE853
:10151000639E680000805C1C5F426CD06C266B92FE
:10152000690000F86800006E5F0000000000008E97
:101530006B00003C67E26CEA6A0000106C0000007F
:1015400008014F51800B586F4F514F255A6F4EAFC6
:10155000ACEF0AF0AEEF0AF0AFEF0AF05A815A5141
:10156000D8B4B5EF0AF0B7EF0AF0CCEF0AF05A2979
:10157000D8A4BDEF0AF0BFEF0AF0C7EF0AF0000EE3
:101580004C6F000E4D6F000E4E6F000E4F6F4E8F62
:10159000000E4F6FD4EF0AF0000E4C6F000E4D6F2F
:1015A000000E4E6F000E4F6F5351800B596F585104
:1015B0005919D8B4DEEF0AF0E0EF0AF0E1EF0AF0D3
:1015C000588D53515325596F52AFE9EF0AF0EBEFA5
:1015D0000AF0ECEF0AF059815951D8B4F2EF0AF051
:1015E000F4EF0AF009EF0BF05929D8A4FAEF0AF04A
:1015F000FCEF0AF004EF0BF0000E506F000E516F7D
:10160000000E526F000E536F528F000E536F11EF8A
:101610000BF0000E506F000E516F000E526F000E57
:10162000536F5A51595DD8B018EF0BF01AEF0BF009
:1016300041EF0BF058AD1FEF0BF021EF0BF023EF54
:101640000BF0800E581B5AC85BF859C85AF85BC893
:1016500059F84CC85BF850C84CF85BC850F84DC8F6
:101660005BF851C84DF85BC851F84EC85BF852C8DA
:101670004EF85BC852F84FC85BF853C84FF85BC8C8
:1016800053F8000E5B6F5A5159C854F8556B545FAC
:10169000000E555B55BF56EF0BF0555109E11A0E80
:1016A000545DD8A056EF0BF058EF0BF08FEF0BF016
:1016B0004C514D114E114F11D8A461EF0BF064EF56
:1016C0000BF0010E65EF0BF0000E5B6F000E4C6F20
:1016D000000E4D6F000E4E6F000E4F6F59C85AF836
:1016E00098EF0BF05BA177EF0BF079EF0BF07FEF4A
:1016F0000BF0D8905B3101095B6F81EF0BF0D89054
:101700005B334CA186EF0BF088EF0BF089EF0BF009
:101710005B8F4F354F334E334D334C335A2B59512A
:101720005A5DD8A096EF0BF098EF0BF072EF0BF02C
:1017300058BD9DEF0BF09FEF0BF0DFEF0BF05A5110
:10174000D8A4A5EF0BF0A7EF0BF0B1EF0BF0000E54
:101750004C6F000E4D6F000E4E6F000E4F6F00EF7E
:101760000DF050514C2751514D2352514E2353519E
:101770004F234FA1BEEF0BF0C0EF0BF06CEF0CF05E
:101780005BA1C5EF0BF0C7EF0BF0CDEF0BF0D890DE
:101790005B3101095B6FCFEF0BF0D8905B334CA14D
:1017A000D4EF0BF0D6EF0BF0D7EF0BF05B8F4F358C
:1017B0004F334E334D334C335A2B6CEF0CF05051AA
:1017C0004C5D51514D5952514E594F51800A546FF1
:1017D0005351800A5459D8B0F0EF0BF0F2EF0BF0F0
:1017E0001DEF0CF04C51505D546F4D515159556FD8
:1017F0004E515259566F4F515359576FFF0E542542
:101800004C6FFF0E55214D6FFF0E56214E6FFF0E90
:1018100057214F6F800E581B5B6D5B51D8A413EF9F
:101820000CF015EF0CF025EF0CF0010E4C27000E1C
:101830004D234E234F2325EF0CF050514C5F515157
:101840004D5B52514E5B53514F5B4C514D114E11FC
:101850004F11D8A42EEF0CF030EF0CF065EF0CF028
:101860005B51D8A436EF0CF038EF0CF065EF0CF0BC
:10187000000E4C6F000E4D6F000E4E6F000E4F6F3E
:1018800000EF0DF0D8904C374D374E374F375BAFE8
:101890004CEF0CF04EEF0CF04FEF0CF04C815BA1D5
:1018A00054EF0CF056EF0CF05AEF0CF0D8805B3789
:1018B0005CEF0CF0D8905B375A51D8B462EF0CF063
:1018C00064EF0CF065EF0CF05A074EAF6AEF0CF0C6
:1018D0006CEF0CF042EF0CF0000E596F5BAF73EF42
:1018E0000CF075EF0CF08DEF0CF05BC854F87F0E28
:1018F0005417D8B47EEF0CF080EF0CF084EF0CF0AE
:10190000010E596F8DEF0CF04CA189EF0CF08BEFAD
:101910000CF08DEF0CF080EF0CF05951D8B493EF30
:101920000CF095EF0CF0C0EF0CF0010E4C27000E00
:101930004D234E234F234FA1A0EF0CF0A2EF0CF04C
:10194000C0EF0CF04CC854F84DC855F84EC856F8C6
:101950004FC857F85735573356335533543354C857
:101960004CF855C84DF856C84EF857C84FF85A2984
:10197000D8B4BDEF0CF0BFEF0CF0C0EF0CF05A2B59
:101980005A29D8B4C6EF0CF0C8EF0CF0D0EF0CF029
:101990005A51D8A4CEEF0CF0D0EF0CF0E2EF0CF0DF
:1019A000000E4C6F000E4D6F000E4E6F000E4F6F0D
:1019B0005A51D8A4DEEF0CF0E0EF0CF0E2EF0CF09F
:1019C000000E586F5AA1E7EF0CF0E9EF0CF0ECEFC6
:1019D0000CF04E8FEDEF0CF04E9FD8905A314F6FB8
:1019E00058AFF5EF0CF0F7EF0CF0F8EF0CF04F8F6D
:1019F0004CC84CF84DC84DF84EC84EF84FC84FF87B
:101A0000120005018551800B8E6F85518525906FE1
:101A100084AF0DEF0DF00FEF0DF010EF0DF0908192
:101A20009051D8B416EF0DF018EF0DF02DEF0DF02A
:101A30009029D8A41EEF0DF020EF0DF028EF0DF047
:101A4000000E826F000E836F000E846F000E856F94
:101A5000848F000E856F35EF0DF0000E826F000E43
:101A6000836F000E846F000E856F8951800B8F6F1E
:101A70008E518F19D8B43FEF0DF041EF0DF042EFCA
:101A80000DF08E8D895189258F6F88AF4AEF0DF04B
:101A90004CEF0DF04DEF0DF08F818F51D8B453EF17
:101AA0000DF055EF0DF06AEF0DF08F29D8A45BEF24
:101AB0000DF05DEF0DF065EF0DF0000E866F000E7E
:101AC000876F000E886F000E896F888F000E896FF8
:101AD00072EF0DF0000E866F000E876F000E886F9C
:101AE000000E896F90518F5DD8B079EF0DF07BEFCC
:101AF0000DF0A2EF0DF08EAD80EF0DF082EF0DF046
:101B000084EF0DF0800E8E1B90C591F58FC590F57A
:101B100091C58FF582C591F586C582F591C586F58B
:101B200083C591F587C583F591C587F584C591F582
:101B300088C584F591C588F585C591F589C585F574
:101B400091C589F5000E916F90518FC58AF58B6B09
:101B50008A5F000E8B5B8BBFB7EF0DF08B5109E1F5
:101B60001A0E8A5DD8A0B7EF0DF0B9EF0DF0F0EFC7
:101B70000DF08251831184118511D8A4C2EF0DF0AC
:101B8000C5EF0DF0010EC6EF0DF0000E916F000EC7
:101B9000826F000E836F000E846F000E856F8FC5FD
:101BA00090F5F9EF0DF091A1D8EF0DF0DAEF0DF00F
:101BB000E0EF0DF0D89091310109916FE2EF0DF057
:101BC000D890913382A1E7EF0DF0E9EF0DF0EAEF45
:101BD0000DF0918F85358533843383338233902B99
:101BE0008F51905DD8A0F7EF0DF0F9EF0DF0D3EF26
:101BF0000DF08EBDFEEF0DF000EF0EF040EF0EF099
:101C00009051D8A406EF0EF008EF0EF012EF0EF090
:101C1000000E826F000E836F000E846F000E856FC2
:101C200061EF0FF0865182278751832388518423E7
:101C30008951852385A11FEF0EF021EF0EF0CDEF26
:101C40000EF091A126EF0EF028EF0EF02EEF0EF021
:101C5000D89091310109916F30EF0EF0D890913307
:101C600082A135EF0EF037EF0EF038EF0EF0918FC6
:101C700085358533843383338233902BCDEF0EF05B
:101C80008651825D87518359885184598551800AD4
:101C90008A6F8951800A8A59D8B051EF0EF053EFFC
:101CA0000EF07EEF0EF08251865D8A6F8351875968
:101CB0008B6F845188598C6F855189598D6FFF0EB8
:101CC0008A25826FFF0E8B21836FFF0E8C21846F1C
:101CD000FF0E8D21856F800E8E1B916D9151D8A4C2
:101CE00074EF0EF076EF0EF086EF0EF0010E822705
:101CF000000E83238423852386EF0EF08651825FB6
:101D00008751835B8851845B8951855B8251831144
:101D100084118511D8A48FEF0EF091EF0EF0C6EF6D
:101D20000EF09151D8A497EF0EF099EF0EF0C6EF98
:101D30000EF0000E826F000E836F000E846F000E97
:101D4000856F61EF0FF0D8908237833784378537FE
:101D500091AFADEF0EF0AFEF0EF0B0EF0EF082816D
:101D600091A1B5EF0EF0B7EF0EF0BBEF0EF0D880FB
:101D70009137BDEF0EF0D89091379051D8B4C3EFA2
:101D80000EF0C5EF0EF0C6EF0EF0900784AFCBEF6C
:101D90000EF0CDEF0EF0A3EF0EF0000E8F6F91AFAF
:101DA000D4EF0EF0D6EF0EF0EEEF0EF091C58AF5FF
:101DB0007F0E8A17D8B4DFEF0EF0E1EF0EF0E5EFFB
:101DC0000EF0010E8F6FEEEF0EF082A1EAEF0EF033
:101DD000ECEF0EF0EEEF0EF0E1EF0EF08F51D8B415
:101DE000F4EF0EF0F6EF0EF021EF0FF0010E822768
:101DF000000E83238423852385A101EF0FF003EFD9
:101E00000FF021EF0FF082C58AF583C58BF584C5ED
:101E10008CF585C58DF58D358D338C338B338A33B9
:101E20008AC582F58BC583F58CC584F58DC585F58E
:101E30009029D8B41EEF0FF020EF0FF021EF0FF034
:101E4000902B9029D8B427EF0FF029EF0FF031EF46
:101E50000FF09051D8A42FEF0FF031EF0FF043EFB8
:101E60000FF0000E826F000E836F000E846F000E65
:101E7000856F9051D8A43FEF0FF041EF0FF043EF83
:101E80000FF0000E8E6F90A148EF0FF04AEF0FF0A9
:101E90004DEF0FF0848F4EEF0FF0849FD89090316C
:101EA000856F8EAF56EF0FF058EF0FF059EF0FF030
:101EB000858F82C582F583C583F584C584F585C584
:101EC00085F5120006014B51800B506F4B514B258D
:101ED000526F4AAF6EEF0FF070EF0FF071EF0FF02F
:101EE00052815251D8B477EF0FF079EF0FF08CEFA9
:101EF0000FF05229D8A47FEF0FF081EF0FF089EF98
:101F00000FF0000E486F000E496F000E4A6F000E72
:101F10004B6F4A8F94EF0FF0000E486F000E496F21
:101F2000000E4A6F000E4B6F4F51800B501B4F51EC
:101F30004F25516F4EAF9FEF0FF0A1EF0FF0A2EFC3
:101F40000FF051815151D8B4A8EF0FF0AAEF0FF064
:101F5000BDEF0FF05129D8A4B0EF0FF0B2EF0FF0A2
:101F6000BAEF0FF0000E4C6F000E4D6F000E4E6F6B
:101F7000000E4F6F4E8FC5EF0FF0000E4C6F000E2E
:101F80004D6F000E4E6F000E4F6F5151D8B4CBEF16
:101F90000FF0CDEF0FF0D5EF0FF05251D8A4D3EFE3
:101FA0000FF0D5EF0FF0DFEF0FF0000E486F000ECF
:101FB000496F000E4A6F000E4B6F98EF11F04E51B3
:101FC0004803F3C45BF6F4C45CF65B51536F546B87
:101FD000556B566B5C51576F586B596B5A6B4D5123
:101FE0004903F3C45BF6F4C45CF65B515327000E5F
:101FF0005423552356235C515727000E5823592349
:102000005A234C514A03F3C45BF6F4C45CF65B51AB
:102010005327000E5423552356235C515727000E97
:10202000582359235A2355C656F654C655F653C657
:1020300054F6536B4C514903F3C45BF6F4C45CF69D
:102040005B5153275C515423000E5523000E562339
:102050004D514803F3C45BF6F4C45CF65B5153275F
:102060005C515423000E5523000E562355C656F6D8
:1020700054C655F653C654F6536B4C514803F3C43B
:102080005BF6F4C45CF65B5153275C515423000E9D
:102090005523000E56234E514903F3C45BF6F4C496
:1020A0005CF65B5157275C515823000E5923000EF4
:1020B0005A234D514A03F3C45BF6F4C45CF65B51FA
:1020C00057275C515823000E5923000E5A234E51B6
:1020D0004A03F3C45BF6F4C45CF65B510501B16FCF
:1020E00006015C510501B26FB36BB46BB3C5B4F5B7
:1020F000B2C5B3F5B1C5B2F5B16BB1510601572701
:102100000501B251060158230501B35106015923B7
:102110000501B45106015A2353C6B1F554C6B2F5B0
:1021200055C6B3F556C6B4F5190E9DEF10F005016E
:10213000D890B433B333B233B133E82E97EF10F005
:10214000B151060157270501B25106015823050177
:10215000B351060159230501B45106015A2355C64E
:1021600056F654C655F653C654F6536B515152C6E3
:10217000B1F50501B26BB127000EB223820EB12575
:1021800006015B6FFF0E0501B22106015C6FDEEFF9
:1021900010F0D8905737583759375A3756AFD3EFD2
:1021A00010F0D5EF10F0D6EF10F05781D8905337DC
:1021B0005437553756375B07D8A05C0759AFE3EF64
:1021C00010F0E5EF10F0C9EF10F0000E516F56AFB0
:1021D000ECEF10F0EEEF10F01BEF11F0FF0E5315C7
:1021E0000501B16FFF0E060154150501B26FFF0E18
:1021F000060155150501B36F7F0E06015615050141
:10220000B46FB151B211B311B411D8B40AEF11F0D7
:102210000CEF11F011EF11F0010E0601516F1BEFE1
:1022200011F0060157A117EF11F019EF11F01BEF94
:1022300011F00CEF11F05151D8B421EF11F023EF50
:1022400011F049EF11F0010E5727000E58235923C2
:102250005A235AA12EEF11F030EF11F049EF11F08F
:1022600057C6B1F558C6B2F559C6B3F55AC6B4F556
:102270000501B435B433B333B233B133B1C557F616
:10228000B2C558F6B3C559F6B4C55AF606015B4B4C
:102290005C2B5CBF54EF11F05C5108E15B29D8A0C6
:1022A00054EF11F056EF11F060EF11F0000E576F80
:1022B000000E586F800E596F7F0E5A6F8EEF11F01F
:1022C0005CBF6DEF11F05C5106E15B05D8B06BEFC0
:1022D00011F06DEF11F079EF11F0000E576F000E55
:1022E000586F000E596F000E5A6F000E506F8EEF30
:1022F00011F05BC652F6FF0E5717FF0E58177F0EF0
:102300005917000E5A1752A188EF11F08AEF11F0F9
:102310008BEF11F0598FD89052315A6F50515A1398
:1023200057C648F658C649F659C64AF65AC64BF635
:10233000120008017E51800B876F7E517E25896FC8
:102340007DAFA5EF11F0A7EF11F0A8EF11F0898193
:102350008951D8B4AEEF11F0B0EF11F0C3EF11F026
:102360008929D8A4B6EF11F0B8EF11F0C0EF11F041
:10237000000E7B6F000E7C6F000E7D6F000E7E6F77
:102380007D8FCBEF11F0000E7B6F000E7C6F000E87
:102390007D6F000E7E6F8251800B871B82518225DC
:1023A000886F81AFD6EF11F0D8EF11F0D9EF11F0AF
:1023B00088818851D8B4DFEF11F0E1EF11F0F4EF2C
:1023C00011F08829D8A4E7EF11F0E9EF11F0F1EF4F
:1023D00011F0000E7F6F000E806F000E816F000EF7
:1023E000826F818FFCEF11F0000E7F6F000E806F07
:1023F000000E816F000E826F8851D8B402EF12F088
:1024000004EF12F00CEF12F08951D8A40AEF12F089
:102410000CEF12F016EF12F0000E7B6F000E7C6FC7
:10242000000E7D6F000E7E6FAEEF13F081517B03C7
:10243000F3C492F8F4C493F892518A6F8B6B8C6B4F
:102440008D6B93518E6F8F6B906B916B80517C0372
:10245000F3C492F8F4C493F892518A27000E8B23A8
:102460008C238D2393518E27000E8F23902391234D
:102470007F517D03F3C492F8F4C493F892518A27F4
:10248000000E8B238C238D2393518E27000E8F23D8
:10249000902391238CC88DF88BC88CF88AC88BF850
:1024A0008A6B7F517C03F3C492F8F4C493F8925181
:1024B0008A2793518B23000E8C23000E8D2380518D
:1024C0007B03F3C492F8F4C493F892518A27935192
:1024D0008B23000E8C23000E8D238CC88DF88BC8A7
:1024E0008CF88AC88BF88A6B7F517B03F3C492F80F
:1024F000F4C493F892518A2793518B23000E8C23B6
:10250000000E8D2381517C03F3C492F8F4C493F838
:1025100092518E2793518F23000E9023000E91230A
:1025200080517D03F3C492F8F4C493F892518E273E
:1025300093518F23000E9023000E912381517D0330
:10254000F3C492F8F4C493F89251836F9351846F5B
:10255000856B866B85C886F884C885F883C884F83F
:10256000836B83518E2784518F238551902386510D
:1025700091238AC883F88BC884F88CC885F88DC8E5
:1025800086F8190EC9EF12F0D8908633853384335C
:102590008333E82EC4EF12F083518E2784518F23AA
:1025A00085519023865191238CC88DF88BC88CF867
:1025B0008AC88BF88A6B885189C883F8846B832713
:1025C000000E8423820E8325926FFF0E8421936F69
:1025D000FFEF12F0D8908E378F37903791378DAF4D
:1025E000F4EF12F0F6EF12F0F7EF12F08E81D890C0
:1025F0008A378B378C378D379207D8A0930790AFE7
:1026000004EF13F006EF13F0EAEF12F0000E886FFC
:102610008DAF0DEF13F00FEF13F033EF13F0FF0E4C
:102620008A15836FFF0E8B15846FFF0E8C15856FD7
:102630007F0E8D15866F8351841185118611D8B454
:1026400024EF13F026EF13F02AEF13F0010E886F3A
:1026500033EF13F08EA12FEF13F031EF13F033EFC0
:1026600013F026EF13F08851D8B439EF13F03BEF95
:1026700013F05FEF13F0010E8E27000E8F239023CF
:10268000912391A146EF13F048EF13F05FEF13F0A1
:102690008EC883F88FC884F890C885F891C886F8EA
:1026A0008635863385338433833383C88EF884C874
:1026B0008FF885C890F886C891F8924B932B93BFFA
:1026C0006AEF13F0935108E19229D8A06AEF13F052
:1026D0006CEF13F076EF13F0000E8E6F000E8F6F1D
:1026E000800E906F7F0E916FA4EF13F093BF83EF76
:1026F00013F0935106E19205D8B081EF13F083EF08
:1027000013F08FEF13F0000E8E6F000E8F6F000E20
:10271000906F000E916F000E876FA4EF13F092C8B8
:1027200089F8FF0E8E17FF0E8F177F0E9017000E81
:10273000911789A19EEF13F0A0EF13F0A1EF13F012
:10274000908FD8908931916F875191138EC87BF803
:102750008FC87CF890C87DF891C87EF81200000EF2
:102760000801A16F000EA06F000E9D6F000E9C6F00
:10277000380EA46FA40E8B6F080E8C6F000E8E6F38
:10278000010E8D6FA20E8F6F080E906F000E926F6C
:10279000010E916F6B0E5EEC31F008018B51A0279A
:1027A0008C51A123A2A7D7EF13F0D9EF13F0DBEFE1
:1027B00013F0F6EF13F00A0E4C6F000E4D6F000E83
:1027C0004E6F000E4F6F9CEC28F008019C4B9D2B28
:1027D0009DBFF4EF13F09D5109E10A0E9C5DD8A056
:1027E000F4EF13F0F6EF13F0B8EF13F0A2B7FBEF2E
:1027F00013F0FDEF13F0FFEF13F0BCEF15F0160E22
:10280000A46FA40E8B6F080E8C6F000E8E6F010EDE
:102810008D6FA20E8F6F080E906F000E926F010EDB
:10282000916F6B0E5EEC31F008018B51A0278C513B
:10283000A123A2514409A56FA40E876F080E886FCB
:10284000000E8A6F020E896F6B0EEBEC32F00801FE
:102850008751A0278851A123640E4C6F000E4D6F45
:10286000000E4E6F000E4F6F9CEC28F0260E0801F4
:10287000A46FA40E8B6F080E8C6F000E8E6F010E6E
:102880008D6FA20E8F6F080E906F000E926F010E6B
:10289000916F6B0E5EEC31F008018B51A0278C51CB
:1028A000A123A2518009A56FA40E876F080E886F1F
:1028B000000E8A6F020E896F6B0EEBEC32F008018E
:1028C0008751A0278851A123640E4C6F000E4D6FD5
:1028D000000E4E6F000E4F6F9CEC28F0300E08017A
:1028E000A46FA40E8B6F080E8C6F000E8E6F010EFE
:1028F0008D6FA20E8F6F080E906F000E926F020EFA
:10290000916F6B0E5EEC31F008018B51A0278C515A
:10291000A123A351976F966BA25196259E6F000E2F
:1029200097219F6FFE0E9E171F0E9F17D8909F3105
:10293000966F9E319E6F96C89FF89EC84CF89FC8B0
:102940004DF84E6B4F6B000E9DEC1BF04CC87BF8A6
:102950004DC87CF84EC87DF84FC87EF8520E08016D
:102960007F6FB80E806FFE0E816F3F0E826F99EC05
:1029700011F07BC898F87CC899F87DC89AF87EC891
:102980009BF8260E0801A46FA40E8B6F080E8C6FA7
:10299000000E8E6F010E8D6FA20E8F6F080E906F5E
:1029A000000E926F010E916F6B0E5EEC31F008011C
:1029B0008B51A0278C51A123A2517F0BA56FA40E90
:1029C000876F080E886F000E8A6F020E896F6B0E7C
:1029D000EBEC32F008018751A0278851A123160E95
:1029E000A46FA40E8B6F080E8C6F000E8E6F010EFD
:1029F0008D6FA20E8F6F080E906F000E926F010EFA
:102A0000916F6B0E5EEC31F008018B51A0278C5159
:102A1000A123A251BF0BA56FA40E876F080E886F6C
:102A2000000E8A6F020E896F6B0EEBEC32F008011C
:102A30008751A0278851A123A051A111D8A423EF29
:102A400015F025EF15F07CEF15F0000E4C6F000E21
:102A50004D6FFA0E4E6F440E4F6F98C850F899C8DC
:102A600051F89AC852F89BC853F8CFEC23F00801EC
:102A7000D8B03DEF15F03FEF15F07CEF15F0F00EFC
:102A80009E5D0A0E9F59D8B048EF15F04AEF15F039
:102A90007CEF15F0160EA46FA40E8B6F080E8C6FD2
:102AA000000E8E6F010E8D6FA20E8F6F080E906F4D
:102AB000000E926F010E916F6B0E5EEC31F008010B
:102AC0008B51A0278C51A123A2512009A56FA40EE0
:102AD000876F080E886F000E8A6F020E896F6B0E6B
:102AE000EBEC32F008018751A0278851A123959A79
:102AF00007019A81ACEF15F0160EA46FA40E8B6F30
:102B0000080E8C6F000E8E6F010E8D6FA20E8F6FF0
:102B1000080E906F000E926F010E916F6B0E5EECBF
:102B200031F008018B51A0278C51A123A251DF0B5A
:102B3000A56FA40E876F080E886F000E8A6F020EB5
:102B4000896F6B0EEBEC32F008018751A02788519A
:102B5000A123958A07019A910801A051A111D8B427
:102B6000B4EF15F0B6EF15F0BAEF15F007019A8340
:102B7000BCEF15F007019A93120008015D51800B1C
:102B80006A6F5D515D25716F5CAFC9EF15F0CBEFDA
:102B900015F0CCEF15F071817151D8B4D2EF15F06A
:102BA000D4EF15F0E9EF15F07129D8A4DAEF15F09C
:102BB000DCEF15F0E4EF15F0000E5A6F000E5B6FBE
:102BC000000E5C6F000E5D6F5C8F000E5D6FF1EFAD
:102BD00015F0000E5A6F000E5B6F000E5C6F000E5A
:102BE0005D6F6151800B6A1B61516125726F60AF2F
:102BF000FCEF15F0FEEF15F0FFEF15F0728172514A
:102C0000D8B405EF16F007EF16F01CEF16F0722996
:102C1000D8A40DEF16F00FEF16F017EF16F0000E18
:102C20005E6F000E5F6F000E606F000E616F608F51
:102C3000000E616F24EF16F0000E5E6F000E5F6FE6
:102C4000000E606F000E616F5E515F1160116111C7
:102C5000D8A42DEF16F02FEF16F047EF16F0000E68
:102C60005A6F000E5B6F000E5C6F000E5D6F800E82
:102C70005C137F0E5D136A515D135AC85AF85BC826
:102C80005BF85CC85CF85DC85DF88AEF17F07151BD
:102C9000D8A44DEF16F04FEF16F059EF16F0000ED6
:102CA0005A6F000E5B6F000E5C6F000E5D6F8AEF57
:102CB00017F0725171C862F8636B625F000E635B5C
:102CC0007F0E62256B6F000E63216C6F5AC866F829
:102CD0005BC867F85CC868F85DC869F8000E5A6F91
:102CE000000E5B6F000E5C6F000E5D6F000E6D6F6F
:102CF000000E6E6F000E6F6F000E706F000E726F21
:102D0000BAEF16F07251D8B488EF16F08AEF16F0C9
:102D1000A1EF16F0D8906637673768376937D890D3
:102D20005A375B375C375D3770AF99EF16F09BEF22
:102D300016F09CEF16F05A81D8906D376E376F37CA
:102D400070375E51665D5F516759605168596151D6
:102D50006959D8A0AEEF16F0B0EF16F0B9EF16F043
:102D6000708D5E51665F5F51675B6051685B61515A
:102D7000695B722B190E7265C0EF16F0C2EF16F088
:102D800082EF16F06651671168116911D8B4CBEF64
:102D900016F0CDEF16F0E5EF16F06D81E5EF16F0C9
:102DA000D8905A375B375C375D3770AFDAEF16F083
:102DB000DCEF16F0DDEF16F05A81D8906D376E37E4
:102DC0006F3770376B07D8A06C075CAFEAEF16F06F
:102DD000ECEF16F0D0EF16F0000E726F70AFF3EF5D
:102DE00016F0F5EF16F019EF17F0FF0E6D15626F84
:102DF000FF0E6E15636FFF0E6F15646F7F0E7015FB
:102E0000656F6251631164116511D8B40AEF17F050
:102E10000CEF17F010EF17F0010E726F19EF17F0AB
:102E20005AA115EF17F017EF17F019EF17F00CEF85
:102E300017F07251D8B41FEF17F021EF17F045EFDC
:102E400017F0010E5A27000E5B235C235D235DA162
:102E50002CEF17F02EEF17F045EF17F05AC862F875
:102E60005BC863F85CC864F85DC865F865356533B0
:102E700064336333623362C85AF863C85BF864C86A
:102E80005CF865C85DF86B4B6C2B6CBF50EF17F0AE
:102E90006C5108E16B29D8A050EF17F052EF17F0F2
:102EA0005DEF17F0000E6C6F6B69000E5A6F000E2D
:102EB0005B6F000E5C6F000E5D6F6CBF6AEF17F00A
:102EC0006C5106E16B05D8B068EF17F06AEF17F0A8
:102ED00078EF17F0000E6C6F000E6B6F000E5A6FDC
:102EE000000E5B6F000E5C6F000E5D6F000E6A6F70
:102EF0006BC871F871A17FEF17F081EF17F084EFC5
:102F000017F05C8F85EF17F05C9FD89071315D6F83
:102F10003BEF16F0120005019351800BA06F935107
:102F20009325A76F92AF97EF17F099EF17F09AEFED
:102F300017F0A781A751D8B4A0EF17F0A2EF17F0B0
:102F4000B7EF17F0A729D8A4A8EF17F0AAEF17F04A
:102F5000B2EF17F0000E906F000E916F000E926F9F
:102F6000000E936F928F000E936FBFEF17F0000E5D
:102F7000906F000E916F000E926F000E936F97513D
:102F8000800BA01B97519725A86F96AFCAEF17F03B
:102F9000CCEF17F0CDEF17F0A881A851D8B4D3EF3C
:102FA00017F0D5EF17F0EAEF17F0A829D8A4DBEF58
:102FB00017F0DDEF17F0E5EF17F0000E946F000E3D
:102FC000956F000E966F000E976F968F000E976F9D
:102FD000F2EF17F0000E946F000E956F000E966FD3
:102FE000000E976F9451951196119711D8A4FBEF8D
:102FF00017F0FDEF17F015EF18F0000E906F000EB0
:10300000916F000E926F000E936F800E92137F0EE1
:103010009313A051931390C590F591C591F592C566
:1030200092F593C593F558EF19F0A751D8A41BEF6B
:1030300018F01DEF18F027EF18F0000E906F000E3B
:10304000916F000E926F000E936F58EF19F0A85118
:10305000A7C598F5996B985F000E995B7F0E982530
:10306000A16F000E9921A26F90C59CF591C59DF5A9
:1030700092C59EF593C59FF5000E906F000E916F5F
:10308000000E926F000E936F000EA36F000EA46FE0
:10309000000EA56F000EA66F000EA86F88EF18F047
:1030A000A851D8B456EF18F058EF18F06FEF18F099
:1030B000D8909C379D379E379F37D890903791375F
:1030C00092379337A6AF67EF18F069EF18F06AEF01
:1030D00018F09081D890A337A437A537A63794511C
:1030E0009C5D95519D5996519E5997519F59D8A0D5
:1030F0007CEF18F07EEF18F087EF18F0A68D945152
:103100009C5F95519D5B96519E5B97519F5BA82B51
:10311000190EA8658EEF18F090EF18F050EF18F028
:103120009C519D119E119F11D8B499EF18F09BEFFF
:1031300018F0B3EF18F0A381B3EF18F0D8909037E0
:10314000913792379337A6AFA8EF18F0AAEF18F08F
:10315000ABEF18F09081D890A337A437A537A637E6
:10316000A107D8A0A20792AFB8EF18F0BAEF18F0F5
:103170009EEF18F0000EA86FA6AFC1EF18F0C3EFD6
:1031800018F0E7EF18F0FF0EA315986FFF0EA415C7
:10319000996FFF0EA5159A6F7F0EA6159B6F98511C
:1031A00099119A119B11D8B4D8EF18F0DAEF18F0F2
:1031B000DEEF18F0010EA86FE7EF18F090A1E3EF33
:1031C00018F0E5EF18F0E7EF18F0DAEF18F0A85173
:1031D000D8B4EDEF18F0EFEF18F013EF19F0010E7F
:1031E0009027000E91239223932393A1FAEF18F0D6
:1031F000FCEF18F013EF19F090C598F591C599F50B
:1032000092C59AF593C59BF59B359B339A339933B9
:10321000983398C590F599C591F59AC592F59BC5D7
:1032200093F5A14BA22BA2BF1EEF19F0A25108E10A
:10323000A129D8A01EEF19F020EF19F02BEF19F0FB
:10324000000EA26FA169000E906F000E916F000E2C
:10325000926F000E936FA2BF38EF19F0A25106E1F2
:10326000A105D8B036EF19F038EF19F046EF19F094
:10327000000EA26F000EA16F000E906F000E916FF6
:10328000000E926F000E936F000EA06FA1C5A7F500
:10329000A7A14DEF19F04FEF19F052EF19F0928FEF
:1032A00053EF19F0929FD890A731936F09EF18F060
:1032B00012000EEC34F04CC89EF84DC89FF84EC872
:1032C000A0F84FC8A1F850C8A2F851C8A3F852C836
:1032D000A4F853C8A5F80801A551A411A311A2117F
:1032E000A111A01109E1880E9E5D130E9F59D8B05F
:1032F0007CEF19F07EEF19F080EF19F084EF1AF0EF
:1033000046C6AEF80EEC34F04CC89EF84DC89FF897
:103310004EC8A0F84FC8A1F850C8A2F851C8A3F8E9
:1033200052C8A4F853C8A5F821EE15F2C40EDE2445
:103330000801A66F090EDE20A76F000EDE20A86F21
:10334000000EDE20A96F000EDE20AA6F000EDE2028
:10335000AB6F000EDE20AC6F000EDE20AD6F9E5115
:10336000A65D9F51A759A051A859A151A959A25191
:10337000AA59A351AB59A451AC59A551AD59D8B0D4
:10338000C4EF19F0C6EF19F0CDEF19F007019993CA
:10339000000E0601466FD2EF19F007019983010E66
:1033A0000601466F9251D8B4D8EF19F0DAEF19F050
:1033B0001AEF1AF04651D8B4E0EF19F0E2EF19F025
:1033C000F5EF19F0010EF7EC2AF0000E0801546F2A
:1033D000640E536FB2EC33F0000E08014C6F000E18
:1033E0004D6FEAEC35F01AEF1AF0000EF7EC2AF008
:1033F000940E08014C6F060E4D6F21EC35F00EEC6B
:1034000034F04CC8B5F54DC8B6F54EC8B7F54FC841
:10341000B8F550C8B9F551C8BAF552C8BBF553C88C
:10342000BCF5E80E08014C6F660E4D6FEAEC35F006
:1034300037EC22F006019251D8A421EF1AF023EFC5
:103440001AF07EEF1AF04651D8B429EF1AF02BEF9C
:103450001AF047EF1AF00801AE51D8A432EF1AF073
:1034600034EF1AF047EF1AF0010EF7EC2AF0000ED5
:103470000801546F640E536FB2EC33F0000E080174
:103480004C6F000E4D6FEAEC35F07EEF1AF006013E
:103490004651D8A44EEF1AF050EF1AF07EEF1AF012
:1034A0000801AE51D8B457EF1AF059EF1AF07EEF79
:1034B0001AF0000EF7EC2AF0940E08014C6F060E7D
:1034C0004D6F21EC35F00EEC34F04CC8B5F54DC81D
:1034D000B6F54EC8B7F54FC8B8F550C8B9F551C8DC
:1034E000BAF552C8BBF553C8BCF5E80E08014C6FDD
:1034F000660E4D6FEAEC35F037EC22F0000E060157
:10350000926F080E47EC2BF012000501786F79EFEF
:103510001BF01F0EF66E150EF76EF86A0900F5C463
:1035200076F50900F5C477F502D8A0EF1AF005008A
:10353000FA6E7651FD6E7751FE6EFF6AFA501200F8
:103540000009D8A4A6EF1AF0A8EF1AF09BEF1BF021
:10355000010E1D6E9BEF1BF01D50D8B4B2EF1AF098
:10356000B4EF1AF0D0EF1AF01B0EF66E150EF76ED0
:10357000F86A0900F5C476F50900F5C477F502D8B4
:10358000CBEF1AF00500FA6E7651FD6E7751FE6EA4
:10359000FF6AFA5012001E6E000E1D6E9BEF1BF0AC
:1035A0001E50D8B4D6EF1AF0D8EF1AF0E0EF1AF0A8
:1035B000090E1E64DEEF1AF0E0EF1AF0E2EF1AF0E7
:1035C000000E1E6E8F0E1E24D96EDA6A070EDA22E6
:1035D0001B0EF66E150EF76EF86A0900F5C476F547
:1035E0000900F5C477F502D8FFEF1AF00500FA6E6E
:1035F0007651FD6E7751FE6EFF6AFA501200DF6E53
:103600001E2A090E1E6407EF1BF009EF1BF09BEF4B
:103610001BF0010E1E6E9BEF1BF0190EF66E150EC1
:10362000F76EF86A0900F5C476F50900F5C477F578
:1036300002D82BEF1BF00500FA6E7651FD6E775124
:10364000FE6EFF6AFA508F0E1E24D96EDA6A070EDC
:10365000DA22DF5012001E2A130E1E6432EF1BF016
:1036600034EF1BF09BEF1BF0000E1E6E9BEF1BF068
:10367000000E1E6E1D0EF66E150EF76EF86A09002E
:10368000F5C476F50900F5C477F502D851EF1BF0C3
:103690000500FA6E7651FD6E7751FE6EFF6AFA50A4
:1036A00012000501796F7951070190130501790521
:1036B000D8A45DEF1BF05FEF1BF061EF1BF09BEFF9
:1036C0001BF0020E7919D8A468EF1BF06AEF1BF00B
:1036D0006CEF1BF09BEF1BF0030E7919D8A473EF6E
:1036E0001BF075EF1BF077EF1BF09BEF1BF09BEFD0
:1036F0001BF005017851766F776B7751000AD8B4CB
:1037000084EF1BF09BEF1BF07651010AD8B489EFD0
:103710001AF0030AD8B4ACEF1AF0010AD8B40DEFCE
:103720001BF0070AD8B434EF1BF0010AD8B438EF05
:103730001BF09BEF1BF0010E12000801546F0801F3
:103740005451D8B4A6EF1BF0A8EF1BF0CAEF1BF042
:103750004FBFAFEF1BF0ADEF1BF0CAEF1BF04CC833
:1037600050F84DC851F84EC852F84FC853F8501F82
:10377000511F521F531F502B000E5123522353230E
:1037800050C856F851C857F852C858F853C859F895
:10379000D2EF1BF04CC856F84DC857F84EC858F831
:1037A0004FC859F84C514D114E114F11D8A4DBEFB1
:1037B0001BF0DDEF1BF0E7EF1BF0000E4C6F000E6F
:1037C0004D6F000E4E6F000E4F6F78EF1CF0960E8F
:1037D000556FF1EF1BF0552BD890593358335733B1
:1037E0005633000E5615506F000E5715516F000ED0
:1037F0005815526FFE0E5915536F505151115211F9
:103800005311D8A406EF1CF008EF1CF0EBEF1BF0EF
:1038100016EF1CF0552B010E5627000E5723582388
:103820005923D8905933583357335633000E561511
:10383000506F000E5715516F000E5815526FFF0E46
:103840005915536F5051511152115311D8A42BEFE8
:103850001CF02DEF1CF00AEF1CF035EF1CF05507A3
:10386000D890563757375837593758BF3AEF1CF06A
:103870003CEF1CF044EF1CF0020E556142EF1CF0CF
:1038800044EF1CF02FEF1CF055B149EF1CF04BEF4B
:103890001CF04CEF1CF0589FD890553355C850F889
:1038A000516B526B536B50C853F8526B516B506B4A
:1038B00050515613515157135251581353515913D4
:1038C0005451D8B466EF1CF068EF1CF070EF1CF098
:1038D0004FBF6FEF1CF06DEF1CF070EF1CF0598FB5
:1038E00056C84CF857C84DF858C84EF859C84FF844
:1038F000120005018A6F05018A51D8B482EF1CF0CD
:1039000084EF1CF0A6EF1CF085BF8BEF1CF089EF55
:103910001CF0A6EF1CF082C586F583C587F584C52B
:1039200088F585C589F5861F871F881F891F862B07
:10393000000E87238823892386C58CF587C58DF5DE
:1039400088C58EF589C58FF5AEEF1CF082C58CF564
:1039500083C58DF584C58EF585C58FF5825183119C
:1039600084118511D8A4B7EF1CF0B9EF1CF0C3EF98
:103970001CF0000E826F000E836F000E846F000E2D
:10398000856F54EF1DF0960E8B6FCDEF1CF08B2BD7
:10399000D8908F338E338D338C33000E8C15866F19
:1039A000000E8D15876F000E8E15886FFE0E8F1519
:1039B000896F8651871188118911D8A4E2EF1CF014
:1039C000E4EF1CF0C7EF1CF0F2EF1CF08B2B010EA4
:1039D0008C27000E8D238E238F23D8908F338E3328
:1039E0008D338C33000E8C15866F000E8D15876F0E
:1039F000000E8E15886FFF0E8F15896F8651871107
:103A000088118911D8A407EF1DF009EF1DF0E6EF2A
:103A10001CF011EF1DF08B07D8908C378D378E3747
:103A20008F378EBF16EF1DF018EF1DF020EF1DF041
:103A3000020E8B611EEF1DF020EF1DF00BEF1DF04D
:103A40008BB125EF1DF027EF1DF028EF1DF08E9FA5
:103A5000D8908B338BC586F5876B886B896B86C551
:103A600089F5886B876B866B86518C1387518D1314
:103A700088518E1389518F138A51D8B442EF1DF0AB
:103A800044EF1DF04CEF1DF085BF4BEF1DF049EFEB
:103A90001DF04CEF1DF08F8F8CC582F58DC583F521
:103AA0008EC584F58FC585F512000101EAA55BEF8F
:103AB0001DF05DEF1DF071EF1DF0000EEA6FE58562
:103AC000ED69EE6902D86FEF1DF00500FA6E135034
:103AD000FD6E1450FE6EFF6AFA50040E120014EFD1
:103AE0001EF0EAA776EF1DF078EF1DF0C4EF1DF091
:103AF000EA9751EC35F075C515F576C516F5000E4B
:103B00001B6E02D88EEF1DF00500FA6E1350FD6E8D
:103B10001450FE6EFF6AFA50010E1200E806D8A497
:103B200094EF1DF096EF1DF0C0EF1DF00101E4A928
:103B30009CEF1DF09EEF1DF0BCEF1DF0E5ABA3EF79
:103B40001DF0A5EF1DF0BCEF1DF002D8B2EF1DF087
:103B50000500FA6E1350FD6E1450FE6EFF6AFA50A7
:103B6000030E12000009D8A4B8EF1DF0BAEF1DF043
:103B7000BCEF1DF00101E78D0101E79D14EF1EF080
:103B80000101E78D14EF1EF0E4A9C9EF1DF0CBEFA2
:103B90001DF0F2EF1DF0E5ABD0EF1DF0D2EF1DF000
:103BA00014EF1EF0E7BBD7EF1DF0D9EF1DF014EFB7
:103BB0001EF002D8E6EF1DF00500FA6E1350FD6E00
:103BC0001450FE6EFF6AFA50030E12000009D8A4CA
:103BD000ECEF1DF0EEEF1DF014EF1EF00101E78D8C
:103BE00014EF1EF0E5A1F7EF1DF0F9EF1DF014EF53
:103BF0001EF002D806EF1EF00500FA6E1350FD6E9F
:103C00001450FE6EFF6AFA50020E1200E806D8A4A5
:103C10000CEF1EF00EEF1EF012EF1EF00101E79DFB
:103C200014EF1EF00101E78D0101E6991200050174
:103C3000C94BCA2BCA5107E1630EC95DD8B023EF47
:103C40001EF025EF1EF027EF1EF0D8EF1EF0000E3D
:103C5000CA6F000EC96F030ED119D8A432EF1EF03F
:103C600034EF1EF036EF1EF0D8EF1EF0D105D8A4C9
:103C70003CEF1EF03EEF1EF07CEF1EF0CD51CB5D11
:103C8000CE51CC59D8A047EF1EF049EF1EF077EF88
:103C90001EF0000ECC6F000ECB6FD051D8B453EF96
:103CA0001EF055EF1EF067EF1EF0000ED06F000EF5
:103CB0000601686F000E676F000E6A6F640E696F11
:103CC000F90E6C6F6B6933EC26F077EF1EF0010E86
:103CD000D06F000E0601686F640E676F000E6A6F8A
:103CE000640E696FF90E6C6F6B6933EC26F0050199
:103CF000CB4BCC2BD8EF1EF0020ED119D8A483EFFA
:103D00001EF085EF1EF0D8EF1EF0C751C811D8A4E1
:103D10008CEF1EF08EEF1EF090EF1EF0D8EF1EF02D
:103D2000CF5106016F6F706B050120EE02F0C75195
:103D3000D926C851DA22DF500601716FFF0E7125B6
:103D4000726F736BFF0E73236F51725D7351800A34
:103D5000746F7051800A7459D8B0B1EF1EF0B3EF90
:103D60001EF0B6EF1EF0000E0501CF6FC7C5D9F4E7
:103D7000C8C5DAF4DEC46FF6DDC470F60501CF51B4
:103D800006016F25D96E0501000E06017021DA6E5D
:103D9000DF50716F7151676F686B000E6A6F640E50
:103DA000696FF90E6C6F6B6933EC26F00501CF2B50
:103DB00012000801806F000E08018A6F000E896FE3
:103DC0000EEC34F04CC881F84DC882F84EC883F828
:103DD0004FC884F850C885F851C886F852C887F88B
:103DE00053C888F8000E0601476F80C84EF80801D6
:103DF0004F6B68C850F869C851F86AC852F86BC868
:103E000053F86CC854F86DC855F86EC856F86FC8AA
:103E100057F8AAEC2EF00009D8A411EF1FF013EF09
:103E20001FF06FEF1FF0080189518A11D8B41BEF02
:103E30001FF01DEF1FF01FEF1FF099EC30F00A0E7E
:103E400008014C6F000E4D6F000E4E6F000E4F6F4D
:103E50009CEC28F088EF1FF00EEC34F04CC870F8A2
:103E60004DC871F84EC872F84FC873F850C874F84E
:103E700051C875F852C876F853C877F808018151CF
:103E8000705D786F82517159796F835172597A6F71
:103E9000845173597B6F855174597C6F8651755964
:103EA0007D6F875176597E6F885177597F6F7F512B
:103EB0007E117D117C117B117A11791109E1650E5A
:103EC000785DD8A066EF1FF068EF1FF06FEF1FF06E
:103ED00099EC30F008016869696998EF1FF00601F4
:103EE0004751D8B476EF1FF078EF1FF02CEF1FF09A
:103EF000020E4719D8A47FEF1FF081EF1FF088EF63
:103F00001FF0000E0801696F000E686F98EF1FF038
:103F10000801894B8A2B8A5109E1030E895DD8A0DB
:103F200094EF1FF096EF1FF0E0EF1EF06AEF1FF026
:103F3000120008017C6F000E0801866F000E856F6D
:103F40000EEC34F04CC87DF84DC87EF84EC87FF8B2
:103F50004FC880F850C881F851C882F852C883F819
:103F600053C884F8000E0601476F7CC84EF808015C
:103F70004F6B68C850F869C851F86AC852F86BC8E6
:103F800053F8DAEC2EF00009D8A4C9EF1FF0CBEFFC
:103F90001FF027EF20F0080185518611D8B4D3EF28
:103FA0001FF0D5EF1FF0D7EF1FF099EC30F00A0E9D
:103FB00008014C6F000E4D6F000E4E6F000E4F6FDC
:103FC0009CEC28F040EF20F00EEC34F04CC86CF87C
:103FD0004DC86DF84EC86EF84FC86FF850C870F8ED
:103FE00051C871F852C872F853C873F808017D516E
:103FF0006C5D746F7E516D59756F7F516E59766F20
:1040000080516F59776F81517059786F8251715912
:10401000796F835172597A6F845173597B6F7B51D9
:104020007A117911781177117611751109E1650E00
:10403000745DD8A01EEF20F020EF20F027EF20F0D5
:1040400099EC30F008016869696950EF20F00601C9
:104050004751D8B42EEF20F030EF20F0E4EF1FF0FE
:10406000020E4719D8A437EF20F039EF20F040EFC7
:1040700020F0000E0801696F000E686F50EF20F00D
:104080000801854B862B865109E1030E855DD8A07A
:104090004CEF20F04EEF20F0A0EF1FF022EF20F0C9
:0240A00012000C
:1040A400FAC42BF5FBC42CF5F6C42DF5F7C42EF594
:1040B400F8C42FF5F5C430F55FEC36F0E806D8A463
:1040C40066EF20F068EF20F06CEF20F0D2EC24F0E3
:1040D400FCEF20F006010051D8B473EF20F075EF27
:1040E40020F0F8EF20F0F5EC34F00009D8B47DEFBF
:1040F40020F07FEF20F088EF20F0030E06010C6F14
:104104000101EC9B7DEC31F0DFEF20F000EC35F0A9
:104114000009D8B490EF20F092EF20F0ADEF20F03A
:10412400D4EC34F00009D8A49AEF20F09CEF20F0EE
:10413400A4EF20F00101ECA9A2EF20F0A4EF20F0FD
:10414400ADEF20F0010E06010C6F0101EC991CEC9F
:1041540036F0DFEF20F0DFEC34F00009D8B4B5EF2F
:1041640020F0B7EF20F0D0EF20F0D4EC34F00009C9
:10417400D8A4BFEF20F0C1EF20F0C9EF20F0010177
:10418400ECA9C7EF20F0C9EF20F0D0EF20F0020E29
:1041940006010C6F0101EC99A9EF20F0EAEC34F070
:1041A4000009D8B4D8EF20F0DAEF20F0DFEF20F0E8
:1041B400040E06010C6F0101EC9D06010C51D8B4EC
:1041C400E6EF20F0E8EF20F0FCEF20F0000E006FA7
:1041D40002D8F6EF20F00500FA6E4251FD6E43510D
:1041E400FE6EFF6AFA501200FCEF20F00101EC9918
:1041F400EC9DEC9B30C5F5F42FC5F8F42EC5F7F40F
:104204002DC5F6F42CC5FBF42BC5FAF41100010EF0
:1042140006010D27000E0E230F2310231123122352
:10422400132314231D511E111F11201121112211BA
:1042340023112411D8B421EF21F023EF21F045EF0D
:1042440021F00DC62FF80EC630F80FC631F810C68F
:1042540032F811C633F812C634F813C635F814C64A
:1042640036F81DC637F81EC638F81FC639F820C6FA
:104274003AF821C63BF822C63CF823C63DF824C6CA
:104284003EF89FEC26F0060114511311121111117E
:1042940010110F110BE1E90E0D5D030E0E59D8A09C
:1042A40056EF21F058EF21F09AEF21F00DC62FF8C8
:1042B4000EC630F80FC631F810C632F811C633F8FE
:1042C40012C634F813C635F814C636F88AC637F859
:1042D4008BC638F88CC639F88DC63AF88EC63BF8CA
:1042E4008FC63CF890C63DF891C63EF89FEC26F088
:1042F4002FC840F830C841F831C842F832C843F8F2
:1043040033C844F834C845F835C846F836C847F8C1
:104314000801405141114211431144114511461104
:104324004711D8A498EF21F09AEF21F0A6EF21F0DD
:10433400B20E08012F6F320E306F000E316F000E77
:10434400326F080EFFEC29F01200070101BFB3EF32
:1043540021F0015108E10005D8A0B3EF21F0B5EF39
:1043640021F032EF22F0000E0801B36F000EB26F9D
:10437400B2C84CF8B3C84DF8000E4F6F050E4E6F1F
:104384008AEC33F0020E08014C25D96E070E4D213C
:10439400DA6EDE50DE10D8B4D2EF21F0D4EF21F083
:1043A4001FEF22F0B2C84CF8B3C84DF8000E4F6F9F
:1043B400050E4E6F8AEC33F0060E08014C25D96EBB
:1043C400070E4D21DA6EDF50D8A4EBEF21F0EDEFAC
:1043D40021F01FEF22F0B2C84CF8B3C84DF8000E1C
:1043E4004F6F050E4E6F8AEC33F0020E08014C2518
:1043F4009C6F070E4D219D6FB2C84CF8B3C84DF8A1
:10440400000E4F6F050E4E6F8AEC33F0020E08015A
:104414004C25D96E070E4D21DA6EDEC4B0F8DDC42A
:10442400B1F802D81FEF22F00500FA6EB051FD6E0C
:10443400B151FE6EFF6AFA5012000801B24BB32B61
:10444400B3BF2EEF22F0B35109E10D0EB25DD8A037
:104454002EEF22F030EF22F0BAEF21F0A7EF21F097
:104464003FEC35F0A7EF21F01200000E0801976F22
:10447400000E966F160E9A6F9A0E8B6F080E8C6F45
:10448400000E8E6F010E8D6F980E8F6F080E906F59
:10449400000E926F010E916F6B0E5EEC31F008010D
:1044A4008B5196278C519723985104099B6F9A0E30
:1044B400876F080E886F000E8A6F020E896F6B0E6D
:1044C400EBEC32F008018751962788519723270E89
:1044D4009A6F9A0E8B6F080E8C6F000E8E6F010E02
:1044E4008D6F980E8F6F080E906F000E926F010EF5
:1044F400916F6B0E5EEC31F008018B5196278C5155
:1045040097239851BF0B9B6F9A0E876F080E886F85
:10451400000E8A6F020E896F6B0EEBEC32F008010D
:104524008751962788519723260E9A6F9A0E8B6F80
:10453400080E8C6F000E8E6F010E8D6F980E8F6FAC
:10454400080E906F000E926F010E916F6B0E5EEC71
:1045540031F008018B5196278C5197239851BC094F
:104564009B6F9B51BF0B9B6F9A0E876F080E886FD2
:10457400000E8A6F020E896F6B0EEBEC32F00801AD
:10458400875196278851972312000801963597354D
:104594009D6F9D51D8A4D1EF22F0D3EF22F0DDEF2F
:1045A40022F0000E946F000E956F000E966F000EB1
:1045B400976F4AEF23F094C898F895C899F896C86D
:1045C4009AF897C89BF8200EEDEF22F0D8909B3311
:1045D4009A3399339833E82EE8EF22F098519C6F80
:1045E400968FFF0E9417FF0E9517FF0E9617000E69
:1045F4009717960E9D5F9DBF04EF23F002EF23F003
:104604001AEF23F09D51800A970FD8B00CEF23F0D6
:104614000EEF23F010EF23F0D3EF22F0D89097336E
:104624009633953394339D3F10EF23F032EF23F00C
:104634001F0E9D6520EF23F022EF23F02AEF23F0D5
:10464400D3EF22F0D89094379537963797379D0754
:104654009D51D8A430EF23F032EF23F024EF23F060
:104664009C51D8B438EF23F03AEF23F042EF23F013
:10467400971F961F951F946D000E952396239723DD
:1046840094C894F895C895F896C896F897C897F87A
:10469400120006015F356035666F6651D8A455EF88
:1046A40023F057EF23F061EF23F0000E5D6F000E4F
:1046B4005E6F000E5F6F000E606FCEEF23F05DC67D
:1046C40061F65EC662F65FC663F660C664F6200EE7
:1046D40071EF23F0D8906433633362336133E82E8F
:1046E4006CEF23F06151656F5F8FFF0E5D17FF0E56
:1046F4005E17FF0E5F17000E6017960E665F66BFAB
:1047040088EF23F086EF23F09EEF23F06651800AB2
:10471400970FD8B090EF23F092EF23F094EF23F0AB
:1047240057EF23F0D89060335F335E335D33663FD9
:1047340094EF23F0B6EF23F01F0E6665A4EF23F089
:10474400A6EF23F0AEEF23F057EF23F0D8905D37B8
:104754005E375F37603766076651D8A4B4EF23F03D
:10476400B6EF23F0A8EF23F06551D8B4BCEF23F0E3
:10477400BEEF23F0C6EF23F0601F5F1F5E1F5D6D69
:10478400000E5E235F2360235DC65DF65EC65EF6A3
:104794005FC65FF660C660F61200000E08014C1595
:1047A400546F000E4D15556F800E4E15566F7F0ECB
:1047B4004F15576F5451551156115711D8A4E5EFA1
:1047C40023F0E7EF23F0EFEF23F0000E4C6F000E21
:1047D4004D6F000E4E6F000E4F6F000E5015546F4C
:1047E400000E5115556F800E5215566F7F0E5315DE
:1047F400576F5451551156115711D8A404EF24F092
:1048040006EF24F00EEF24F0000E506F000E516FEF
:10481400000E526F000E536F4FAF13EF24F015EFDD
:1048240024F01EEF24F04C6D4D1FD8B04D2B4E1FBD
:10483400D8B04E2B800E4F5753AF23EF24F025EF03
:1048440024F02EEF24F0506D511FD8B0512B521F7D
:10485400D8B0522B800E5357000E4C1B000E4D1B2C
:10486400000E4E1B800E4F1B000E501B000E511BE2
:10487400000E521B800E531B50514C5D51514D592B
:1048840052514E5953514F59D8B04BEF24F04DEF7C
:1048940024F050EF24F0D89051EF24F0D880120087
:1048A400FAC424F5FBC425F5F6C426F5F7C427F5A8
:1048B400F8C428F5F5C429F55FEC36F0E806D8A469
:1048C40066EF24F068EF24F06CEF24F055EC1DF053
:1048D400C5EF24F006010051D8B473EF24F075EF4E
:1048E40024F0C0EF24F00101EBA57BEF24F07DEF71
:1048F40024F088EF24F0EAA582EF24F084EF24F07A
:1049040088EF24F0BBEC30F0C5EF24F0EBAF8DEF73
:1049140024F08FEF24F0ACEF24F0EAAF94EF24F00E
:1049240096EF24F0ACEF24F006010B51D8B49DEFC0
:1049340024F09FEF24F0A8EF24F0000E0B6F010188
:10494400EA91EA9F8BEC32F0C5EF24F01CEC36F0D0
:1049540084EF24F0EBA3B1EF24F0B3EF24F0C5EF20
:1049640024F0EAA3B8EF24F0BAEF24F0C5EF24F062
:1049740062EC36F00101EA93C5EF24F0000E010168
:10498400EA6FC5EF24F029C5F5F428C5F8F427C566
:10499400F7F426C5F6F425C5FBF424C5FAF4110092
:1049A4000101ECABD8EF24F0DAEF24F0EDEF24F0C2
:1049B400010E1B6E02D8E9EF24F00500FA6E1350C5
:1049C400FD6E1450FE6EFF6AFA50050E12000101CE
:1049D400EC9B4CEF25F0E5AFF2EF24F0F4EF24F07C
:1049E40007EF25F0020E1B6E02D803EF25F0050039
:1049F400FA6E1350FD6E1450FE6EFF6AFA50050EE7
:104A040012000101E59F4CEF25F0E7A50CEF25F01E
:104A14000EEF25F021EF25F0030E1B6E02D81DEFDB
:104A240025F00500FA6E1350FD6E1450FE6EFF6AF9
:104A3400FA50050E12000101E7954CEF25F0E7A3AB
:104A440026EF25F028EF25F03BEF25F0040E1B6E32
:104A540002D837EF25F00500FA6E1350FD6E14509E
:104A6400FE6EFF6AFA50050E12000101E7934CEF47
:104A740025F0050E1B6E02D84AEF25F00500FA6EEC
:104A84001350FD6E1450FE6EFF6AFA50050E1200AC
:104A94000101E597EC99E6991200100E936E800ED1
:104AA400946E210E956E070E8D6E000E8E6EC20EE4
:104AB4008F6E030E0401166F000E206F000E2A6F16
:104AC400100E176F000E216F000E2B6F100E186F53
:104AD400E00E226FB90E2C6F370E196FE00E236FA4
:104AE400FB0E2D6F3F0E1A6FE00E246FFB0E2E6F20
:104AF400200E0301126F200E136F000E156F000EAF
:104B0400166F210E0F6F210E106F110E526F020ED1
:104B1400536F170E546F070E296F0E0EAD6F1C0ED8
:104B2400276F0D0EAE6F1D0E266F000E04011B6F56
:104B3400040E1C6F000E1D6F000E576F000E586F91
:104B4400000E596F000E256F000E266F000E276FA2
:104B5400000E2F6FC00E306F000E316F020E080171
:104B64004C6F6D0E4D6FE0EC35F0040E08014C6F88
:104B74006D0E4D6FE5EC35F0060E08014C6F6D0EB1
:104B84004D6FEAEC35F076881200A2C84CF8A3C841
:104B94004DF808014E6B4F6B000E9DEC1BF04CC89A
:104BA4007FF84DC880F84EC881F84FC882F8A0C875
:104BB4004CF8A1C84DF808014E6B4F6B000E9DECEC
:104BC4001BF04CC85EF84DC85FF84EC860F84FC87B
:104BD40061F89EC84CF89FC84DF808014E6B4F6BA6
:104BE400000E9DEC1BF04CC85AF84DC85BF84EC83B
:104BF4005CF84FC85DF8BDEC15F05AC877F85BC88F
:104C040078F85CC879F85DC87AF8000E0801736F0B
:104C1400000E746F800E756F3F0E766F2EEC30F0C1
:104C240073C87BF874C87CF875C87DF876C87EF8BC
:104C340099EC11F07BC894F87CC895F87DC896F877
:104C44007EC897F8C7EC22F094C8A4F895C8A5F8D4
:104C5400A4C84CF8A5C84DF88CEC35F05CEC36F0E3
:104C640012006BC682F56CC683F50501846B856BF7
:104C7400000E79EC1CF082C54CF683C54DF684C554
:104C84004EF685C54FF669C682F56AC683F50501F9
:104C9400846B856B000E79EC1CF082C594F583C59A
:104CA40095F584C596F585C597F567C682F568C6FA
:104CB40083F50501846B856B000E79EC1CF082C5CD
:104CC40090F583C591F584C592F585C593F58BEC74
:104CD40017F090C5ADF591C5AEF592C5AFF593C586
:104CE400B0F5000E0501A96F000EAA6F800EAB6F20
:104CF4003F0EAC6F52EC30F0A9C548F6AAC549F690
:104D0400ABC54AF6ACC54BF662EC0FF048C65DF68F
:104D140049C65EF64AC65FF64BC660F64BEC23F016
:104D24005DC66DF65EC66EF66DC682F56EC683F51B
:104D3400A1EC35F06EEC36F0120008013751381151
:104D440039113A113B113C113D113E11D8B4ADEF6C
:104D540026F0AFEF26F0F7EF26F0010E3F6FBDEF20
:104D640026F0D8903737383739373A373B373C371E
:104D74003D373E373F2B3EAFC2EF26F0C4EF26F05F
:104D8400B3EF26F037512F5D38513059395131592D
:104D94003A5132593B5133593C5134593D513559AB
:104DA4003E513659D8A0D9EF26F0DBEF26F0EBEFD1
:104DB40026F037512F5F3851305B3951315B3A510E
:104DC400325B3B51335B3C51345B3D51355B3E516F
:104DD400365BD8903E333D333C333B333A3339333F
:104DE400383337333F2FC4EF26F02FC82FF830C89D
:104DF40030F831C831F832C832F833C833F834C81F
:104E040034F835C835F836C836F81200070199A3C6
:104E14000EEF27F010EF27F05FEF27F09981949EB3
:104E2400010E0501DB6F010ED26F640E0EEC34F03F
:104E34004CC89EF84DC89FF84EC8A0F84FC8A1F8BA
:104E440050C8A2F851C8A3F852C8A4F853C8A5F88A
:104E540008019E250501D36F000E08019F2105015D
:104E6400D46F000E0801A0210501D56F000E0801C2
:104E7400A1210501D66F000E0801A2210501D76FFB
:104E8400000E0801A3210501D86F000E0801A4211A
:104E94000501D96F000E0801A5210501DA6F740E12
:104EA40008014C6F500E4D6FD20E4E6F050E4F6FB2
:104EB400090EABEC29F06BEF27F0DE0E08014C6F06
:104EC4004E0E4D6F000E4E6F000E4F6F0A0EABEC80
:104ED40029F0070E47EC2BF01200000EF7EC2AF035
:104EE4009588640E08014C6F000E4D6F000E4E6FD6
:104EF400000E4F6F9CEC28F0000E08019F6F000E0F
:104F04009E6F000EA56F000EA46F380EA06FA00E4A
:104F14008B6F080E8C6F000E8E6F010E8D6FA20EBC
:104F24008F6F080E906F000E926F010E916F6B0ED3
:104F34005EEC31F008018B519E278C519F23A2A770
:104F4400A6EF27F0A8EF27F0AAEF27F0C5EF27F088
:104F54000A0E4C6F000E4D6F000E4E6F000E4F6F19
:104F64009CEC28F00801A44BA52BA5BFC3EF27F0A8
:104F7400A55109E10A0EA45DD8A0C3EF27F0C5EF3F
:104F840027F087EF27F0640E4C6F000E4D6F000E74
:104F94004E6F000E4F6F9CEC28F0010EF7EC2AF0D8
:104FA4000A0E47EC2BF01200000E0801A16F000E50
:104FB400A06F1D0EA26FA20E8B6F080E8C6F000ED9
:104FC4008E6F010E8D6FA40E8F6F080E906F000E02
:104FD400926F010E916F6B0E5EEC31F008018B51F4
:104FE400A0278C51A123A4B1FAEF27F0FCEF27F0FE
:104FF40003EF28F0A4AD01EF28F003EF28F036EF1B
:1050040028F02A0EA26FA20E8B6F080E8C6F000E72
:105014008E6F010E8D6FA40E8F6F080E906F000EB1
:10502400926F020E916F6B0E5EEC31F008018B51A2
:10503400A0278C51A123A4C89BF7A5C89CF7A55110
:105044009E6FA45106012E6F9EC82FF6030E080111
:10505400546FE80E536FB2EC33F0000E08014C6F3E
:10506400000E4D6FEAEC35F00C0E47EC2BF01200FD
:10507400080120EE02F09C51D9269D51DA22DEC4AB
:10508400AEF8DDC4AFF820EE09F0AE51D926AF5129
:10509400DA22DF50D8A451EF28F053EF28F058EF6C
:1050A40028F0090E47EC2BF09BEF28F00EEC34F0BF
:1050B4004CC89EF84DC89FF84EC8A0F84FC8A1F838
:1050C40050C8A2F851C8A3F852C8A4F853C8A5F808
:1050D400080120EE01F0AE51D926AF51DA229E51DB
:1050E400DE5C9F51DE58A051DE58A151DE58A2511A
:1050F400DE58A351DE58A451DE58A551DE58D8B06D
:1051040086EF28F088EF28F09BEF28F0AEC8D9F49A
:10511400AFC8DAF4DF50D8B492EF28F094EF28F057
:1051240097EF28F0948E98EF28F0949E090E47ECA0
:105134002BF012000DC660F80EC661F80FC662F8B7
:1051440010C663F811C664F812C665F813C666F88B
:1051540014C667F808014C51506F4D51516F4E51B0
:10516400526F4F51536F546B556B566B576B605165
:105174005025586F61515121596F625152215A6F14
:10518400635153215B6F645154215C6F6551552108
:105194005D6F665156215E6F675157215F6F58519D
:1051A40006010D5D0801595106010E5908015A51B5
:1051B40006010F5908015B510601105908015C51A1
:1051C4000601115908015D510601125908015E5189
:1051D4000601135908015F5106011459D8A0F5EFCF
:1051E40028F0F7EF28F0ACEF28F01200000E0801C9
:1051F400A36F000EA26F1D0E9E6F9E0E8B6F080E86
:105204008C6F000E8E6F010E8D6FA40E8F6F080EC3
:10521400906F000E926F010E916F320E5EEC31F0C2
:1052240008018B51A2278C51A323A251A311D8A406
:105234001EEF29F020EF29F04FEF29F0A4B725EF56
:1052440029F028EF29F0010E29EF29F0000EA06FB4
:10525400A4B92FEF29F032EF29F0010E33EF29F032
:10526400000EA16FA051D8A43AEF29F03CEF29F029
:1052740044EF29F0A151D8B442EF29F044EF29F0CA
:105284004FEF29F0DE0E4C6F4E0E4D6F000E4E6F39
:10529400000E4F6F0A0EABEC29F00B0E47EC2BF00F
:0252A4001200F6
:1052A800FAC480F5FBC481F56D9E01015BA15FEF37
:1052B80029F061EF29F081EF29F05AA166EF29F072
:1052C80068EF29F081EF29F05A9106014051411108
:1052D800D8B471EF29F073EF29F0A6EF29F002D8BE
:1052E8007FEF29F00500FA6E4051FD6E4151FE6EC8
:1052F800FF6AFA501200A6EF29F05BA386EF29F0A7
:1053080088EF29F0A6EF29F05AA38DEF29F08FEF47
:1053180029F0A6EF29F05A9306013E513F11D8B45F
:1053280098EF29F09AEF29F0A6EF29F002D8A6EF16
:1053380029F00500FA6E3E51FD6E3F51FE6EFF6A80
:10534800FA50120081C5FBF480C5FAF41100080177
:10535800556F010E0801546F5551050D020EF324C7
:10536800D96E070EF420DA6EDE50DE10D8B4BFEF27
:1053780029F0C1EF29F0D3EF29F05551050D060E9C
:10538800F324D96E070EF420DA6EDF50D8A4CFEFDD
:1053980029F0D1EF29F0D3EF29F0000E546F54C84B
:1053A80052F8536B5551050D020EF324D96E070EB2
:1053B800F420DA6E4CC8DEF44DC8DDF45551050D05
:1053C800040EF324D96E070EF420DA6E4EC8DEF40C
:1053D8004FC8DDF45551050D060EF324D96E070E9E
:1053E800F420DA6EDF6A5251070100270801535191
:1053F8000701012312000801386F010E0801376FF9
:105408003851050D020EF324D96E070EF420DA6E1A
:10541800DE50DE10D8B413EF2AF015EF2AF027EF8C
:105428002AF03851050D060EF324D96E070EF42024
:10543800DA6EDF50D8A423EF2AF025EF2AF027EF01
:105448002AF0000E376F37C835F8366B3851050D1E
:10545800020EF324D96E070EF420DA6E2FC8DEF49C
:1054680030C8DDF43851050D040EF324D96E070E4B
:10547800F420DA6E31C8DEF432C8DDF43851050D97
:10548800060EF324D96E070EF420DA6EDF6A355162
:105498000701002708013651070101231200000EF9
:1054A8000801536F000E526F52C84CF853C84DF89C
:1054B800000E4F6F050E4E6F8AEC33F0020E080196
:1054C8004C25D96E070E4D21DA6EDE6ADD6A52C8A8
:1054D8004CF853C84DF8000E4F6F050E4E6F8AEC0E
:1054E80033F0040E08014C25D96E070E4D21DA6EF3
:1054F800DE6ADD6A52C84CF853C84DF8000E4F6F8B
:10550800050E4E6F8AEC33F0060E08014C25D96E55
:10551800070E4D21DA6EDF6A524B532B53BF9EEFB5
:105528002AF0535109E10D0E525DD8A09EEF2AF0E2
:10553800A0EF2AF058EF2AF0000E0701016F000EC5
:10554800006F1200F00EF66E5C0EF76E000EF86E2D
:1055580001EE7BF310EE64F00900F5C4EEF4E550BB
:10556800E150FAE1500EF66E6B0EF76E000EF86E13
:1055780001EE8AF210EE0DF00900F5C4EEF4E550E4
:10558800E150FAE19E0EF66E6C0EF76E000EF86EA4
:1055980001EE31F110EE07F00900F5C4EEF4E55024
:1055A800E150FAE101EE00F37B0EEE6AE806FDE158
:1055B80001EE00F2480EEE6AE806FDE101EEB5F1F3
:1055C800270EEE6AE806FDE101EE01F1210EEE6A12
:1055D800E806FDE1080E666E000E676E000E686E46
:1055E800000125EF2CF00801516F53EC36F008014B
:1055F8005119D8A402EF2BF004EF2BF006EF2BF093
:1056080046EF2BF0515137EC2FF008015151D8A437
:1056180010EF2BF012EF2BF022EF2BF0900E4C6FC7
:105628006A0E4D6F40EC34F0760E08014C6F6C0E2C
:105638004D6F4FEC34F0959846EF2BF05105D8A4F8
:1056480028EF2BF02AEF2BF046EF2BF00A0E4C6FC9
:10565800350E4D6F230EF66E150EF76EF86A0900BB
:10566800F5C44FF80900F5C450F802D845EF2BF0FF
:105678000500FA6E4F51FD6E5051FE6EFF6AFA50EA
:105688001200958812000801516F000E0801506F32
:105698005151050D020EF324D96E070EF420DA6E6F
:1056A800DE50DE10D8B45BEF2BF05DEF2BF06FEF20
:1056B8002BF05151050D060EF324D96E070EF42078
:1056C800DA6EDF50D8A46BEF2BF06DEF2BF06FEF95
:1056D8002BF0010E506F50C84EF84F6B5151050D0D
:1056E800020EF324D96E070EF420DA6EDE6ADD6A44
:1056F8005151050D040EF324D96E070EF420DA6E0D
:10570800DE6ADD6A5151050D060EF324D96E070EC7
:10571800F420DA6EDF6A4E510701005F08014F512D
:105728000701015B120008013E6F89A29EEF2BF072
:10573800A0EF2BF0BFEF2BF006012851265D295171
:105748002759D8A0AAEF2BF0ACEF2BF0BBEF2BF02A
:1057580002D8B9EF2BF00500FA6E08013C51FD6E36
:105768003D51FE6EFF6AFA501200DEEF2BF0EAECB4
:1057780033F0DEEF2BF00601264B272B2A51265D4E
:105788002B512759D8A0CBEF2BF0CDEF2BF0DEEF24
:105798002BF0EAEC33F002D8DEEF2BF00500FA6EBE
:1057A80006013051FD6E3151FE6EFF6AFA50080154
:1057B8003E5112001200618A000E61BE010E0801FE
:1057C8004E6F619E550E606EAA0E606E6090000E60
:1057D800686E000E676E080E666E550E606EAA0E35
:1057E800606E60804EB102D0619E01D0618E7D8274
:1057F8007D847D868088808A808C818C848684885C
:10580800848A848C69926190080E08014C6F6D0E31
:105818004D6F0DEC36F07382699461920A0E08019F
:105828004C6F6D0E4D6FF4EC35F07384699661948E
:105838000C0E08014C6F6D0E4D6FEFEC35F0738652
:105848001200C5EC33F09388B5EC35F053EC2AF030
:1058580073EC32F00E0E08014C6F5C0E4D6F6DEC60
:1058680034F0B00E08014C6F630E4D6FE0EC35F06C
:10587800070199931C0E08014C6F640E4D6FE5ECFF
:1058880035F0618E618C120E08014C6F420E4D6F1F
:10589800C7EC35F0000EF7EC2AF0AFEC13F0010E70
:1058A800F7EC2AF02E0E08014C6F3C0E4D6FDBEC26
:1058B80035F0000E63EC2FF0A7EC21F055EF00F067
:1058C800040E0101E66F800EE76F080EE86F040E04
:1058D800E96F020EF96F000EEA6F000EEB6F000E13
:1058E800EC6FEC83EC81000EED6F000EEE6F270E6F
:1058F800F86F000EFA6FBEEC34F00101EB91EB95F6
:10590800E68F050EE82EFED700000000000000001C
:105918000000000000000101EA91EA95EB85F60E0F
:1059280008014C6F6C0E4D6F4FEC34F05E0E0801A1
:105938004C6F6B0E4D6F40EC34F01200FAC46FF5EB
:10594800FBC470F5F6C471F5F7C472F5F8C473F5C5
:10595800F5C474F55FEC36F0E806D8A4B6EF2CF081
:10596800B8EF2CF0BCEF2CF055EC1DF0D3EF2CF079
:1059780006010051D8B4C3EF2CF0C5EF2CF0D1EFDD
:105988002CF06BEC36F007C6D9F408C6DAF4DF6EF3
:105998000601074B082BD3EF2CF06BEC36F074C5DF
:1059A800F5F473C5F8F472C5F7F471C5F6F470C56B
:1059B800FBF46FC5FAF41100000E08019F6F000E8A
:1059C8009E6F180EA26F000EF7EC2AF0A20E0801C7
:1059D8008B6F080E8C6F000E8E6F010E8D6FA00EF0
:1059E8008F6F080E906F000E926F010E916F6B0E05
:1059F800DDEC30F008018B519E278C519F23A0517C
:105A08000B09A36FA351FB0BA36FA20E876F080EA0
:105A1800886F000E8A6F020E896F6B0E28EC32F0C9
:105A2800080187519E2788519F23060E47EC2BF0CB
:105A38001200000E0801526F000E516F4E514F11A7
:105A4800D8B429EF2DF02BEF2DF053EF2DF0010EE8
:105A5800506F33EF2DF0D8904E374F37502B4FAF54
:105A680038EF2DF03AEF2DF02FEF2DF0D890513779
:105A780052374E514C5D4F514D59D8A046EF2DF03D
:105A880048EF2DF04DEF2DF04E514C5F4F514D5BCF
:105A98005181D8904F334E33502F3AEF2DF051C8E3
:105AA8004CF852C84DF81200000E0101536F020E57
:105AB800546F000E556F5669F90E576F000E586FE8
:105AC800000E596F000E5A6F000E5B6F000E5D6F6F
:105AD800000E5E6FFA0E5F6F800E606F020E616FD0
:105AE8006D9C6D9E5A915A93779E778CFA0E080199
:105AF8004C6F6C0E4D6FD6EC35F0F80E08014C6FFC
:105B08006C0E4D6FD1EC35F0FC0E08014C6F6C0E2D
:105B18004D6FDBEC35F0800E01015C6F1200A9EFD0
:105B28002DF06CEC35F0CCEF2DF041EC32F0CCEFF1
:105B38002DF063EC35F0CCEF2DF05AEC35F0CCEFCE
:105B48002DF0EAEC33F0CCEF2DF0060125510801D9
:105B58003F6F406B4051000AD8B4B5EF2DF0A5EF68
:105B68002DF03F51010AD8B495EF2DF0030AD8B4AF
:105B780099EF2DF0010AD8B49DEF2DF0070AD8B49B
:105B880099EF2DF0010AD8B4A1EF2DF0A5EF2DF073
:025B98001200F9
:105B9C00FAC47AF5FBC47BF5F6C47CF5F7C47DF545
:105BAC00F8C47EF5F5C47FF55FEC36F0E806D8A4B2
:105BBC00E2EF2DF0E4EF2DF0E8EF2DF055EC1DF0B9
:105BCC00FAEF2DF006010051D8B4EFEF2DF0F1EF04
:105BDC002DF0FAEF2DF003C6D9F404C6DAF4034B1A
:105BEC00042BDF5026EC36F07FC5F5F47EC5F8F4B7
:105BFC007DC5F7F47CC5F6F47BC5FBF47AC5FAF4E5
:105C0C00110008013B6F25EF2EF0100E2F6F4E0E7A
:105C1C00306F000E316F000E326F070EFFEC29F063
:105C2C003FEF2EF0C00E2F6F590E306F000E316FFC
:105C3C00000E326F060EFFEC29F03FEF2EF008013C
:105C4C003B51396F3A6B3A51000AD8B430EF2EF011
:105C5C003FEF2EF03951000AD8B40BEF2EF0010AA9
:105C6C00D8B43FEF2EF0030AD8B418EF2EF03FEF64
:105C7C002EF01200010E0101E66F000EE76F000E10
:105C8C00E86F000EE96FED69EE69660EF36FFE0EBC
:105C9C00F46F660EF56FFE0EF66F7F0EF86F7A8A54
:105CAC007A8C7A867A88EB85EB87EC81EE0E08018C
:105CBC004C6F6C0E4D6F7CEC34F00101EB95E68F64
:105CCC00EB91EB95E68F050EE82EFED70000000059
:105CDC00000000000000000000000101EA91EA95BC
:105CEC00EB8512006464646464646464646400003E
:105CFC000000000000000000008000000000000018
:105D0C0000000000000000000001000700050A0F61
:105D1C0014191E23282D32373C41464B50555A5FDF
:105D2C00646464646464646464645F5A55504B4690
:105D3C00413C37322D28231E19140F0A0500000090
:105D4C000000000000000000000E0801586FF4EC89
:105D5C0031F00009D8A4B5EF2EF0B7EF2EF0D7EF45
:105D6C002EF0010E0601006F4EC801F64FC802F668
:105D7C00010E0B6F50C803F651C804F652C805F655
:105D8C0053C806F654C807F655C808F656C809F69F
:105D9C0057C80AF6000E0C6F76EC30F0010E0801B5
:105DAC00586F080158511200000E0801546FF4ECA2
:105DBC0031F00009D8A4E5EF2EF0E7EF2EF007EF55
:105DCC002FF0010E0601006F4EC801F64FC802F607
:105DDC00000E0B6F50C803F651C804F652C805F6F6
:105DEC0053C806F6000E076F000E086F000E0A6F00
:105DFC00000E096F000E0C6F76EC30F0010E0801EE
:105E0C00546F08015451120018EF2FF0C1EC35F00B
:105E1C0036EF2FF043EC36F036EF2FF03FEC36F048
:105E2C0036EF2FF006012551826F836B8351000AE8
:105E3C00D8B423EF2FF036EF2FF08251000AD8B4EC
:105E4C000CEF2FF0010AD8B40CEF2FF0030AD8B4E2
:105E5C0010EF2FF0060AD8B414EF2FF036EF2FF016
:105E6C00120008014E6F0601935108014E19D8A477
:105E7C0042EF2FF044EF2FF046EF2FF062EF2FF0B0
:105E8C00619C619E4E51D8A44EEF2FF050EF2FF035
:105E9C0059EF2FF08EEC2FF064EC2CF0000E060175
:105EAC00936F60EF2FF0E0EC2FF040EC2EF0010E32
:105EBC000601936F618E618C12000801A66F030EB0
:105ECC000501D16F0801A651D8B46FEF2FF071EF17
:105EDC002FF080EF2FF0000E9F6F640E9E6F000E60
:105EEC00A16F640EA06FF90EA36FA269C7EC25F029
:105EFC008DEF2FF0000E9F6F000E9E6F000EA16FA6
:105F0C00640EA06FF90EA36FA269C7EC25F0120006
:105F1C00000E0101E66F000EE76F000EE86F000E39
:105F2C00E96F000EED6F000EEE6F000EF36F000EBA
:105F3C00F46F000EF56F000EF66F000EF86F000E8A
:105F4C00E46F000EEC6F7A9A7A9C7A967A98EB95BD
:105F5C00EB97EE0E08014C6F6C0E4D6F7CEC34F031
:105F6C00120001010991000E0A6F000E0B6F010E59
:105F7C000C6FF80E086F300E076F085108014E6F4A
:105F8C00010107510601366F4EC837F60E0E080197
:105F9C004C6F6D0E4D6FC7EC35F0140E08014C6F45
:105FAC006D0E4D6FCCEC35F06C9C768C350E010182
:105FBC00096F1200000E0101E66F000EE76F000E74
:105FCC00E86F000EE96F000EF96F000EEA6F000E1D
:105FDC00EB6F000EEC6F000EED6F000EEE6F000E0F
:105FEC00F86F2BEC35F0F60E08014C6F6C0E4D6F04
:105FFC004FEC34F05E0E08014C6F6B0E4D6F40ECA5
:10600C0034F01200FAC448F8FBC449F86C9C36C64C
:10601C002FF837C630F85AEC32F0060134513511EE
:10602C00D8B41BEF30F01DEF30F029EF30F002D870
:10603C0029EF30F00500FA6E3451FD6E3551FE6ECD
:10604C00FF6AFA50120049C8FBF448C8FAF4110070
:10605C00000E0801771B000E781B000E791B800EBA
:10606C007A1B73C84CF874C84DF875C84EF876C8CE
:10607C004FF877C850F878C851F879C852F87AC8F0
:10608C0053F8A0EC0AF04CC873F84DC874F84EC81D
:10609C0075F84FC876F81200000E0501AD1B000E06
:1060AC00AE1B000EAF1B800EB01BA9C582F5AAC596
:1060BC0083F5ABC584F5ACC585F5ADC586F5AEC528
:1060CC0087F5AFC588F5B0C589F501EC0DF082C533
:1060DC00A9F583C5AAF584C5ABF585C5ACF5120049
:1060EC00060105510611D8B47EEF30F080EF30F088
:1060FC0091EF30F005C64CF806C64DF885EC35F03E
:10610C0006010B51D8B48DEF30F08FEF30F091EFDA
:10611C0030F059EC36F0060101510125F9EC35F05F
:10612C0056EC36F01200000E0601006F000E026FE6
:10613C000169000E036F000E046F000E076F000E56
:10614C00086F2BEC36F0FEEC35F003EC36F002D891
:10615C00BAEF30F00500FA6E06014451FD6E455160
:10616C00FE6EFF6AFA5012001200000E0601006F5C
:10617C00000E026F0169000E036F000E046F000E1B
:10618C00076F000E086F33EC36F012EC36F017EC9C
:10619C0036F002D8DCEF30F00500FA6E06014451FF
:1061AC00FD6E4551FE6EFF6AFA5012001200080196
:1061BC00936F95988BC868F88CC869F88DC86AF885
:1061CC008EC86BF88FC86CF890C86DF891C86EF8D3
:1061DC0092C86FF808019351D9EC1EF068C894F876
:1061EC0069C895F8958894C88BF895C88CF81200F6
:1061FC00FAC475F6FBC476F66D9C0501C551C61143
:10620C00D8B40BEF31F00DEF31F019EF31F002D8BB
:10621C0019EF31F00500FA6EC551FD6EC651FE6ED8
:10622C00FF6AFA50120076C6FBF475C6FAF4110038
:10623C00FAC42DF8FBC42EF86C9A0501DC51DD1163
:10624C00D8B42BEF31F02DEF31F039EF31F002D81B
:10625C0039EF31F00500FA6EDC51FD6EDD51FE6E4A
:10626C00FF6AFA5012002EC8FBF42DC8FAF4110084
:10627C00FAC44AF8FBC44BF86C9E06013251331138
:10628C00D8B44BEF31F04DEF31F059EF31F002D87B
:10629C0059EF31F00500FA6E3251FD6E3351FE6E3E
:1062AC00FF6AFA5012004BC8FBF44AC8FAF411000A
:1062BC000801936F8BC868F88CC869F88DC86AF8A8
:1062CC008EC86BF88FC86CF890C86DF891C86EF8D2
:1062DC0092C86FF808019351D9EC1EF068C894F875
:1062EC0069C895F894C88BF895C88CF8120033ECF3
:1062FC0036F012EC36F035EC35F017EC36F00101D7
:10630C00E69F0BEC35F00101EB91EB95E68F050E5A
:10631C00E82EFED700000000000000000000000086
:10632C0000000101EA91EA95EB85120004011DA51C
:10633C00A2EF31F0A4EF31F0A6EF31F0A3EC32F084
:10634C00040131ADACEF31F0AEEF31F0B0EF31F024
:10635C00BBEC32F0040131AFB6EF31F0B8EF31F0F5
:10636C00BAEF31F0D3EC32F012002A6E2A50050D40
:10637C00020EF324D96E070EF420DA6EDEC42FF869
:10638C00DDC430F82A50050D040EF324D96E070E27
:10639C00F420DA6EDEC431F8DDC432F82A50FFEC9A
:1063AC0029F0120087B4DDEF31F0DFEF31F0F3EFBD
:1063BC0031F0070199B3E5EF31F0E7EF31F0F3EF8E
:1063CC0031F0F00E08012F6F510E306F000E316F4F
:1063DC00000E326F0B0EFFEC29F01200010E0801BB
:1063EC004C6F06010051D8A4FEEF31F000EF32F0F3
:1063FC000BEF32F00101E4AF06EF32F008EF32F0B0
:10640C000BEF32F0000E08014C6F08014C511200DA
:10641C0089BC13EF32F015EF32F027EF32F01FEC9E
:10642C0034F077C615F678C616F679C617F67AC61E
:10643C0018F67BC619F67CC61AF67DC61BF67EC608
:10644C001CF6120008018B6F959887C868F888C8ED
:10645C0069F889C86AF88AC86BF808018B5199ECFD
:10646C001FF068C88CF869C88DF895888CC887F8B7
:10647C008DC888F8120089A246EF32F048EF32F04E
:10648C004BEF32F00601264B272B06012A51265DD5
:10649C002B512759D8A055EF32F057EF32F059EF66
:1064AC0032F0EAEC33F01200010109A560EF32F092
:1064BC0062EF32F06CEF32F00991080130510101BA
:1064CC00086F2FC807F1098172EF32F008013051C3
:1064DC000101086F2FC807F11200140E08014C6F50
:1064EC005E0E4D6F0DEC36F0260E08014C6F5B0EF8
:1064FC004D6F08EC36F0120E08014C6F6D0E4D6F9F
:10650C006DEC34F002EC33F01200060109510A1163
:10651C00D8B493EF32F095EF32F09BEF32F009C61E
:10652C0022F50AC623F5BBEC35F0D88006010135FF
:10653C0037EC36F065EC36F012003C503D10D8B418
:10654C00AAEF32F0ACEF32F0B8EF32F002D8B8EF7D
:10655C0032F00500FA6E3C50FD6E3D50FE6EFF6A47
:10656C00FA50120004011D9512003A503B10D8B499
:10657C00C2EF32F0C4EF32F0D0EF32F002D8D0EFED
:10658C0032F00500FA6E3A50FD6E3B50FE6EFF6A1B
:10659C00FA5012000401319D120038503910D8B451
:1065AC00DAEF32F0DCEF32F0E8EF32F002D8E8EF5D
:1065BC0032F00500FA6E3850FD6E3950FE6EFF6AEF
:1065CC00FA5012000401319F120008018B6F87C82A
:1065DC0068F888C869F889C86AF88AC86BF808012D
:1065EC008B5199EC1FF068C88CF869C88DF88CC871
:1065FC0087F88DC888F8120062AE07EF33F0EAEF27
:10660C0033F0000E0601256F000E276F000E266F6B
:10661C00000E296F000E286F000E2B6F000E2A6FD4
:10662C0075EC35F0120006013C513D11D8B421EF48
:10663C0033F023EF33F02FEF33F002D82FEF33F09A
:10664C000500FA6E3C51FD6E3D51FE6EFF6AFA502C
:10665C001200120006013A513B11D8B438EF33F056
:10666C003AEF33F046EF33F002D846EF33F0050043
:10667C00FA6E3A51FD6E3B51FE6EFF6AFA501200F3
:10668C001200060138513911D8B44FEF33F051EFE5
:10669C0033F05DEF33F002D85DEF33F00500FA6EA6
:1066AC003851FD6E3951FE6EFF6AFA50120012001D
:1066BC00000E0001386F070E3F6F070E3B6F070E81
:1066CC003C6F070E3D6F070E3E6F070E396F070EBE
:1066DC003A6F000EF46E000EF36E120089AE79EF75
:1066EC0033F07BEF33F07DEF33F089EF33F0AC0E0A
:1066FC0008012F6F4F0E306F000E316F000E326F8E
:10670C000C0EFFEC29F0120008014C514E03F3C49F
:10671C0050F8F4C451F84C514F03F35051274D51DC
:10672C004E03F350512750C84CF851C84DF8120085
:10673C00600E0101046F000E036F7F0E066F100ECA
:10674C0008014C6F6D0E4D6F08EC36F06C9A768A22
:10675C00800E0101056F1200010E0501D16F53C8A7
:10676C004CF854C84DF8000E08014F6F640E4E6F74
:10677C001DEC2DF04CC8CDF54DC8CEF5120030EC0B
:10678C0034F04FEC25F09EEC33F05EEC33F064EC1F
:10679C002CF079EC36F058EC2DF0B7EC2FF0DFEC58
:1067AC002BF012000601816F81C625F6000E060142
:1067BC00276F000E266F000E296F020E286F000E39
:1067CC002B6F3C0E2A6F1200000E0601256F000E77
:1067DC00276F000E266F000E296F000E286F000E1B
:1067EC002B6F000E2A6F74EC36F0120008012F6F1D
:1067FC002FC825F6000E0601276F000E266F000E1F
:10680C00296F3C0E286F000E2B6F3C0E2A6F120066
:10681C000DC64CF80EC64DF80FC64EF810C64FF804
:10682C0011C650F812C651F813C652F814C653F8D4
:10683C0012000DC677F60EC678F60FC679F610C69E
:10684C007AF611C67BF612C67CF613C67DF614C614
:10685C007EF61200600E00017A6F400E7C6F000E07
:10686C007E6F080E806F000E7F6F000E816F000E22
:10687C00826F120008014C514D11D8B448EF34F01E
:10688C004AEF34F04EEF34F04CC844F64DC845F6A0
:10689C00120008014C514D11D8B457EF34F059EF98
:1068AC0034F05DEF34F04CC842F64DC843F612009C
:1068BC0062AE63EF34F07DEF35F0D00E08014C6F13
:1068CC00C90EE82EFED74C2FFCD700D012000801C1
:1068DC004C514D11D8B475EF34F077EF34F07BEFA9
:1068EC0034F04CC830F64DC831F6120008014C514A
:1068FC004D11D8B484EF34F086EF34F08AEF34F0D5
:10690C004CC813F54DC814F512009AEC35F0030A77
:10691C00D8A493EF34F095EF34F098EF34F0010EE7
:06692C00BBEC31F012008B
:10693400FAC484F6FBC485F6699219EC33F085C673
:10694400FBF484C6FAF41100FAC486F6FBC487F695
:10695400699430EC33F087C6FBF486C6FAF4110070
:10696400FAC488F6FBC489F6699647EC33F089C605
:10697400FBF488C6FAF411007A8A7A8C7A867A88CB
:106984000101EB85EB83EB8FEC81EC8312000101B9
:10699400E4B9CFEF34F0D2EF34F0010ED3EF34F09A
:1069A400000E12000101E7BBDAEF34F0DDEF34F042
:1069B400010EDEEF34F0000E12000101E4B7E5EF42
:1069C40034F0E8EF34F0010EE9EF34F0000E120079
:1069D4000101ECBDF0EF34F0F3EF34F0010EF4EF0D
:1069E40034F0000E12000101ECBBFBEF34F0FEEFBB
:1069F40034F0010EFFEF34F0000E12000101E4A7A1
:106A040006EF35F009EF35F0010E0AEF35F0000E10
:106A140012007A8A7A8C7A867A880101EB85EB8374
:106A2400EB8FEC81EC831200FAC47FF6FBC480F692
:106A34009CEC31F080C6FBF47FC6FAF41100020E20
:106A44000501D16F4CC8C7F54DC8C8F5000ECF6F0E
:106A540012007A9A7A9C7A967A98000E0101EB6F6A
:106A6400000EEC6F12007A9A7A9C7A967A98000E4D
:106A74000101EB6F000EEC6F1200F28E03000000B8
:106A840000000000000000000000120062AE4DEFA4
:106A940035F02FEF36F0020E0601476F1200F1C1F8
:106AA40077F50501D89077337751756F766B1200BF
:106AB400D40E08013C6F670E3D6F020E97EC2BF06D
:106AC40012008E0E08013C6F6C0E3D6F010E97ECA8
:106AD4002BF01200960E08013C6F6C0E3D6F000EF9
:106AE40097EC2BF0120062AE7AEF35F074EF36F0CB
:106AF4000101059F1200D00E226ECA0EE82EFED7A9
:106B0400222EFCD7120008014D510101EE6F4CC832
:106B1400EDF112004CC85EF108014D5101015F6FA7
:106B240012001BC575F5000E1B6E05017551120090
:106B34000CC62AF5000E06010C6F2A50120082C5FD
:106B44005EF10501835101015F6F12000A0000002C
:096B5400000000000102A3073C4F
:106B5E0062AEB4EF35F07AEF36F01200010E060198
:106B6E00936F40EC2EF0120023500101EE6F22C500
:106B7E00EDF11200010ED8EC33F071EC36F012008C
:106B8E004CC834F64DC835F612004CC832F64DC816
:106B9E0033F612004CC83EF64DC83FF612004CC8F4
:106BAE0040F64DC841F612004CC8C5F54DC8C6F5A5
:106BBE0012004CC83CF54DC83DF512004CC83AF5D4
:106BCE004DC83BF512004CC838F54DC839F51200CA
:106BDE004CC838F64DC839F612004CC83AF64DC8B6
:106BEE003BF6120008014C6F4CC8F2F11200010185
:106BFE00EC9BEC9DEC991200000E0101E56FE58512
:106C0E0012004CC8DCF54DC8DDF512004CC83CF640
:106C1E004DC83DF612000101EC9BEC9DEC99120063
:106C2E00000E0101E56FE585120062EC36F0010100
:106C3E00E78712000501756F75C5F0F112000501A9
:106C4E00756F75C5F0F11200000E0101EA6F1200AA
:106C5E00020E0601476F1200000E0101EA6F1200CC
:106C6E00226E22C5F2F11200010E0601476F1200CC
:106C7E00050ED8EC33F01200030ED8EC33F01200F0
:106C8E00040EFCEC33F01200020EFCEC33F012009A
:076C9E00010032003818016B
:106CA6000601935112000101E68B12000101E68DE7
:106CB600120001015C8512000601935112000101C8
:106CC600E69D12000101E68B12000101EF51120050
:106CD6000101EF51120001015C8512000101058FCF
:106CE60012000101059F1200000E12001200120090
:086CF60012001200120012004E
:106D000011001200120012001200120012001200F4
:066D100012001200120047
:020000040030CA
:0B000000ECFFFFFF9FFFFF7FFFFFFFF3
:02001800FFFFE8
:00000001FF
