:0400000055EF00F0C8
:10000800A01AA919AF19B519A01AA01AA01AA01AEE
:10001800A01AA01AA01AA01AA01AA01AA01AA01A08
:10002800A01AA01AA01AA01AA01AA01AA01AA01AF8
:10003800A01AA01AA01AA01AE719401866170118E2
:10004800A01AA01AA01AA01AA01AA01AF1170D1423
:10005800A01AA01AA01AA01AA01AA01AA01AA01AC8
:10006800A01AA01AA01AA01AA01AA01AA01AA01AB8
:10007800A01AA01AA01AC0155416EF1137102A009A
:10008800A01AA01AA01AA01AA01A2A002A002A0048
:10009800A01AA01AA01AA01AA01AA01AA01AA01A88
:0600A800FF0002EF27F04B
:10150000008256465D925A0000325A0000B868AE1A
:10151000610E660000C259A45CC669526AAA6802DC
:1015200067000068660000525C00000000000012C6
:10153000690000AC64646A6E680000946900000091
:1015400008013751800B406F37513725426F36AF56
:10155000ACEF0AF0AEEF0AF0AFEF0AF04281425171
:10156000D8B4B5EF0AF0B7EF0AF0CCEF0AF0422991
:10157000D8A4BDEF0AF0BFEF0AF0C7EF0AF0000EE3
:10158000346F000E356F000E366F000E376F368FDA
:10159000000E376FD4EF0AF0000E346F000E356F77
:1015A000000E366F000E376F3B51800B416F40517C
:1015B0004119D8B4DEEF0AF0E0EF0AF0E1EF0AF0EB
:1015C000408D3B513B25416F3AAFE9EF0AF0EBEF1D
:1015D0000AF0ECEF0AF041814151D8B4F2EF0AF081
:1015E000F4EF0AF009EF0BF04129D8A4FAEF0AF062
:1015F000FCEF0AF004EF0BF0000E386F000E396FAD
:10160000000E3A6F000E3B6F3A8F000E3B6F11EFEA
:101610000BF0000E386F000E396F000E3A6F000E9F
:101620003B6F4251415DD8B018EF0BF01AEF0BF051
:1016300041EF0BF040AD1FEF0BF021EF0BF023EF6C
:101640000BF0800E401B42C843F841C842F843C823
:1016500041F834C843F838C834F843C838F835C8B6
:1016600043F839C835F843C839F836C843F83AC89A
:1016700036F843C83AF837C843F83BC837F843C888
:101680003BF8000E436F425141C83CF83D6B3C5F54
:10169000000E3D5B3DBF56EF0BF03D5109E11A0EC8
:1016A0003C5DD8A056EF0BF058EF0BF08FEF0BF02E
:1016B0003451351136113711D8A461EF0BF064EFB6
:1016C0000BF0010E65EF0BF0000E436F000E346F50
:1016D000000E356F000E366F000E376F41C842F8AE
:1016E00098EF0BF043A177EF0BF079EF0BF07FEF62
:1016F0000BF0D89043310109436F81EF0BF0D89084
:10170000433334A186EF0BF088EF0BF089EF0BF039
:10171000438F37353733363335333433422B4151EA
:10172000425DD8A096EF0BF098EF0BF072EF0BF044
:1017300040BD9DEF0BF09FEF0BF0DFEF0BF0425140
:10174000D8A4A5EF0BF0A7EF0BF0B1EF0BF0000E54
:10175000346F000E356F000E366F000E376F00EFDE
:101760000DF038513427395135233A5136233B5146
:10177000372337A1BEEF0BF0C0EF0BF06CEF0CF08E
:1017800043A1C5EF0BF0C7EF0BF0CDEF0BF0D890F6
:1017900043310109436FCFEF0BF0D890433334A1AD
:1017A000D4EF0BF0D6EF0BF0D7EF0BF0438F3735BC
:1017B0003733363335333433422B6CEF0CF038513A
:1017C000345D395135593A5136593751800A3C6F99
:1017D0003B51800A3C59D8B0F0EF0BF0F2EF0BF020
:1017E0001DEF0CF03451385D3C6F355139593D6F68
:1017F00036513A593E6F37513B593F6FFF0E3C25EA
:10180000346FFF0E3D21356FFF0E3E21366FFF0E08
:101810003F21376F800E401B436D4351D8A413EF17
:101820000CF015EF0CF025EF0CF0010E3427000E34
:1018300035233623372325EF0CF03851345F3951E7
:10184000355B3A51365B3B51375B345135113611BC
:101850003711D8A42EEF0CF030EF0CF065EF0CF040
:101860004351D8A436EF0CF038EF0CF065EF0CF0D4
:10187000000E346F000E356F000E366F000E376F9E
:1018800000EF0DF0D890343735373637373743AF60
:101890004CEF0CF04EEF0CF04FEF0CF0348143A105
:1018A00054EF0CF056EF0CF05AEF0CF0D8804337A1
:1018B0005CEF0CF0D89043374251D8B462EF0CF093
:1018C00064EF0CF065EF0CF0420736AF6AEF0CF0F6
:1018D0006CEF0CF042EF0CF0000E416F43AF73EF72
:1018E0000CF075EF0CF08DEF0CF043C83CF87F0E58
:1018F0003C17D8B47EEF0CF080EF0CF084EF0CF0C6
:10190000010E416F8DEF0CF034A189EF0CF08BEFDD
:101910000CF08DEF0CF080EF0CF04151D8B493EF48
:101920000CF095EF0CF0C0EF0CF0010E3427000E18
:1019300035233623372337A1A0EF0CF0A2EF0CF0AC
:10194000C0EF0CF034C83CF835C83DF836C83EF856
:1019500037C83FF83F353F333E333D333C333CC817
:1019600034F83DC835F83EC836F83FC837F8422944
:10197000D8B4BDEF0CF0BFEF0CF0C0EF0CF0422B71
:101980004229D8B4C6EF0CF0C8EF0CF0D0EF0CF041
:101990004251D8A4CEEF0CF0D0EF0CF0E2EF0CF0F7
:1019A000000E346F000E356F000E366F000E376F6D
:1019B0004251D8A4DEEF0CF0E0EF0CF0E2EF0CF0B7
:1019C000000E406F42A1E7EF0CF0E9EF0CF0ECEFF6
:1019D0000CF0368FEDEF0CF0369FD8904231376F18
:1019E00040AFF5EF0CF0F7EF0CF0F8EF0CF0378F9D
:1019F00034C834F835C835F836C836F837C837F83B
:101A0000120005018551800B8E6F85518525906FE1
:101A100084AF0DEF0DF00FEF0DF010EF0DF0908192
:101A20009051D8B416EF0DF018EF0DF02DEF0DF02A
:101A30009029D8A41EEF0DF020EF0DF028EF0DF047
:101A4000000E826F000E836F000E846F000E856F94
:101A5000848F000E856F35EF0DF0000E826F000E43
:101A6000836F000E846F000E856F8951800B8F6F1E
:101A70008E518F19D8B43FEF0DF041EF0DF042EFCA
:101A80000DF08E8D895189258F6F88AF4AEF0DF04B
:101A90004CEF0DF04DEF0DF08F818F51D8B453EF17
:101AA0000DF055EF0DF06AEF0DF08F29D8A45BEF24
:101AB0000DF05DEF0DF065EF0DF0000E866F000E7E
:101AC000876F000E886F000E896F888F000E896FF8
:101AD00072EF0DF0000E866F000E876F000E886F9C
:101AE000000E896F90518F5DD8B079EF0DF07BEFCC
:101AF0000DF0A2EF0DF08EAD80EF0DF082EF0DF046
:101B000084EF0DF0800E8E1B90C591F58FC590F57A
:101B100091C58FF582C591F586C582F591C586F58B
:101B200083C591F587C583F591C587F584C591F582
:101B300088C584F591C588F585C591F589C585F574
:101B400091C589F5000E916F90518FC58AF58B6B09
:101B50008A5F000E8B5B8BBFB7EF0DF08B5109E1F5
:101B60001A0E8A5DD8A0B7EF0DF0B9EF0DF0F0EFC7
:101B70000DF08251831184118511D8A4C2EF0DF0AC
:101B8000C5EF0DF0010EC6EF0DF0000E916F000EC7
:101B9000826F000E836F000E846F000E856F8FC5FD
:101BA00090F5F9EF0DF091A1D8EF0DF0DAEF0DF00F
:101BB000E0EF0DF0D89091310109916FE2EF0DF057
:101BC000D890913382A1E7EF0DF0E9EF0DF0EAEF45
:101BD0000DF0918F85358533843383338233902B99
:101BE0008F51905DD8A0F7EF0DF0F9EF0DF0D3EF26
:101BF0000DF08EBDFEEF0DF000EF0EF040EF0EF099
:101C00009051D8A406EF0EF008EF0EF012EF0EF090
:101C1000000E826F000E836F000E846F000E856FC2
:101C200061EF0FF0865182278751832388518423E7
:101C30008951852385A11FEF0EF021EF0EF0CDEF26
:101C40000EF091A126EF0EF028EF0EF02EEF0EF021
:101C5000D89091310109916F30EF0EF0D890913307
:101C600082A135EF0EF037EF0EF038EF0EF0918FC6
:101C700085358533843383338233902BCDEF0EF05B
:101C80008651825D87518359885184598551800AD4
:101C90008A6F8951800A8A59D8B051EF0EF053EFFC
:101CA0000EF07EEF0EF08251865D8A6F8351875968
:101CB0008B6F845188598C6F855189598D6FFF0EB8
:101CC0008A25826FFF0E8B21836FFF0E8C21846F1C
:101CD000FF0E8D21856F800E8E1B916D9151D8A4C2
:101CE00074EF0EF076EF0EF086EF0EF0010E822705
:101CF000000E83238423852386EF0EF08651825FB6
:101D00008751835B8851845B8951855B8251831144
:101D100084118511D8A48FEF0EF091EF0EF0C6EF6D
:101D20000EF09151D8A497EF0EF099EF0EF0C6EF98
:101D30000EF0000E826F000E836F000E846F000E97
:101D4000856F61EF0FF0D8908237833784378537FE
:101D500091AFADEF0EF0AFEF0EF0B0EF0EF082816D
:101D600091A1B5EF0EF0B7EF0EF0BBEF0EF0D880FB
:101D70009137BDEF0EF0D89091379051D8B4C3EFA2
:101D80000EF0C5EF0EF0C6EF0EF0900784AFCBEF6C
:101D90000EF0CDEF0EF0A3EF0EF0000E8F6F91AFAF
:101DA000D4EF0EF0D6EF0EF0EEEF0EF091C58AF5FF
:101DB0007F0E8A17D8B4DFEF0EF0E1EF0EF0E5EFFB
:101DC0000EF0010E8F6FEEEF0EF082A1EAEF0EF033
:101DD000ECEF0EF0EEEF0EF0E1EF0EF08F51D8B415
:101DE000F4EF0EF0F6EF0EF021EF0FF0010E822768
:101DF000000E83238423852385A101EF0FF003EFD9
:101E00000FF021EF0FF082C58AF583C58BF584C5ED
:101E10008CF585C58DF58D358D338C338B338A33B9
:101E20008AC582F58BC583F58CC584F58DC585F58E
:101E30009029D8B41EEF0FF020EF0FF021EF0FF034
:101E4000902B9029D8B427EF0FF029EF0FF031EF46
:101E50000FF09051D8A42FEF0FF031EF0FF043EFB8
:101E60000FF0000E826F000E836F000E846F000E65
:101E7000856F9051D8A43FEF0FF041EF0FF043EF83
:101E80000FF0000E8E6F90A148EF0FF04AEF0FF0A9
:101E90004DEF0FF0848F4EEF0FF0849FD89090316C
:101EA000856F8EAF56EF0FF058EF0FF059EF0FF030
:101EB000858F82C582F583C583F584C584F585C584
:101EC00085F5120006010B51800B106F0B510B258D
:101ED000126F0AAF6EEF0FF070EF0FF071EF0FF0AF
:101EE00012811251D8B477EF0FF079EF0FF08CEF29
:101EF0000FF01229D8A47FEF0FF081EF0FF089EFD8
:101F00000FF0000E086F000E096F000E0A6F000E32
:101F10000B6F0A8F94EF0FF0000E086F000E096F21
:101F2000000E0A6F000E0B6F0F51800B101B0F512C
:101F30000F25116F0EAF9FEF0FF0A1EF0FF0A2EF83
:101F40000FF011811151D8B4A8EF0FF0AAEF0FF0E4
:101F5000BDEF0FF01129D8A4B0EF0FF0B2EF0FF0E2
:101F6000BAEF0FF0000E0C6F000E0D6F000E0E6F2B
:101F7000000E0F6F0E8FC5EF0FF0000E0C6F000EEE
:101F80000D6F000E0E6F000E0F6F1151D8B4CBEF16
:101F90000FF0CDEF0FF0D5EF0FF01251D8A4D3EF23
:101FA0000FF0D5EF0FF0DFEF0FF0000E086F000E0F
:101FB000096F000E0A6F000E0B6F98EF11F00E51B3
:101FC0000803F3C41BF6F4C41CF61B51136F146B07
:101FD000156B166B1C51176F186B196B1A6B0D5123
:101FE0000903F3C41BF6F4C41CF61B511327000E9F
:101FF0001423152316231C511727000E1823192309
:102000001A230C510A03F3C41BF6F4C41CF61B512B
:102010001327000E1423152316231C511727000E17
:10202000182319231A2315C616F614C615F613C657
:1020300014F6136B0C510903F3C41BF6F4C41CF61D
:102040001B5113271C511423000E1523000E1623B9
:102050000D510803F3C41BF6F4C41CF61B511327DF
:102060001C511423000E1523000E162315C616F658
:1020700014C615F613C614F6136B0C510803F3C4FB
:102080001BF6F4C41CF61B5113271C511423000E1D
:102090001523000E16230E510903F3C41BF6F4C4D6
:1020A0001CF61B5117271C511823000E1923000E74
:1020B0001A230D510A03F3C41BF6F4C41CF61B517A
:1020C00017271C511823000E1923000E1A230E5136
:1020D0000A03F3C41BF6F4C41CF61B510501A96FD7
:1020E00006011C510501AA6FAB6BAC6BABC5ACF51F
:1020F000AAC5ABF5A9C5AAF5A96BA9510601172771
:102100000501AA51060118230501AB510601192347
:102110000501AC5106011A2313C6A9F514C6AAF588
:1021200015C6ABF516C6ACF5190E9DEF10F00501FE
:10213000D890AC33AB33AA33A933E82E97EF10F025
:10214000A951060117270501AA5106011823050107
:10215000AB51060119230501AC5106011A2315C61E
:1021600016F614C615F613C614F6136B115112C6E3
:10217000A9F50501AA6BA927000EAA23820EA9259D
:1021800006011B6FFF0E0501AA2106011C6FDEEF81
:1021900010F0D8901737183719371A3716AFD3EF12
:1021A00010F0D5EF10F0D6EF10F01781D89013375C
:1021B0001437153716371B07D8A01C0719AFE3EFE4
:1021C00010F0E5EF10F0C9EF10F0000E116F16AF30
:1021D000ECEF10F0EEEF10F01BEF11F0FF0E131507
:1021E0000501A96FFF0E060114150501AA6FFF0E68
:1021F000060115150501AB6F7F0E060116150501C9
:10220000AC6FA951AA11AB11AC11D8B40AEF11F0FF
:102210000CEF11F011EF11F0010E0601116F1BEF21
:1022200011F0060117A117EF11F019EF11F01BEFD4
:1022300011F00CEF11F01151D8B421EF11F023EF90
:1022400011F049EF11F0010E1727000E1823192382
:102250001A231AA12EEF11F030EF11F049EF11F00F
:1022600017C6A9F518C6AAF519C6ABF51AC6ACF576
:102270000501AC35AC33AB33AA33A933A9C517F686
:10228000AAC518F6ABC519F6ACC51AF606011B4B64
:102290001C2B1CBF54EF11F01C5108E11B29D8A0C6
:1022A00054EF11F056EF11F060EF11F0000E176FC0
:1022B000000E186F800E196F7F0E1A6F8EEF11F0DF
:1022C0001CBF6DEF11F01C5106E11B05D8B06BEF80
:1022D00011F06DEF11F079EF11F0000E176F000E95
:1022E000186F000E196F000E1A6F000E106F8EEF30
:1022F00011F01BC612F6FF0E1717FF0E18177F0EF0
:102300001917000E1A1712A188EF11F08AEF11F0B9
:102310008BEF11F0198FD89012311A6F10511A13D8
:1023200017C608F618C609F619C60AF61AC60BF635
:10233000120008016651800B6F6F66516625716F40
:1023400065AFA5EF11F0A7EF11F0A8EF11F07181C3
:102350007151D8B4AEEF11F0B0EF11F0C3EF11F03E
:102360007129D8A4B6EF11F0B8EF11F0C0EF11F059
:10237000000E636F000E646F000E656F000E666FD7
:10238000658FCBEF11F0000E636F000E646F000ECF
:10239000656F000E666F6A51800B6F1B6A516A256C
:1023A000706F69AFD6EF11F0D8EF11F0D9EF11F0DF
:1023B00070817051D8B4DFEF11F0E1EF11F0F4EF5C
:1023C00011F07029D8A4E7EF11F0E9EF11F0F1EF67
:1023D00011F0000E676F000E686F000E696F000E3F
:1023E0006A6F698FFCEF11F0000E676F000E686F67
:1023F000000E696F000E6A6F7051D8B402EF12F0D0
:1024000004EF12F00CEF12F07151D8A40AEF12F0A1
:102410000CEF12F016EF12F0000E636F000E646FF7
:10242000000E656F000E666FAEEF13F06951630327
:10243000F3C47AF8F4C47BF87A51726F736B746BDF
:10244000756B7B51766F776B786B796B6851640332
:10245000F3C47AF8F4C47BF87A517227000E732320
:10246000742375237B517627000E772378237923F5
:1024700067516503F3C47AF8F4C47BF87A51722784
:10248000000E7323742375237B517627000E772368
:102490007823792374C875F873C874F872C873F810
:1024A000726B67516403F3C47AF8F4C47BF87A5111
:1024B00072277B517323000E7423000E752368511D
:1024C0006303F3C47AF8F4C47BF87A5172277B5122
:1024D0007323000E7423000E752374C875F873C837
:1024E00074F872C873F8726B67516303F3C47AF8B7
:1024F000F4C47BF87A5172277B517323000E742346
:10250000000E752369516403F3C47AF8F4C47BF8B0
:102510007A5176277B517723000E7823000E79239A
:1025200068516503F3C47AF8F4C47BF87A517627CE
:102530007B517723000E7823000E792369516503C0
:10254000F3C47AF8F4C47BF87A516B6F7B516C6FEB
:102550006D6B6E6B6DC86EF86CC86DF86BC86CF8FF
:102560006B6B6B5176276C5177236D5178236E51CD
:10257000792372C86BF873C86CF874C86DF875C8A5
:102580006EF8190EC9EF12F0D8906E336D336C33BC
:102590006B33E82EC4EF12F06B5176276C51772322
:1025A0006D5178236E51792374C875F873C874F827
:1025B00072C873F8726B705171C86BF86C6B6B27D3
:1025C000000E6C23820E6B257A6FFF0E6C217B6FE1
:1025D000FFEF12F0D890763777377837793775AFC5
:1025E000F4EF12F0F6EF12F0F7EF12F07681D890D8
:1025F00072377337743775377A07D8A07B0778AF8F
:1026000004EF13F006EF13F0EAEF12F0000E706F14
:1026100075AF0DEF13F00FEF13F033EF13F0FF0E64
:1026200072156B6FFF0E73156C6FFF0E74156D6F67
:102630007F0E75156E6F6B516C116D116E11D8B4E4
:1026400024EF13F026EF13F02AEF13F0010E706F52
:1026500033EF13F076A12FEF13F031EF13F033EFD8
:1026600013F026EF13F07051D8B439EF13F03BEFAD
:1026700013F05FEF13F0010E7627000E7723782317
:10268000792379A146EF13F048EF13F05FEF13F0D1
:1026900076C86BF877C86CF878C86DF879C86EF8AA
:1026A0006E356E336D336C336B336BC876F86CC834
:1026B00077F86DC878F86EC879F87A4B7B2B7BBFBA
:1026C0006AEF13F07B5108E17A29D8A06AEF13F082
:1026D0006CEF13F076EF13F0000E766F000E776F4D
:1026E000800E786F7F0E796FA4EF13F07BBF83EFBE
:1026F00013F07B5106E17A05D8B081EF13F083EF38
:1027000013F08FEF13F0000E766F000E776F000E50
:10271000786F000E796F000E6F6FA4EF13F07AC818
:1027200071F8FF0E7617FF0E77177F0E7817000EE1
:10273000791771A19EEF13F0A0EF13F0A1EF13F042
:10274000788FD8907131796F6F51791376C863F8AB
:1027500077C864F878C865F879C866F81200000E82
:1027600008018B6F000E8A6F000E876F000E866F58
:10277000380E8E6F8E0E756F080E766F000E786FA6
:10278000010E776F8C0E796F080E7A6F000E7C6FDA
:10279000010E7B6F6B0EA1EC2FF0080175518A279B
:1027A00076518B238CA7D7EF13F0D9EF13F0DBEF23
:1027B00013F0F6EF13F00A0E346F000E356F000EB3
:1027C000366F000E376F63EC27F00801864B872BBE
:1027D00087BFF4EF13F0875109E10A0E865DD8A098
:1027E000F4EF13F0F6EF13F0B8EF13F08CB7FBEF44
:1027F00013F0FDEF13F0FFEF13F0BCEF15F0160E22
:102800008E6F8E0E756F080E766F000E786F010E4C
:10281000776F8C0E796F080E7A6F000E7C6F010E49
:102820007B6F6B0EA1EC2FF0080175518A27765152
:102830008B238C5144098F6F8E0E716F080E726F4F
:10284000000E746F020E736F6B0E0BEC31F008010B
:1028500071518A2772518B23640E346F000E356FCD
:10286000000E366F000E376F63EC27F0260E08015E
:102870008E6F8E0E756F080E766F000E786F010EDC
:10288000776F8C0E796F080E7A6F000E7C6F010ED9
:102890007B6F6B0EA1EC2FF0080175518A277651E2
:1028A0008B238C5180098F6F8E0E716F080E726FA3
:1028B000000E746F020E736F6B0E0BEC31F008019B
:1028C00071518A2772518B23640E346F000E356F5D
:1028D000000E366F000E376F63EC27F0300E0801E4
:1028E0008E6F8E0E756F080E766F000E786F010E6C
:1028F000776F8C0E796F080E7A6F000E7C6F020E68
:102900007B6F6B0EA1EC2FF0080175518A27765171
:102910008B238D51816F806B8C518025886F000EC9
:102920008121896FFE0E88171F0E8917D890893173
:10293000806F8831886F80C889F888C834F889C862
:1029400035F8366B376B000E5BEC1CF034C863F85F
:1029500035C864F836C865F837C866F8520E0801FD
:10296000676FB80E686FFE0E696F3F0E6A6F99EC65
:1029700011F063C882F864C883F865C884F866C833
:1029800085F8260E08018E6F8E0E756F080E766F15
:10299000000E786F010E776F8C0E796F080E7A6FCC
:1029A000000E7C6F010E7B6F6B0EA1EC2FF0080107
:1029B00075518A2776518B238C517F0B8F6F8E0E2A
:1029C000716F080E726F000E746F020E736F6B0ED4
:1029D0000BEC31F0080171518A2772518B23160ECE
:1029E0008E6F8E0E756F080E766F000E786F010E6B
:1029F000776F8C0E796F080E7A6F000E7C6F010E68
:102A00007B6F6B0EA1EC2FF0080175518A27765170
:102A10008B238C51BF0B8F6F8E0E716F080E726FF0
:102A2000000E746F020E736F6B0E0BEC31F0080129
:102A300071518A2772518B238A518B11D8A423EFAD
:102A400015F025EF15F07CEF15F0000E346F000E39
:102A5000356FFA0E366F440E376F82C838F883C868
:102A600039F884C83AF885C83BF85BEC23F00801D4
:102A7000D8B03DEF15F03FEF15F07CEF15F0F00EFC
:102A8000885D0A0E8959D8B048EF15F04AEF15F065
:102A90007CEF15F0160E8E6F8E0E756F080E766F2A
:102AA000000E786F010E776F8C0E796F080E7A6FBB
:102AB000000E7C6F010E7B6F6B0EA1EC2FF00801F6
:102AC00075518A2776518B238C5120098F6F8E0E7A
:102AD000716F080E726F000E746F020E736F6B0EC3
:102AE0000BEC31F0080171518A2772518B23959AB2
:102AF00007010B81ACEF15F0160E8E6F8E0E756F01
:102B0000080E766F000E786F010E776F8C0E796F5E
:102B1000080E7A6F000E7C6F010E7B6F6B0EA1ECBE
:102B20002FF0080175518A2776518B238C51DF0BCA
:102B30008F6F8E0E716F080E726F000E746F020E23
:102B4000736F6B0E0BEC31F0080171518A277251D3
:102B50008B23958A07010B9108018A518B11D8B4F8
:102B6000B4EF15F0B6EF15F0BAEF15F007010B83CF
:102B7000BCEF15F007010B93120008014551800BC3
:102B8000526F45514525596F44AFC9EF15F0CBEF52
:102B900015F0CCEF15F059815951D8B4D2EF15F09A
:102BA000D4EF15F0E9EF15F05929D8A4DAEF15F0B4
:102BB000DCEF15F0E4EF15F0000E426F000E436FEE
:102BC000000E446F000E456F448F000E456FF1EF0D
:102BD00015F0000E426F000E436F000E446F000EA2
:102BE000456F4951800B521B495149255A6F48AFD7
:102BF000FCEF15F0FEEF15F0FFEF15F05A815A517A
:102C0000D8B405EF16F007EF16F01CEF16F05A29AE
:102C1000D8A40DEF16F00FEF16F017EF16F0000E18
:102C2000466F000E476F000E486F000E496F488FC9
:102C3000000E496F24EF16F0000E466F000E476F2E
:102C4000000E486F000E496F465147114811491157
:102C5000D8A42DEF16F02FEF16F047EF16F0000E68
:102C6000426F000E436F000E446F000E456F800EE2
:102C700044137F0E45135251451342C842F843C8CE
:102C800043F844C844F845C845F88AEF17F059514D
:102C9000D8A44DEF16F04FEF16F059EF16F0000ED6
:102CA000426F000E436F000E446F000E456F8AEFB7
:102CB00017F05A5159C84AF84B6B4A5F000E4B5BEC
:102CC0007F0E4A25536F000E4B21546F42C84EF8B9
:102CD00043C84FF844C850F845C851F8000E426F39
:102CE000000E436F000E446F000E456F000E556FCF
:102CF000000E566F000E576F000E586F000E5A6F81
:102D0000BAEF16F05A51D8B488EF16F08AEF16F0E1
:102D1000A1EF16F0D8904E374F3750375137D89033
:102D2000423743374437453758AF99EF16F09BEF9A
:102D300016F09CEF16F04281D8905537563757372A
:102D4000583746514E5D47514F5948515059495196
:102D50005159D8A0AEEF16F0B0EF16F0B9EF16F05B
:102D6000588D46514E5F47514F5B4851505B49511A
:102D7000515B5A2B190E5A65C0EF16F0C2EF16F0D0
:102D800082EF16F04E514F1150115111D8B4CBEFC4
:102D900016F0CDEF16F0E5EF16F05581E5EF16F0E1
:102DA000D890423743374437453758AFDAEF16F0FB
:102DB000DCEF16F0DDEF16F04281D890553756372C
:102DC000573758375307D8A0540744AFEAEF16F0E7
:102DD000ECEF16F0D0EF16F0000E5A6F58AFF3EF8D
:102DE00016F0F5EF16F019EF17F0FF0E55154A6FB4
:102DF000FF0E56154B6FFF0E57154C6F7F0E581573
:102E00004D6F4A514B114C114D11D8B40AEF17F0C8
:102E10000CEF17F010EF17F0010E5A6F19EF17F0C3
:102E200042A115EF17F017EF17F019EF17F00CEF9D
:102E300017F05A51D8B41FEF17F021EF17F045EFF4
:102E400017F0010E4227000E43234423452345A1DA
:102E50002CEF17F02EEF17F045EF17F042C84AF8A5
:102E600043C84BF844C84CF845C84DF84D354D3370
:102E70004C334B334A334AC842F84BC843F84CC82A
:102E800044F84DC845F8534B542B54BF50EF17F03E
:102E9000545108E15329D8A050EF17F052EF17F022
:102EA0005DEF17F0000E546F5369000E426F000E75
:102EB000436F000E446F000E456F54BF6AEF17F06A
:102EC000545106E15305D8B068EF17F06AEF17F0D8
:102ED00078EF17F0000E546F000E536F000E426F24
:102EE000000E436F000E446F000E456F000E526FD0
:102EF00053C859F859A17FEF17F081EF17F084EF0D
:102F000017F0448F85EF17F0449FD8905931456FE3
:102F10003BEF16F0120005019351800BA06F935107
:102F20009325A76F92AF97EF17F099EF17F09AEFED
:102F300017F0A781A751D8B4A0EF17F0A2EF17F0B0
:102F4000B7EF17F0A729D8A4A8EF17F0AAEF17F04A
:102F5000B2EF17F0000E906F000E916F000E926F9F
:102F6000000E936F928F000E936FBFEF17F0000E5D
:102F7000906F000E916F000E926F000E936F97513D
:102F8000800BA01B97519725A86F96AFCAEF17F03B
:102F9000CCEF17F0CDEF17F0A881A851D8B4D3EF3C
:102FA00017F0D5EF17F0EAEF17F0A829D8A4DBEF58
:102FB00017F0DDEF17F0E5EF17F0000E946F000E3D
:102FC000956F000E966F000E976F968F000E976F9D
:102FD000F2EF17F0000E946F000E956F000E966FD3
:102FE000000E976F9451951196119711D8A4FBEF8D
:102FF00017F0FDEF17F015EF18F0000E906F000EB0
:10300000916F000E926F000E936F800E92137F0EE1
:103010009313A051931390C590F591C591F592C566
:1030200092F593C593F558EF19F0A751D8A41BEF6B
:1030300018F01DEF18F027EF18F0000E906F000E3B
:10304000916F000E926F000E936F58EF19F0A85118
:10305000A7C598F5996B985F000E995B7F0E982530
:10306000A16F000E9921A26F90C59CF591C59DF5A9
:1030700092C59EF593C59FF5000E906F000E916F5F
:10308000000E926F000E936F000EA36F000EA46FE0
:10309000000EA56F000EA66F000EA86F88EF18F047
:1030A000A851D8B456EF18F058EF18F06FEF18F099
:1030B000D8909C379D379E379F37D890903791375F
:1030C00092379337A6AF67EF18F069EF18F06AEF01
:1030D00018F09081D890A337A437A537A63794511C
:1030E0009C5D95519D5996519E5997519F59D8A0D5
:1030F0007CEF18F07EEF18F087EF18F0A68D945152
:103100009C5F95519D5B96519E5B97519F5BA82B51
:10311000190EA8658EEF18F090EF18F050EF18F028
:103120009C519D119E119F11D8B499EF18F09BEFFF
:1031300018F0B3EF18F0A381B3EF18F0D8909037E0
:10314000913792379337A6AFA8EF18F0AAEF18F08F
:10315000ABEF18F09081D890A337A437A537A637E6
:10316000A107D8A0A20792AFB8EF18F0BAEF18F0F5
:103170009EEF18F0000EA86FA6AFC1EF18F0C3EFD6
:1031800018F0E7EF18F0FF0EA315986FFF0EA415C7
:10319000996FFF0EA5159A6F7F0EA6159B6F98511C
:1031A00099119A119B11D8B4D8EF18F0DAEF18F0F2
:1031B000DEEF18F0010EA86FE7EF18F090A1E3EF33
:1031C00018F0E5EF18F0E7EF18F0DAEF18F0A85173
:1031D000D8B4EDEF18F0EFEF18F013EF19F0010E7F
:1031E0009027000E91239223932393A1FAEF18F0D6
:1031F000FCEF18F013EF19F090C598F591C599F50B
:1032000092C59AF593C59BF59B359B339A339933B9
:10321000983398C590F599C591F59AC592F59BC5D7
:1032200093F5A14BA22BA2BF1EEF19F0A25108E10A
:10323000A129D8A01EEF19F020EF19F02BEF19F0FB
:10324000000EA26FA169000E906F000E916F000E2C
:10325000926F000E936FA2BF38EF19F0A25106E1F2
:10326000A105D8B036EF19F038EF19F046EF19F094
:10327000000EA26F000EA16F000E906F000E916FF6
:10328000000E926F000E936F000EA06FA1C5A7F500
:10329000A7A14DEF19F04FEF19F052EF19F0928FEF
:1032A00053EF19F0929FD890A731936F09EF18F060
:1032B00012000501786F4DEF1AF01F0EF66E150E15
:1032C000F76EF86A0900F5C476F50900F5C477F5DC
:1032D00002D874EF19F00500FA6E7651FD6E775141
:1032E000FE6EFF6AFA5012000009D8A47AEF19F0B6
:1032F0007CEF19F06FEF1AF0010E156E6FEF1AF0F8
:103300001550D8B486EF19F088EF19F0A4EF19F032
:103310001B0EF66E150EF76EF86A0900F5C476F509
:103320000900F5C477F502D89FEF19F00500FA6E91
:103330007651FD6E7751FE6EFF6AFA501200166EDE
:10334000000E156E6FEF1AF01650D8B4AAEF19F0F0
:10335000ACEF19F0B4EF19F0090E1664B2EF19F0E2
:10336000B4EF19F0B6EF19F0000E166E000E162429
:10337000D96EDA6A070EDA221B0EF66E150EF76E9C
:10338000F86A0900F5C476F50900F5C477F502D8A6
:10339000D3EF19F00500FA6E7651FD6E7751FE6E8F
:1033A000FF6AFA501200DF6E162A090E1664DBEF70
:1033B00019F0DDEF19F06FEF1AF0010E166E6FEFD6
:1033C0001AF0190EF66E150EF76EF86A0900F5C4BC
:1033D00076F50900F5C477F502D8FFEF19F005007E
:1033E000FA6E7651FD6E7751FE6EFF6AFA50000E4E
:1033F0001624D96EDA6A070EDA22DF501200162A76
:10340000130E166406EF1AF008EF1AF06FEF1AF0B9
:10341000000E166E6FEF1AF0000E166E1D0EF66E91
:10342000150EF76EF86A0900F5C476F50900F5C4C3
:1034300077F502D825EF1AF00500FA6E7651FD6E89
:103440007751FE6EFF6AFA5012000501796F7951CB
:103450000701011305017905D8A431EF1AF033EF04
:103460001AF035EF1AF06FEF1AF0020E7919D8A49E
:103470003CEF1AF03EEF1AF040EF1AF06FEF1AF03F
:10348000030E7919D8A447EF1AF049EF1AF04BEF61
:103490001AF06FEF1AF06FEF1AF005017851766F9E
:1034A000776B7751000AD8B458EF1AF06FEF1AF023
:1034B0007651010AD8B45DEF19F0030AD8B480EF51
:1034C00019F0010AD8B4E1EF19F0070AD8B408EFEF
:1034D0001AF0010AD8B40CEF1AF06FEF1AF0010ECF
:1034E0001200C6EC32F034C882F835C883F836C80A
:1034F00084F837C885F838C886F839C887F83AC8D4
:1035000088F83BC889F8080189518811871186110C
:103510008511841109E1880E825D130E8359D8B09C
:1035200094EF1AF096EF1AF098EF1AF07CEF1BF078
:103530008CC692F8C6EC32F034C882F835C883F8ED
:1035400036C884F837C885F838C886F839C887F887
:103550003AC888F83BC889F821EE5FF2C40EDE2431
:1035600008018A6F090EDE208B6F000EDE208C6F43
:10357000000EDE208D6F000EDE208E6F000EDE202E
:103580008F6F000EDE20906F000EDE20916F825153
:103590008A5D83518B5984518C5985518D5986513F
:1035A0008E5987518F598851905989519159D8B066
:1035B000DCEF1AF0DEEF1AF0E5EF1AF007010A93DC
:1035C000000E06018C6FEAEF1AF007010A83010E64
:1035D00006018C6F9651D8B4F0EF1AF0F2EF1AF0A2
:1035E00023EF1BF08C51D8B4F8EF1AF0FAEF1AF071
:1035F0000AEF1BF0000E08013C6F640E3B6F6AEC93
:1036000032F0000E0801346F000E356FACEC34F070
:1036100023EF1BF0980E0801346F060E356FE3ECB4
:1036200033F0C6EC32F034C8ADF535C8AEF536C867
:10363000AFF537C8B0F538C8B1F539C8B2F53AC8F2
:10364000B3F53BC8B4F506019651D8A42AEF1BF098
:103650002CEF1BF076EF1BF08C51D8B432EF1BF03F
:1036600034EF1BF04CEF1BF008019251D8A43BEF54
:103670001BF03DEF1BF04CEF1BF0000E3C6F640E97
:103680003B6F6AEC32F0000E0801346F000E356FAC
:10369000ACEC34F076EF1BF006018C51D8A453EF5C
:1036A0001BF055EF1BF076EF1BF008019251D8B4D8
:1036B0005CEF1BF05EEF1BF076EF1BF0980E346FA3
:1036C000060E356FE3EC33F0C6EC32F034C8ADF5DE
:1036D00035C8AEF536C8AFF537C8B0F538C8B1F55E
:1036E00039C8B2F53AC8B3F53BC8B4F5000E0601C7
:1036F000966F080E14EC2AF012000801686F000E95
:1037000064EC2AF0000E0801746F000E736F000E57
:10371000726F000E716FC6EC32F034C869F835C8AC
:103720006AF836C86BF837C86CF838C86DF839C80D
:103730006EF83AC86FF83BC870F8000E06018D6F3E
:1037400068C836F80801376B50C838F851C839F8DE
:1037500052C83AF853C83BF854C83CF855C83DF82D
:1037600056C83EF857C83FF819EC2DF00009D8A408
:10377000BCEF1BF0BEEF1BF019EF1CF05DEC2FF05F
:1037800022EC30F00A0E0801346F000E356F000E87
:10379000366F000E376F63EC27F0FF0E0801746F71
:1037A000FE0E736F45EF1CF0C6EC32F034C858F8CB
:1037B00035C859F836C85AF837C85BF838C85CF8C5
:1037C00039C85DF83AC85EF83BC85FF8080169512E
:1037D000585D606F6A515959616F6B515A59626FE8
:1037E0006C515B59636F6D515C59646F6E515D59DB
:1037F000656F6F515E59666F70515F59676F6751A2
:1038000066116511641163116211611109E1650EA0
:10381000605DD8A00EEF1CF010EF1CF019EF1CF04B
:103820005DEC2FF022EC30F008017369746922EF2F
:103830001CF006018D51D8B420EF1CF022EF1CF0D3
:10384000D4EF1BF006018D05D8A429EF1CF02BEF57
:103850001CF034EF1CF05DEC2FF022EC30F0FF0E8A
:103860000801746FFD0E736F020E06018D19D8A446
:103870003CEF1CF03EEF1CF045EF1CF0000E080181
:10388000746F000E736F53EF1CF00801714B722BB5
:10389000725109E1030E715DD8A051EF1CF053EF96
:1038A0001CF08BEF1BF0010E64EC2AF073C850F88B
:1038B00074C851F8120008013C6F08013C51D8B49B
:1038C00064EF1CF066EF1CF088EF1CF037BF6DEF63
:1038D0001CF06BEF1CF088EF1CF034C838F835C8CA
:1038E00039F836C83AF837C83BF8381F391F3A1F3D
:1038F0003B1F382B000E39233A233B2338C83EF8B0
:1039000039C83FF83AC840F83BC841F890EF1CF07E
:1039100034C83EF835C83FF836C840F837C841F8D3
:103920003451351136113711D8A499EF1CF09BEFA3
:103930001CF0A5EF1CF0000E346F000E356F000E6A
:10394000366F000E376F36EF1DF0960E3D6FAFEFFE
:103950001CF03D2BD890413340333F333E33000EB3
:103960003E15386F000E3F15396F000E40153A6F47
:10397000FE0E41153B6F385139113A113B11D8A455
:10398000C4EF1CF0C6EF1CF0A9EF1CF0D4EF1CF044
:103990003D2B010E3E27000E3F2340234123D890AC
:1039A000413340333F333E33000E3E15386F000E37
:1039B0003F15396F000E40153A6FFF0E41153B6FF2
:1039C000385139113A113B11D8A4E9EF1CF0EBEF53
:1039D0001CF0C8EF1CF0F3EF1CF03D07D8903E3709
:1039E0003F374037413740BFF8EF1CF0FAEF1CF08B
:1039F00002EF1DF0020E3D6100EF1DF002EF1DF021
:103A0000EDEF1CF03DB107EF1DF009EF1DF00AEFDF
:103A10001DF0409FD8903D333DC838F8396B3A6B64
:103A20003B6B38C83BF83A6B396B386B38513E13F7
:103A300039513F133A5140133B5141133C51D8B4D3
:103A400024EF1DF026EF1DF02EEF1DF037BF2DEFF8
:103A50001DF02BEF1DF02EEF1DF0418F3EC834F806
:103A60003FC835F840C836F841C837F8120005019C
:103A70008A6F05018A51D8B440EF1DF042EF1DF066
:103A800064EF1DF085BF49EF1DF047EF1DF064EFB7
:103A90001DF082C586F583C587F584C588F585C583
:103AA00089F5861F871F881F891F862B000E872395
:103AB0008823892386C58CF587C58DF588C58EF545
:103AC00089C58FF56CEF1DF082C58CF583C58DF52A
:103AD00084C58EF585C58FF58251831184118511BA
:103AE000D8A475EF1DF077EF1DF081EF1DF0000EEB
:103AF000826F000E836F000E846F000E856F12EFD1
:103B00001EF0960E8B6F8BEF1DF08B2BD8908F33A2
:103B10008E338D338C33000E8C15866F000E8D1511
:103B2000876F000E8E15886FFE0E8F15896F865178
:103B3000871188118911D8A4A0EF1DF0A2EF1DF004
:103B400085EF1DF0B0EF1DF08B2B010E8C27000EC2
:103B50008D238E238F23D8908F338E338D338C33E8
:103B6000000E8C15866F000E8D15876F000E8E155A
:103B7000886FFF0E8F15896F865187118811891103
:103B8000D8A4C5EF1DF0C7EF1DF0A4EF1DF0CFEFD7
:103B90001DF08B07D8908C378D378E378F378EBFBF
:103BA000D4EF1DF0D6EF1DF0DEEF1DF0020E8B619D
:103BB000DCEF1DF0DEEF1DF0C9EF1DF08BB1E3EF80
:103BC0001DF0E5EF1DF0E6EF1DF08E9FD8908B33D2
:103BD0008BC586F5876B886B896B86C589F5886B85
:103BE000876B866B86518C1387518D1388518E138A
:103BF00089518F138A51D8B400EF1EF002EF1EF0E6
:103C00000AEF1EF085BF09EF1EF007EF1EF00AEF66
:103C10001EF08F8F8CC582F58DC583F58EC584F51A
:103C20008FC585F512000801646F000E64EC2AF060
:103C3000000E0801706F000E6F6F000E6E6F000EA9
:103C40006D6FC6EC32F034C865F835C866F836C812
:103C500067F837C868F838C869F839C86AF83AC8E0
:103C60006BF83BC86CF8000E06018D6F64C836F81F
:103C70000801376B50C838F851C839F852C83AF8BB
:103C800053C83BF849EC2DF00009D8A44AEF1EF0C8
:103C90004CEF1EF0A7EF1EF05DEC2FF022EC30F0A1
:103CA0000A0E0801346F000E356F000E366F000EDD
:103CB000376F63EC27F0FF0E0801706FFE0E6F6F19
:103CC000D3EF1EF0C6EC32F034C854F835C855F8BE
:103CD00036C856F837C857F838C858F839C859F8A8
:103CE0003AC85AF83BC85BF808016551545D5C6FEF
:103CF000665155595D6F675156595E6F68515759F6
:103D00005F6F69515859606F6A515959616F6B51B2
:103D10005A59626F6C515B59636F63516211611143
:103D200060115F115E115D1109E1650E5C5DD8A047
:103D30009CEF1EF09EEF1EF0A7EF1EF05DEC2FF043
:103D400022EC30F008016F697069B0EF1EF00601D7
:103D50008D51D8B4AEEF1EF0B0EF1EF062EF1EF042
:103D600006018D05D8A4B7EF1EF0B9EF1EF0C2EF23
:103D70001EF05DEC2FF022EC30F0FF0E0801706FAA
:103D8000FD0E6F6F020E06018D19D8A4CAEF1EF04A
:103D9000CCEF1EF0D3EF1EF0000E0801706F000E86
:103DA0006F6FE1EF1EF008016D4B6E2B6E5109E154
:103DB000030E6D5DD8A0DFEF1EF0E1EF1EF021EFE6
:103DC0001EF0010E64EC2AF06FC850F870C851F86C
:103DD00012000101EAA5EFEF1EF0F1EF1EF005EF72
:103DE0001FF0000EEA6FE585ED69EE6902D803EF7A
:103DF0001FF00500FA6E0D50FD6E0E50FE6EFF6A4C
:103E0000FA50040E1200A8EF1FF0EAA70AEF1FF005
:103E10000CEF1FF058EF1FF0EA9713EC34F075C564
:103E20000FF576C510F5000E136E02D822EF1FF0C5
:103E30000500FA6E0D50FD6E0E50FE6EFF6AFA50D0
:103E4000010E1200E806D8A428EF1FF02AEF1FF099
:103E500054EF1FF00101E4A930EF1FF032EF1FF023
:103E600050EF1FF0E5AB37EF1FF039EF1FF050EFC9
:103E70001FF002D846EF1FF00500FA6E0D50FD6EE0
:103E80000E50FE6EFF6AFA50030E12000009D8A40D
:103E90004CEF1FF04EEF1FF050EF1FF00101E78DC8
:103EA0000101E79DA8EF1FF00101E78DA8EF1FF0CA
:103EB000E4A95DEF1FF05FEF1FF086EF1FF0E5ABA9
:103EC00064EF1FF066EF1FF0A8EF1FF0E7BB6BEF8A
:103ED0001FF06DEF1FF0A8EF1FF002D87AEF1FF070
:103EE0000500FA6E0D50FD6E0E50FE6EFF6AFA5020
:103EF000030E12000009D8A480EF1FF082EF1FF01C
:103F0000A8EF1FF00101E78DA8EF1FF0E5A18BEFEF
:103F10001FF08DEF1FF0A8EF1FF002D89AEF1FF0EF
:103F20000500FA6E0D50FD6E0E50FE6EFF6AFA50DF
:103F3000020E1200E806D8A4A0EF1FF0A2EF1FF0B7
:103F4000A6EF1FF00101E79DA8EF1FF00101E78D2B
:103F50000101E69912000501C14BC22BC25107E1D4
:103F6000630EC15DD8B0B7EF1FF0B9EF1FF0BBEF24
:103F70001FF06CEF20F0000EC26F000EC16F030E39
:103F8000C919D8A4C6EF1FF0C8EF1FF0CAEF1FF081
:103F90006CEF20F0C905D8A4D0EF1FF0D2EF1FF0CE
:103FA00010EF20F0C551C35DC651C459D8A0DBEF56
:103FB0001FF0DDEF1FF00BEF20F0000EC46F000EBE
:103FC000C36FC851D8B4E7EF1FF0E9EF1FF0FBEF64
:103FD0001FF0000EC86F000E0601286F000E276F3D
:103FE000000E2A6F640E296FF90E2C6F2B692DECD1
:103FF00026F00BEF20F0010EC86F000E0601286FAF
:10400000640E276F000E2A6F640E296FF90E2C6F55
:104010002B692DEC26F00501C34BC42B6CEF20F06F
:10402000020EC919D8A417EF20F019EF20F06CEF99
:1040300020F0BF51C011D8A420EF20F022EF20F0D3
:1040400024EF20F06CEF20F0C75106012F6F306B8A
:10405000050120EE02F0BF51D926C051DA22DF500F
:104060000601316FFF0E3125326F336BFF0E3323A4
:104070002F51325D3351800A346F3051800A3459E8
:10408000D8B045EF20F047EF20F04AEF20F0000EC7
:104090000501C76FBFC5D9F4C0C5DAF4DEC42FF679
:1040A000DDC430F60501C75106012F25D96E050183
:1040B000000E06013021DA6EDF50316F3151276F6B
:1040C000286B000E2A6F640E296FF90E2C6F2B6976
:0A40D0002DEC26F00501C72B1200AD
:1040DC00FAC42BF5FBC42CF5F6C42DF5F7C42EF55C
:1040EC00F8C42FF5F5C430F520EC35F0E806D8A46B
:1040FC0082EF20F084EF20F088EF20F05EEC24F0CB
:10410C0018EF21F006014A51D8B48FEF20F091EF4F
:10411C0020F014EF21F0B8EC33F00009D8B499EF8B
:10412C0020F09BEF20F0A4EF20F0030E0601566F59
:10413C000101EC9B41EC30F0FBEF20F0C3EC33F0D1
:10414C000009D8B4ACEF20F0AEEF20F0C9EF20F0AE
:10415C0097EC33F00009D8A4B6EF20F0B8EF20F0BC
:10416C00C0EF20F00101ECA9BEEF20F0C0EF20F071
:10417C00C9EF20F0010E0601566F0101EC99DEEC3F
:10418C0034F0FBEF20F0A2EC33F00009D8B4D1EFFF
:10419C0020F0D3EF20F0ECEF20F097EC33F0000997
:1041AC00D8A4DBEF20F0DDEF20F0E5EF20F00101EB
:1041BC00ECA9E3EF20F0E5EF20F0ECEF20F0020E9D
:1041CC000601566F0101EC99C5EF20F0ADEC33F010
:1041DC000009D8B4F4EF20F0F6EF20F0FBEF20F05C
:1041EC00040E0601566F0101EC9D06015651D8B420
:1041FC0002EF21F004EF21F018EF21F0000E4A6FCE
:10420C0002D812EF21F00500FA6E8851FD6E89512B
:10421C00FE6EFF6AFA50120018EF21F00101EC99C2
:10422C00EC9DEC9B30C5F5F42FC5F8F42EC5F7F4D6
:10423C002DC5F6F42CC5FBF42BC5FAF41100010EB8
:10424C0006015727000E582359235A235B235C235E
:10425C005D235E236751681169116A116B116C1132
:10426C006D116E11D8B43DEF21F03FEF21F061EFED
:10427C0021F057C618F858C619F859C61AF85AC674
:10428C001BF85BC61CF85CC61DF85DC61EF85EC646
:10429C001FF867C620F868C621F869C622F86AC6F6
:1042AC0023F86BC624F86CC625F86DC626F86EC6C6
:1042BC0027F853EC25F006015E515D115C115B1182
:1042CC005A1159110BE1E90E575D030E5859D8A03C
:1042DC0072EF21F074EF21F0B6EF21F057C618F809
:1042EC0058C619F859C61AF85AC61BF85BC61CF8FA
:1042FC005CC61DF85DC61EF85EC61FF88EC620F89B
:10430C008FC621F890C622F891C623F892C624F8DD
:10431C0093C625F894C626F895C627F853EC25F0D5
:10432C0018C828F819C829F81AC82AF81BC82BF875
:10433C001CC82CF81DC82DF81EC82EF81FC82FF845
:10434C000801285129112A112B112C112D112E1174
:10435C002F11D8A4B4EF21F0B6EF21F0C2EF21F069
:10436C00E20E0701B86F340EB96F000EBA6F000E73
:10437C00BB6F080EC3EC29F01200070151BFCFEF41
:10438C0021F0515108E15005D8A0CFEF21F0D1EF29
:10439C0021F04EEF22F0000E0801976F000E966F81
:1043AC0096C834F897C835F8000E376F050E366F7F
:1043BC0042EC32F0520E08013425D96E070E35212D
:1043CC00DA6EDE50DE10D8B4EEEF21F0F0EF21F013
:1043DC003BEF22F096C834F897C835F8000E376FCB
:1043EC00050E366F42EC32F0560E08013425D96EAC
:1043FC00070E3521DA6EDF50D8A407EF22F009EF53
:10440C0022F03BEF22F096C834F897C835F8000E2E
:10441C00376F050E366F42EC32F0520E0801342520
:10442C00806F070E3521816F96C834F897C835F820
:10443C00000E376F050E366F42EC32F0520E08014B
:10444C003425D96E070E3521DA6EDEC494F8DDC43E
:10445C0095F802D83BEF22F00500FA6E9451FD6EF0
:10446C009551FE6EFF6AFA5012000801964B972B7D
:10447C0097BF4AEF22F0975109E10D0E965DD8A037
:10448C004AEF22F04CEF22F0D6EF21F0C3EF21F0EF
:10449C0001EC34F0C3EF21F0120008017E357F35BA
:1044AC00856F8551D8A45DEF22F05FEF22F069EFA4
:1044BC0022F0000E7C6F000E7D6F000E7E6F000EE2
:1044CC007F6FD6EF22F07CC880F87DC881F87EC85B
:1044DC0082F87FC883F8200E79EF22F0D8908333CE
:1044EC00823381338033E82E74EF22F08051846F55
:1044FC007E8FFF0E7C17FF0E7D17FF0E7E17000EB2
:10450C007F17960E855F85BF90EF22F08EEF22F01D
:10451C00A6EF22F08551800A970FD8B098EF22F0C1
:10452C009AEF22F09CEF22F05FEF22F0D8907F33CD
:10453C007E337D337C33853F9CEF22F0BEEF22F03F
:10454C001F0E8565ACEF22F0AEEF22F0B6EF22F035
:10455C005FEF22F0D8907C377D377E377F37850729
:10456C008551D8A4BCEF22F0BEEF22F0B0EF22F0C0
:10457C008451D8B4C4EF22F0C6EF22F0CEEF22F073
:10458C007F1F7E1F7D1F7C6D000E7D237E237F236E
:10459C007CC87CF87DC87DF87EC87EF87FC87FF823
:1045AC00120006011F352035266F2651D8A4E1EFE5
:1045BC0022F0E3EF22F0EDEF22F0000E1D6F000E63
:1045CC001E6F000E1F6F000E206F5AEF23F01DC6DA
:1045DC0021F61EC622F61FC623F620C624F6200E90
:1045EC00FDEF22F0D8902433233322332133E82EED
:1045FC00F8EF22F02151256F1F8FFF0E1D17FF0EB4
:10460C001E17FF0E1F17000E2017960E265F26BFD3
:10461C0014EF23F012EF23F02AEF23F02651800A37
:10462C00970FD8B01CEF23F01EEF23F020EF23F0F0
:10463C00E3EF22F0D89020331F331E331D33263F77
:10464C0020EF23F042EF23F01F0E266530EF23F00E
:10465C0032EF23F03AEF23F0E3EF22F0D8901D373E
:10466C001E371F37203726072651D8A440EF23F0DA
:10467C0042EF23F034EF23F02551D8B448EF23F068
:10468C004AEF23F052EF23F0201F1F1F1E1F1D6D3A
:10469C00000E1E231F2320231DC61DF61EC61EF64C
:1046AC001FC61FF620C620F61200000E0801341596
:1046BC003C6F000E35153D6F800E36153E6F7F0E2C
:1046CC0037153F6F3C513D113E113F11D8A471EF8E
:1046DC0023F073EF23F07BEF23F0000E346F000E0A
:1046EC00356F000E366F000E376F000E38153C6FAD
:1046FC00000E39153D6F800E3A153E6F7F0E3B153F
:10470C003F6F3C513D113E113F11D8A490EF23F067
:10471C0092EF23F09AEF23F0000E386F000E396FF2
:10472C00000E3A6F000E3B6F37AF9FEF23F0A1EFF7
:10473C0023F0AAEF23F0346D351FD8B0352B361F7C
:10474C00D8B0362B800E37573BAFAFEF23F0B1EF1D
:10475C0023F0BAEF23F0386D391FD8B0392B3A1F3C
:10476C00D8B03A2B800E3B57000E341B000E351B75
:10477C00000E361B800E371B000E381B000E391B2B
:10478C00000E3A1B800E3B1B3851345D39513559A4
:10479C003A5136593B513759D8B0D7EF23F0D9EFAE
:1047AC0023F0DCEF23F0D890DDEF23F0D88012005B
:1047BC00FAC424F5FBC425F5F6C426F5F7C427F591
:1047CC00F8C428F5F5C429F520EC35F0E806D8A492
:1047DC00F2EF23F0F4EF23F0F8EF23F0E9EC1EF006
:1047EC0051EF24F006014A51D8B4FFEF23F001EF4A
:1047FC0024F04CEF24F00101EBA507EF24F009EFB6
:10480C0024F014EF24F0EAA50EEF24F010EF24F0BE
:10481C0014EF24F07FEC2FF051EF24F0EBAF19EFF5
:10482C0024F01BEF24F038EF24F0EAAF20EF24F053
:10483C0022EF24F038EF24F006015551D8B429EFBB
:10484C0024F02BEF24F034EF24F0000E556F01010F
:10485C00EA91EA9FA0EC31F051EF24F0DEEC34F059
:10486C0010EF24F0EBA33DEF24F03FEF24F051EFD9
:10487C0024F0EAA344EF24F046EF24F051EF24F0A7
:10488C0023EC35F00101EA9351EF24F0000E010105
:10489C00EA6F51EF24F029C5F5F428C5F8F427C5C3
:1048AC00F7F426C5F6F425C5FBF424C5FAF411007B
:1048BC000101ECAB64EF24F066EF24F079EF24F007
:1048CC00010E136E02D875EF24F00500FA6E0D5030
:1048DC00FD6E0E50FE6EFF6AFA50050E12000101BD
:1048EC00EC9BD8EF24F0E5AF7EEF24F080EF24F0C2
:1048FC0093EF24F0020E136E02D88FEF24F0050014
:10490C00FA6E0D50FD6E0E50FE6EFF6AFA50050EDB
:10491C0012000101E59FD8EF24F0E7A598EF24F0F1
:10492C009AEF24F0ADEF24F0030E136E02D8A9EF2A
:10493C0024F00500FA6E0D50FD6E0E50FE6EFF6AEF
:10494C00FA50050E12000101E795D8EF24F0E7A309
:10495C00B2EF24F0B4EF24F0C7EF24F0040E136E82
:10496C0002D8C3EF24F00500FA6E0D50FD6E0E5008
:10497C00FE6EFF6AFA50050E12000101E793D8EFA4
:10498C0024F0050E136E02D8D6EF24F00500FA6E53
:10499C000D50FD6E0E50FE6EFF6AFA50050E1200A1
:1049AC000101E597EC99E6991200100E936E800EBA
:1049BC00946E210E956E070E8D6E000E8E6EC20ECD
:1049CC008F6E030E0401166F000E206F000E2A6FFF
:1049DC00100E176F000E216F000E2B6F100E186F3C
:1049EC00E00E226FB90E2C6F370E196FE00E236F8D
:1049FC00FB0E2D6F3F0E1A6FE00E246FFB0E2E6F09
:104A0C00200E0301126F200E136F000E156F000E97
:104A1C00166F210E0F6F210E106F110E526F020EBA
:104A2C00536F170E546F070E296F0E0EAD6F1C0EC1
:104A3C00276F0D0EAE6F1D0E266F000E04011B6F3F
:104A4C00040E1C6F000E1D6F000E576F000E586F7A
:104A5C00000E596F000E256F000E266F000E276F8B
:104A6C00000E2F6FC00E306F000E316F820E0801DA
:104A7C00346F6A0E356FA2EC34F0840E0801346F7B
:104A8C006A0E356FA7EC34F0860E0801346F6A0E8F
:104A9C00356FACEC34F076881200080120512111EE
:104AAC00221123112411251126112711D8B461EFDD
:104ABC0025F063EF25F0B0EF25F0010E0701B86F7C
:104ACC0073EF25F0D890203721372237233724373E
:104ADC002537263727370701B82B080127AF79EF81
:104AEC0025F07BEF25F068EF25F008012051185DCB
:104AFC002151195922511A5923511B5924511C590E
:104B0C0025511D5926511E5927511F59D8A091EFD7
:104B1C0025F093EF25F0A3EF25F02051185F2151DC
:104B2C00195B22511A5B23511B5B24511C5B2551D1
:104B3C001D5B26511E5B27511F5BD89027332633F4
:104B4C002533243323332233213320330701B82F69
:104B5C007BEF25F018C818F819C819F81AC81AF8F4
:104B6C001BC81BF81CC81CF81DC81DF81EC81EF855
:104B7C001FC81FF812008AC834F88BC835F8080112
:104B8C00366B376B000E5BEC1CF034C867F835C81D
:104B9C0068F836C869F837C86AF888C834F889C81C
:104BAC0035F80801366B376B000E5BEC1CF034C823
:104BBC0046F835C847F836C848F837C849F886C8A3
:104BCC0034F887C835F80801366B376B000E5BEC90
:104BDC001CF034C842F835C843F836C844F837C816
:104BEC0045F8BDEC15F042C85FF843C860F844C8FE
:104BFC0061F845C862F8000E08015B6F000E5C6F2F
:104C0C00800E5D6F3F0E5E6FF2EC2EF05BC863F8AA
:104C1C005CC864F85DC865F85EC866F899EC11F07C
:104C2C0063C87CF864C87DF865C87EF866C87FF8F0
:104C3C0053EC22F07CC88CF87DC88DF88CC834F805
:104C4C008DC835F84EEC34F01DEC35F012002BC647
:104C5C0082F52CC683F50501846B856B000E37EC51
:104C6C001DF082C50CF683C50DF684C50EF685C500
:104C7C000FF629C682F52AC683F50501846B856B70
:104C8C00000E37EC1DF082C594F583C595F584C5EF
:104C9C0096F585C597F527C682F528C683F50501D7
:104CAC00846B856B000E37EC1DF082C590F583C5C7
:104CBC0091F584C592F585C593F58BEC17F090C5ED
:104CCC0004F691C505F692C506F693C507F6000ED7
:104CDC000601006F000E016F800E026F3F0E036F16
:104CEC0016EC2FF000C608F601C609F602C60AF645
:104CFC0003C60BF662EC0FF008C61DF609C61EF6CD
:104D0C000AC61FF60BC620F6D7EC22F01DC62DF6F0
:104D1C001EC62EF62DC682F52EC683F563EC34F036
:104D2C002FEC35F01200080120EE02F08051D9264C
:104D3C008151DA22DEC492F8DDC493F820EE09F03A
:104D4C009251D9269351DA22DF50D8A4B0EF26F035
:104D5C00B2EF26F0B7EF26F0090E14EC2AF001EFB3
:104D6C0027F0C6EC32F034C882F835C883F836C860
:104D7C0084F837C885F838C886F839C887F83AC82F
:104D8C0088F83BC889F8080120EE01F09251D92629
:104D9C009351DA228251DE5C8351DE588451DE5805
:104DAC008551DE588651DE588751DE588851DE58C1
:104DBC008951DE58D8B0E5EF26F0E7EF26F001EF89
:104DCC0027F092C8D9F493C8DAF4DF50D8B4F1EFD5
:104DDC0026F0F3EF26F0F6EF26F0948EF7EF26F0A0
:104DEC00949E20EE09F09251D9269351DA22DF6A73
:104DFC00090E14EC2AF01200F60EF66E5C0EF76E2D
:104E0C00000EF86E01EE00F310EE50F00900F5C440
:104E1C00EEF4E550E150FAE1D40EF66E680EF76E42
:104E2C00000EF86E01EE8EF210EE0DF00900F5C4D6
:104E3C00EEF4E550E150FAE1B20EF66E670EF76E45
:104E4C00000EF86E01EECAF110EE14F00900F5C474
:104E5C00EEF4E550E150FAE1220EF66E6A0EF76EB2
:104E6C00000EF86E01EE31F110EE06F00900F5C4FB
:104E7C00EEF4E550E150FAE101EE50F3430EEE6A28
:104E8C00E806FDE101EE4AF2440EEE6AE806FDE1A9
:104E9C0001EEADF11D0EEE6AE806FDE101EE01F149
:104EAC00210EEE6AE806FDE1080E666E000E676ED6
:104EBC00000E686E00016EEF2CF057C648F858C60D
:104ECC0049F859C64AF85AC64BF85BC64CF85CC64A
:104EDC004DF85DC64EF85EC64FF808013451386F78
:104EEC003551396F36513A6F37513B6F3C6B3D6BD7
:104EFC003E6B3F6B48513825406F49513921416F0A
:104F0C004A513A21426F4B513B21436F4C513C214A
:104F1C00446F4D513D21456F4E513E21466F4F51CF
:104F2C003F21476F40510601575D08014151060171
:104F3C0058590801425106015959080143510601BB
:104F4C005A590801445106015B59080145510601A3
:104F5C005C590801465106015D590801475106018B
:104F6C005E59D8A0BCEF27F0BEEF27F073EF27F007
:104F7C001200000E0801876F000E866F1D0E826FE7
:104F8C00820E756F080E766F000E786F010E776FBC
:104F9C00880E796F080E7A6F000E7C6F010E7B6F96
:104FAC00320EA1EC2FF0080175518627765187231C
:104FBC0086518711D8A4E5EF27F0E7EF27F016EF1D
:104FCC0028F088B7ECEF27F0EFEF27F0010EF0EFA9
:104FDC0027F0000E846F88B9F6EF27F0F9EF27F071
:104FEC00010EFAEF27F0000E856F8451D8A401EF63
:104FFC0028F003EF28F00BEF28F08551D8B409EF17
:10500C0028F00BEF28F016EF28F08E0E346F510EAF
:10501C00356F000E366F000E376F0A0E1CEC29F040
:10502C000B0E14EC2AF01200FAC480F5FBC481F5C7
:10503C006D9E01015BA125EF28F027EF28F047EFCB
:10504C0028F05AA12CEF28F02EEF28F047EF28F08B
:10505C005A91060186518711D8B437EF28F039EFF1
:10506C0028F06CEF28F002D845EF28F00500FA6E16
:10507C008651FD6E8751FE6EFF6AFA5012006CEF7E
:10508C0028F05BA34CEF28F04EEF28F06CEF28F0E3
:10509C005AA353EF28F055EF28F06CEF28F05A93F1
:1050AC00060184518511D8B45EEF28F060EF28F02A
:1050BC006CEF28F002D86CEF28F00500FA6E8451E2
:1050CC00FD6E8551FE6EFF6AFA50120081C5FBF42D
:1050DC0080C5FAF4110007010AA377EF28F079EFE5
:1050EC0028F0B7EF28F00A81949E010E206E010E75
:1050FC00176E640EC6EC32F034C882F835C883F8EB
:10510C0036C884F837C885F838C886F839C887F89F
:10511C003AC888F83BC889F808018225186E000E39
:10512C008321196E000E84211A6E000E85211B6ED0
:10513C00000E86211C6E000E87211D6E000E88212C
:10514C001E6E000E89211F6E320E346F4D0E356FA0
:10515C00170E366F050E376F090E1CEC29F0C3EFD6
:10516C0028F08E0E0801346F510E356F000E366F1D
:10517C00000E376F0A0E1CEC29F0070E14EC2AF007
:10518C001200000E0801836F000E826F000E896FF3
:10519C00000E886F380E846F840E756F080E766F54
:1051AC00000E786F010E776F860E796F080E7A6F8E
:1051BC00000E7C6F010E7B6F6B0EC2EC2FF00801A2
:1051CC00755182277651832386A7EFEF28F0F1EFF4
:1051DC0028F0F3EF28F00EEF29F00A0E346F000ED2
:1051EC00356F000E366F000E376F63EC27F0080139
:1051FC00884B892B89BF0CEF29F0895109E10A0EE4
:10520C00885DD8A00CEF29F00EEF29F0D0EF28F034
:10521C00640E346F000E356F000E366F000E376F54
:10522C0063EC27F00A0E14EC2AF0120008013D6F13
:10523C00010E08013C6F3D51050D520EF324D96E41
:10524C00070EF420DA6EDE50DE10D8B430EF29F001
:10525C0032EF29F044EF29F03D51050D560EF324A1
:10526C00D96E070EF420DA6EDF50D8A440EF29F087
:10527C0042EF29F044EF29F0000E3C6F3CC83AF89D
:10528C003B6B3D51050D520EF324D96E070EF420E5
:10529C00DA6E34C8DEF435C8DDF43D51050D540E1C
:1052AC00F324D96E070EF420DA6E36C8DEF437C854
:1052BC00DDF43D51050D560EF324D96E070EF42086
:1052CC00DA6EDF6A3A510701502708013B5107019A
:1052DC0051231200000E08013B6F000E3A6F3AC8C2
:1052EC0034F83BC835F8000E376F050E366F42ECBC
:1052FC0032F0520E08013425D96E070E3521DA6EC4
:10530C00DE6ADD6A3AC834F83BC835F8000E376FF0
:10531C00050E366F42EC32F0540E08013425D96E6E
:10532C00070E3521DA6EDE6ADD6A3AC834F83BC8FE
:10533C0035F8000E376F050E366F42EC32F0560E14
:10534C0008013425D96E070E3521DA6EDF6A3A4B27
:10535C003B2B3BBFBBEF29F03B5109E10D0E3A5DF6
:10536C00D8A0BBEF29F0BDEF29F075EF29F0000EA6
:10537C000701516F000E506F12000701C16F010E33
:10538C000701C06FC151050D520EF324D96E070EE3
:10539C00F420DA6EDE50DE10D8B4D7EF29F0D9EF56
:1053AC0029F0EBEF29F0C151050D560EF324D96EFF
:1053BC00070EF420DA6EDF50D8A4E7EF29F0E9EFFE
:1053CC0029F0EBEF29F0000EC06FC0C7BEF7BF6B22
:1053DC00C151050D520EF324D96E070EF420DA6E6E
:1053EC00B8C7DEF4B9C7DDF4C151050D540EF32472
:1053FC00D96E070EF420DA6EBAC7DEF4BBC7DDF443
:10540C00C151050D560EF324D96E070EF420DA6E39
:10541C00DF6ABE515027BF51512312000801396F6A
:10542C00000E0801386F3951050D520EF324D96E58
:10543C00070EF420DA6EDE50DE10D8B428EF2AF016
:10544C002AEF2AF03CEF2AF03951050D560EF324C1
:10545C00D96E070EF420DA6EDF50D8A438EF2AF09C
:10546C003AEF2AF03CEF2AF0010E386F38C836F8C4
:10547C00376B3951050D520EF324D96E070EF420FB
:10548C00DA6EDE6ADD6A3951050D540EF324D96EDD
:10549C00070EF420DA6EDE6ADD6A3951050D560E00
:1054AC00F324D96E070EF420DA6EDF6A3651070149
:1054BC00505F080137510701515B12000801396F29
:1054CC0014EC35F008013919D8A46FEF2AF071EFFC
:1054DC002AF073EF2AF0B2EF2AF03951A6EC2DF036
:1054EC0008013951D8A47DEF2AF07FEF2AF08EEF16
:1054FC002AF0140E346F680E356FF8EC32F0FA0E99
:10550C000801346F690E356F07EC33F0B2EF2AF0F7
:10551C003905D8A494EF2AF096EF2AF0B2EF2AF0CE
:10552C00B20E346F320E356F230EF66E150EF76E0B
:10553C00F86A0900F5C437F80900F5C438F802D840
:10554C00B1EF2AF00500FA6E3751FD6E3851FE6E40
:10555C00FF6AFA501200958812000801186F89A290
:10556C00BAEF2AF0BCEF2AF0DBEF2AF006017251F9
:10557C00705D73517159D8A0C6EF2AF0C8EF2AF0AC
:10558C00D7EF2AF002D8D5EF2AF00500FA6E070102
:10559C00C551FD6EC651FE6EFF6AFA501200FAEF4D
:1055AC002AF0A2EC32F0FAEF2AF00601704B712BC4
:1055BC007451705D75517159D8A0E7EF2AF0E9EF7D
:1055CC002AF0FAEF2AF0A2EC32F002D8FAEF2AF025
:1055DC000500FA6E06017651FD6E7751FE6EFF6A7C
:1055EC00FA500801185112001200618A000E61BEB7
:1055FC00010E0801366F619E550E606EAA0E606E2C
:10560C006090000E686E000E676E080E666E550E8A
:10561C00606EAA0E606E608036B102D0619E01D0C1
:10562C00618E7D827D847D868088808A808C818C51
:10563C0084868488848A848C69926190880E08019F
:10564C00346F6A0E356FCFEC34F0738269946192CB
:10565C008A0E0801346F6A0E356FB6EC34F0738421
:10566C00699661948C0E0801346F6A0E356FB1EC3B
:10567C0034F073861200040E0101E66F800EE76FA2
:10568C00080EE86F040EE96F020EF96F000EEA6F58
:10569C00000EEB6F000EEC6FEC83EC81000EED6FE7
:1056AC00000EEE6F270EF86F000EFA6F76EC33F0EB
:1056BC000101EB91EB95E68F050EE82EFED700006D
:1056CC000000000000000000000000000101EA9151
:1056DC00EA95EB85780E0801346F6A0E356F07EC8E
:1056EC0033F0E20E0801346F680E356FF8EC32F0CF
:0256FC0012009A
:10570000FAC46FF5FBC470F5F6C471F5F7C472F511
:10571000F8C473F5F5C474F520EC35F0E806D8A4A8
:1057200094EF2BF096EF2BF09AEF2BF0E9EC1EF0B4
:10573000B1EF2BF006014A51D8B4A1EF2BF0A3EF43
:105740002BF0AFEF2BF02CEC35F051C6D9F452C64C
:10575000DAF4DF6E0601514B522BB1EF2BF02CEC3B
:1057600035F074C5F5F473C5F8F472C5F7F471C576
:10577000F6F470C5FBF46FC5FAF41100000E0801D1
:105780003A6F000E396F36513711D8B4CAEF2BF08B
:10579000CCEF2BF0F4EF2BF0010E386FD4EF2BF0A1
:1057A000D89036373737382B37AFD9EF2BF0DBEFC0
:1057B0002BF0D0EF2BF0D89039373A373651345D93
:1057C00037513559D8A0E7EF2BF0E9EF2BF0EEEF8A
:1057D0002BF03651345F3751355B3981D8903733F0
:1057E0003633382FDBEF2BF039C834F83AC835F8A8
:1057F0001200000E0101536F020E546F000E556F20
:105800005669F90E576F000E586F000E596F000E53
:105810005A6F000E5B6F000E5D6F000E5E6FFA0E2A
:105820005F6F800E606F020E616F6D9C6D9E5A916E
:105830005A93779E778C7C0E0801346F6A0E356F11
:1058400098EC34F07A0E0801346F6A0E356F93ECE1
:1058500034F07E0E0801346F6A0E356F9DEC34F023
:10586000800E01015C6F12004AEF2CF02EEC34F038
:105870006DEF2CF056EC31F06DEF2CF025EC34F0A0
:105880006DEF2CF01CEC34F06DEF2CF0A2EC32F04C
:105890006DEF2CF006016F510801196F1A6B1A5148
:1058A000000AD8B456EF2CF046EF2CF01951010A3B
:1058B000D8B436EF2CF0030AD8B43AEF2CF0010A32
:1058C000D8B43EEF2CF0070AD8B43AEF2CF0010A16
:1058D000D8B442EF2CF046EF2CF012007DEC32F001
:1058E000938877EC34F070EC29F088EC31F0A40E5A
:1058F0000801346F5B0E356F25EC33F0780E08012C
:10590000346F610E356FA2EC34F007010A93E20E9A
:105910000801346F610E356FA7EC34F0618E618C35
:105920004A0E0801346F420E356F89EC34F0AFEC4B
:1059300013F0560E0801346F3F0E356F9DEC34F0B6
:0E594000000EFEEC2DF0C3EC21F055EF00F050
:10595000FAC47AF5FBC47BF5F6C47CF5F7C47DF593
:10596000F8C47EF5F5C47FF520EC35F0E806D8A440
:10597000BCEF2CF0BEEF2CF0C2EF2CF0E9EC1EF0E7
:10598000D4EF2CF006014A51D8B4C9EF2CF0CBEF7C
:105990002CF0D4EF2CF04DC6D9F44EC6DAF44D4BB2
:1059A0004E2BDF50E8EC34F07FC5F5F47EC5F8F4FB
:1059B0007DC5F7F47CC5F6F47BC5FBF47AC5FAF433
:1059C0001100010E0101E66F000EE76F000EE86F97
:1059D000000EE96FED69EE69660EF36FFE0EF46F6F
:1059E000660EF56FFE0EF66F7F0EF86F7A8A7A8C70
:1059F0007A867A88EB85EB87EC81700E0801346F2C
:105A00006A0E356F34EC33F00101EB95E68FEB91C4
:105A1000EB95E68F050EE82EFED700000000000093
:105A200000000000000000000101EA91EA95EB850A
:105A30001200000E0801406FD7EC30F00009D8A426
:105A400024EF2DF026EF2DF046EF2DF0010E06018C
:105A50004A6F36C84BF637C84CF6010E556F38C83A
:105A60004DF639C84EF63AC84FF63BC850F63CC81A
:105A700051F63DC852F63EC853F63FC854F6000EE4
:105A8000566F3AEC2FF0010E0801406F08014051AB
:105A90001200000E08013C6FD7EC30F00009D8A4CA
:105AA00054EF2DF056EF2DF076EF2DF0010E06019C
:105AB0004A6F36C84BF637C84CF6000E556F38C8DB
:105AC0004DF639C84EF63AC84FF63BC850F6000EB0
:105AD000516F000E526F000E546F000E536F000E88
:105AE000566F3AEC2FF0010E08013C6F08013C5153
:105AF000120087EF2DF083EC34F0A5EF2DF005ECCC
:105B000035F0A5EF2DF001EC35F0A5EF2DF00601F5
:105B10006F51426F436B4351000AD8B492EF2DF09E
:105B2000A5EF2DF04251000AD8B47BEF2DF0010A09
:105B3000D8B47BEF2DF0030AD8B47FEF2DF0060A1E
:105B4000D8B483EF2DF0A5EF2DF012000801366FC9
:105B50000601975108013619D8A4B1EF2DF0B3EF23
:105B60002DF0B5EF2DF0D1EF2DF0619C619E3651F7
:105B7000D8A4BDEF2DF0BFEF2DF0C8EF2DF052EC03
:105B80002EF041EC2BF0000E0601976FCFEF2DF0B9
:105B9000A3EC2EF0E1EC2CF0010E0601976F618E64
:105BA000618C12000701C46FE3EF2DF0E20EB86FB5
:105BB000500EB96F000EBA6F000EBB6F070EC3EC2C
:105BC00029F0FDEF2DF00701C451C26FC36BC35123
:105BD000000AD8B4EEEF2DF0FDEF2DF0C251000A0F
:105BE000D8B4D6EF2DF0010AD8B4FDEF2DF0030A9A
:105BF000D8B4FDEF2DF0FDEF2DF0120008018E6FEF
:105C0000030E0501C96F08018E51D8B40AEF2EF0BA
:105C10000CEF2EF01BEF2EF0000E876F640E866FD8
:105C2000000E896F640E886FF90E8B6F8A69C1EC64
:105C300025F028EF2EF0000E876F000E866F000E05
:105C4000896F640E886FF90E8B6F8A69C1EC25F03D
:105C5000120001010991000E0A6F000E0B6F010E78
:105C60000C6FF80E086F300E076F08510801366F81
:105C70000101075106017C6F36C87DF68E0E0801C2
:105C8000346F6A0E356F89EC34F0940E0801346F6E
:105C90006A0E356F8EEC34F06C9C768C350E0101FB
:105CA000096F1200000E0101E66F000EE76F000E93
:105CB000E86F000EE96F000EED6F000EEE6F000E44
:105CC000F36F000EF46F000EF56F000EF66F000E0E
:105CD000F86F000EE46F000EEC6F7A9A7A9C7A9659
:105CE0007A98EB95EB97700E0801346F6A0E356F5A
:105CF00034EC33F0120000800000000000000000CF
:105D00000000000000000001000800050A0F14193F
:105D10001E23282D32373C41464B50555A5F646450
:105D200064646464646464645F5A55504B46413CE7
:105D300037322D28231E19140F0A05000000000019
:105D4000000000000000000E0101E66F000EE76F8A
:105D5000000EE86F000EE96F000EF96F000EEA6F9B
:105D6000000EEB6F000EEC6F000EED6F000EEE6F8D
:105D7000000EF86FEDEC33F0780E0801346F6A0E08
:105D8000356F07EC33F0E20E0801346F680E356FA3
:065D9000F8EC32F01200F5
:105D9800FAC430F8FBC431F86C9C7CC6B8F77DC6F1
:105DA800B9F76FEC31F006017A517B11D8B4DFEF07
:105DB8002EF0E1EF2EF0EDEF2EF002D8EDEF2EF001
:105DC8000500FA6E7A51FD6E7B51FE6EFF6AFA503D
:105DD800120031C8FBF430C8FAF41100000E0801B3
:105DE8005F1B000E601B000E611B800E621B5BC8F0
:105DF80034F85CC835F85DC836F85EC837F85FC84F
:105E080038F860C839F861C83AF862C83BF8A0ECBD
:105E18000AF034C85BF835C85CF836C85DF837C88E
:105E28005EF81200000E0601041B000E051B000E92
:105E3800061B800E071B00C682F501C683F502C645
:105E480084F503C685F504C686F505C687F506C636
:105E580088F507C689F501EC0DF082C500F683C503
:105E680001F684C502F685C503F6120006014F51F6
:105E78005011D8B442EF2FF044EF2FF055EF2FF028
:105E88004FC634F850C635F847EC34F00601555182
:105E9800D8B451EF2FF053EF2FF055EF2FF01AEC45
:105EA80035F006014B514B25BBEC34F017EC35F0BF
:105EB8001200000E06014A6F000E4C6F4B69000E6F
:105EC8004D6F000E4E6F000E516F000E526FEDECCD
:105ED80034F0C0EC34F0C5EC34F002D87EEF2FF08B
:105EE8000500FA6E06018A51FD6E8B51FE6EFF6A3F
:105EF800FA5012001200000E06014A6F000E4C6F95
:105F08004B69000E4D6F000E4E6F000E516F000E64
:105F1800526FF5EC34F0D4EC34F0D9EC34F002D80C
:105F2800A0EF2FF00500FA6E06018A51FD6E8B5125
:105F3800FE6EFF6AFA501200120008017D6F9598F4
:105F480075C850F876C851F877C852F878C853F829
:105F580079C854F87AC855F87BC856F87CC857F8F9
:105F680008017D517DEC1BF050C87EF851C87FF8C0
:105F780095887EC875F87FC876F8120008017D6F8D
:105F8800958875C850F876C851F877C852F878C817
:105F980053F879C854F87AC855F87BC856F87CC8BD
:105FA80057F808017D517DEC1BF050C87EF851C8A8
:105FB8007FF87EC875F87FC876F81200FAC435F6FF
:105FC800FBC436F66D9C0501BD51BE11D8B4EFEF88
:105FD8002FF0F1EF2FF0FDEF2FF002D8FDEF2FF0AB
:105FE8000500FA6EBD51FD6EBE51FE6EFF6AFA5095
:105FF800120036C6FBF435C6FAF41100FAC432F8BA
:10600800FBC433F86C9E060178517911D8B40FEFB0
:1060180030F011EF30F01DEF30F002D81DEF30F006
:106028000500FA6E7851FD6E7951FE6EFF6AFA50DE
:10603800120033C8FBF432C8FAF41100EDEC34F066
:10604800C0EC34F0EDEC33F0C5EC34F00101E69F20
:1060580076EC33F00101EB91EB95E68F050EE82E17
:10606800FED7000000000000000000000000000053
:106078000101EA91EA95EB851200F5EC34F0D4ECD5
:1060880034F0F7EC33F0D9EC34F00101E69F8CECF6
:1060980033F00101EB91EB95E68F050EE82EFED764
:1060A80000000000000000000000000000000101E6
:1060B800EA91EA95EB85120004011DA566EF30F020
:1060C80068EF30F06AEF30F024EC31F0040131ADC4
:1060D80070EF30F072EF30F074EF30F03DEC31F0EB
:1060E800040131AF7AEF30F07CEF30F07EEF30F022
:0660F800B8EC31F01200CB
:10610000FAC4B6F7FBC4B7F76C9A37503810D8B456
:106110008CEF30F08EEF30F09AEF30F002D89AEF3B
:1061200030F00500FA6E3750FD6E3850FE6EFF6A93
:10613000FA501200B7C7FBF4B6C7FAF411002A6E82
:106140002A50050D520EF324D96E070EF420DA6E94
:10615000DEC4B8F7DDC4B9F72A50050D540EF32498
:10616000D96E070EF420DA6EDEC4BAF7DDC4BBF7D1
:106170002A50C3EC29F0120087B4C1EF30F0C3EF0E
:1061800030F0D6EF30F007010AB3C9EF30F0CBEFB3
:1061900030F0D6EF30F07E0EB86F4F0EB96F000EB4
:1061A000BA6F000EBB6F0B0EC3EC29F01200010E8C
:1061B0000801346F06014A51D8A4E1EF30F0E3EF53
:1061C00030F0EEEF30F00101E4AFE9EF30F0EBEF4B
:1061D00030F0EEEF30F0000E0801346F080134515A
:1061E000120089BCF6EF30F0F8EF30F00AEF31F032
:1061F000D7EC32F037C65FF638C660F639C661F6BE
:106200003AC662F63BC663F63CC664F63DC665F622
:106210003EC666F612000801756F959871C850F871
:1062200072C851F873C852F874C853F80801755110
:1062300013EC1EF050C876F851C877F8958876C8E8
:1062400071F877C872F8120006019D519E11D8B4FA
:106250002CEF31F02EEF31F03AEF31F002D83AEF77
:1062600031F00500FA6E9D51FD6E9E51FE6EFF6A83
:10627000FA50120004011D95120006019B519C1159
:10628000D8B445EF31F047EF31F053EF31F002D899
:1062900053EF31F00500FA6E9B51FD6E9C51FE6E7E
:1062A000FF6AFA5012000401319D120089A25BEFCF
:1062B00031F05DEF31F060EF31F00601704B712B82
:1062C00006017451705D75517159D8A06AEF31F0B3
:1062D0006CEF31F06EEF31F0A2EC32F01200010100
:1062E00009A575EF31F077EF31F081EF31F00991C9
:1062F0000701B9510101086FB8C707F1098187EF9C
:1063000031F00701B9510101086FB8C707F1120058
:10631000F20E0801346F5A0E356FCFEC34F0680E70
:106320000801346F580E356FCAEC34F0920E080134
:10633000346F6A0E356F25EC33F0D0EC31F012007B
:10634000060153515411D8B4A8EF31F0AAEF31F03F
:10635000B0EF31F053C622F554C623F57DEC34F08E
:10636000D88006014B35F9EC34F026EC35F01200FC
:1063700039503A10D8B4BFEF31F0C1EF31F0CDEF62
:1063800031F002D8CDEF31F00500FA6E3950FD6ED4
:106390003A50FE6EFF6AFA5012000401319F12005B
:1063A00062AED5EF31F0A2EF32F0000E06016F6F52
:1063B000000E716F000E706F000E736F000E726F23
:1063C000000E756F000E746F37EC34F0120006018A
:1063D00082518311D8B4EFEF31F0F1EF31F0FDEFDE
:1063E00031F002D8FDEF31F00500FA6E8251FD6EFA
:1063F0008351FE6EFF6AFA501200120006018051AE
:106400008111D8B406EF32F008EF32F014EF32F019
:1064100002D814EF32F00500FA6E8051FD6E815102
:10642000FE6EFF6AFA501200120006017E517F11C3
:10643000D8B41DEF32F01FEF32F02BEF32F002D85C
:106440002BEF32F00500FA6E7E51FD6E7F51FE6E2D
:10645000FF6AFA5012001200000E0001386F070E9A
:106460003F6F070E3B6F070E3C6F070E3D6F070E29
:106470003E6F070E396F070E3A6F000EF46E000E76
:10648000F36E1200080134513603F3C438F8F4C433
:1064900039F834513703F350392735513603F35067
:1064A000392738C834F839C835F81200600E0101B0
:1064B000046F000E036F7F0E066F900E0801346F9D
:1064C0006A0E356FCAEC34F06C9A768A800E010140
:1064D000056F1200010E0501C96F3BC834F83CC8B6
:1064E00035F8000E0801376F640E366FBEEC2BF0E6
:1064F00034C8C5F535C8C6F51200E8EC32F0DBEC5F
:1065000024F056EC32F02CEC32F041EC2BF03AEC6B
:1065100035F0F9EC2BF029EC2EF0FBEC2AF0120010
:106520000601416F41C66FF6000E0601716F000E45
:10653000706F000E736F020E726F000E756F3C0E5F
:10654000746F1200000E06016F6F000E716F000E67
:10655000706F000E736F000E726F000E756F000E7D
:10656000746F35EC35F012000701B86FB8C76FF6DD
:10657000000E0601716F000E706F000E736F3C0EFF
:10658000726F000E756F3C0E746F120057C634F8B0
:1065900058C635F859C636F85AC637F85BC638F8C3
:1065A0005CC639F85DC63AF85EC63BF8120057C6BD
:1065B00037F658C638F659C639F65AC63AF65BC6A3
:1065C0003BF65CC63CF65DC63DF65EC63EF6120086
:1065D000600E00017A6F400E7C6F000E7E6F080E19
:1065E000806F000E7F6F000E816F000E826F1200B1
:1065F000080134513511D8B400EF33F002EF33F015
:1066000006EF33F034C88AF635C88BF6120008015D
:1066100034513511D8B40FEF33F011EF33F015EFDB
:1066200033F034C888F635C889F6120062AE1BEF25
:1066300033F03FEF34F0D00E0801346FC90EE82E6E
:10664000FED7342FFCD700D0120008013451351189
:10665000D8B42DEF33F02FEF33F033EF33F034C8ED
:1066600076F635C877F61200080134513511D8B4E2
:106670003CEF33F03EEF33F042EF33F034C80DF52A
:1066800035C80EF512005CEC34F0030AD8A44BEFC9
:1066900033F04DEF33F050EF33F0010E9FEC30F05C
:0266A0001200E6
:1066A400FAC444F6FBC445F66992E7EC31F045C6FA
:1066B400FBF444C6FAF41100FAC446F6FBC447F6E8
:1066C4006994FEEC31F047C6FBF446C6FAF41100B7
:1066D400FAC448F6FBC449F6699615EC32F049C68B
:1066E400FBF448C6FAF411007A8A7A8C7A867A889E
:1066F4000101EB85EB83EB8FEC81EC83120001014C
:10670400E4B987EF33F08AEF33F0010E8BEF33F007
:10671400000E12007A8A7A8C7A867A880101EB85D7
:10672400EB83EB8FEC81EC8312000101E7BB9DEF5F
:1067340033F0A0EF33F0010EA1EF33F0000E12009E
:106744000101E4B7A8EF33F0ABEF33F0010EACEF87
:1067540033F0000E12000101ECBDB3EF33F0B6EFDD
:1067640033F0010EB7EF33F0000E12000101ECBB61
:10677400BEEF33F0C1EF33F0010EC2EF33F0000E81
:1067840012000101E4A7C9EF33F0CCEF33F0010E9E
:10679400CDEF33F0000E1200FAC43FF6FBC440F60E
:1067A40060EC30F040C6FBF43FC6FAF411006464B8
:1067B40064646464646464640000000000000000B5
:1067C4000000020E0501C96F34C8BFF535C8C0F515
:1067D400000EC76F12007A9A7A9C7A967A98000E05
:1067E4000101EB6F000EEC6F12007A9A7A9C7A9694
:1067F4007A98000E0101EB6F000EEC6F1200F28E1E
:10680400030000000000000000000000000012006F
:1068140062AE0FEF34F0F1EF34F0020E06018D6F2B
:106824001200F1C177F50501D89077337751756F70
:10683400766B1200440E0701C56F650EC66F020E1B
:10684400B3EC2AF01200120E0701C56F6A0EC66F70
:10685400010EB3EC2AF012001A0E0701C56F6A0E7E
:10686400C66F000EB3EC2AF0120062AE3CEF34F0B7
:1068740035EF35F00101059F1200D00E226ECA0ECD
:10688400E82EFED7222EFCD7120008013551010153
:10689400EE6F34C8EDF1120034C85EF108013551D1
:1068A40001015F6F120013C575F5000E136E05012B
:1068B4007551120056C62AF5000E0601566F2A506D
:1068C400120082C55EF10501835101015F6F120060
:0D68D4000A00000000000000010214073C53
:1068E20062AE76EF34F03BEF35F01200010E060196
:1068F200976FE1EC2CF0120023500101EE6F22C5DC
:10690200EDF11200010E90EC32F032EC35F0120093
:1069120034C87AF635C87BF6120034C878F635C822
:1069220079F6120034C884F635C885F6120034C8E8
:1069320086F635C887F6120034C8BDF535C8BEF5EF
:10694200120034C89DF635C89EF6120034C89BF674
:1069520035C89CF6120034C839F535C83AF512002C
:1069620034C87EF635C87FF6120034C880F635C8C2
:1069720081F612000801346F34C8F2F112000101ED
:10698200EC9BEC9DEC991200000E0101E56FE58590
:10699200120034C837F535C838F5120034C882F60B
:1069A20035C883F612000101EC9BEC9DEC991200B4
:1069B200000E0101E56FE585120023EC35F00101BF
:1069C200E78712000501756F75C5F0F11200050128
:1069D200756F75C5F0F11200000E0101EA6F120029
:1069E200020E06018D6F1200000E0101EA6F120005
:1069F200226E22C5F2F11200010E06018D6F120005
:106A0200050E90EC32F01200030E90EC32F0120000
:106A1200040EB4EC32F01200020EB4EC32F01200AA
:106A22000100320038180601975112000101E68B6D
:106A320012000101E68D120001015C8512000601BF
:106A4200975112000101E69D12000101E68B12002E
:106A52000101EF5112000101EF51120001015C85A9
:106A620012000101058F12000101059F1200000EA4
:106A72001200120012001200120012001200110085
:106A82001200120012001200120012001200120074
:046A920012001200DC
:020000040030CA
:0B000000ECFFFFFF9FFFFF7FFFFFFFF3
:02001800FFFFE8
:00000001FF
