:0400000055EF00F0C8
:10000800571A601966196C19571A571A571A571A36
:10001800571A571A571A571A571A571A571A571A50
:10002800571A571A571A571A571A571A571A571A40
:10003800571A571A571A571A9E19F8171E17B91729
:10004800571A571A571A571A571A571AA917EE1341
:10005800571A571A571A571A571A571A571A571A10
:10006800571A571A571A571A571A571A571A571A00
:10007800571A571A571A78150C16A4113B102A004C
:10008800571A571A571A571A571A2A002A002A00B5
:10009800571A571A571A571A571A571A571A571AD0
:0600A800FF0065EF26F0E9
:10150000006255265C7259000012590000946790E1
:1015100060EC640000A258845BA2682E698667DED6
:1015200065000046650000325B000000000000EE30
:101530006700008A6340694A670000706800000025
:1015400008010551800B0E6F05510525106F04AF82
:10155000ACEF0AF0AEEF0AF0AFEF0AF010811051D5
:10156000D8B4B5EF0AF0B7EF0AF0CCEF0AF01029C3
:10157000D8A4BDEF0AF0BFEF0AF0C7EF0AF0000EE3
:10158000026F000E036F000E046F000E056F048FD4
:10159000000E056FD4EF0AF0000E026F000E036F0D
:1015A000000E046F000E056F0951800B0F6F0E5176
:1015B0000F19D8B4DEEF0AF0E0EF0AF0E1EF0AF01D
:1015C0000E8D095109250F6F08AFE9EF0AF0EBEF17
:1015D0000AF0ECEF0AF00F810F51D8B4F2EF0AF0E5
:1015E000F4EF0AF009EF0BF00F29D8A4FAEF0AF094
:1015F000FCEF0AF004EF0BF0000E066F000E076F11
:10160000000E086F000E096F088F000E096F11EFB2
:101610000BF0000E066F000E076F000E086F000E35
:10162000096F10510F5DD8B018EF0BF01AEF0BF0E7
:1016300041EF0BF00EAD1FEF0BF021EF0BF023EF9E
:101640000BF0800E0E1B10C811F80FC810F811C84F
:101650000FF802C811F806C802F811C806F803C846
:1016600011F807C803F811C807F804C811F808C82A
:1016700004F811C808F805C811F809C805F811C818
:1016800009F8000E116F10510FC80AF80B6B0A5FB2
:10169000000E0B5B0BBF56EF0BF00B5109E11A0E5E
:1016A0000A5DD8A056EF0BF058EF0BF08FEF0BF060
:1016B0000251031104110511D8A461EF0BF064EF7E
:1016C0000BF0010E65EF0BF0000E116F000E026FB4
:1016D000000E036F000E046F000E056F0FC810F8A8
:1016E00098EF0BF011A177EF0BF079EF0BF07FEF94
:1016F0000BF0D89011310109116F81EF0BF0D890E8
:10170000113302A186EF0BF088EF0BF089EF0BF09D
:10171000118F05350533043303330233102B0F517A
:10172000105DD8A096EF0BF098EF0BF072EF0BF076
:101730000EBD9DEF0BF09FEF0BF0DFEF0BF01051A4
:10174000D8A4A5EF0BF0A7EF0BF0B1EF0BF0000E54
:10175000026F000E036F000E046F000E056F00EFA6
:101760000DF00651022707510323085104230951A4
:10177000052305A1BEEF0BF0C0EF0BF06CEF0CF0F2
:1017800011A1C5EF0BF0C7EF0BF0CDEF0BF0D89028
:1017900011310109116FCFEF0BF0D890113302A175
:1017A000D4EF0BF0D6EF0BF0D7EF0BF0118F053520
:1017B0000533043303330233102B6CEF0CF0065166
:1017C000025D07510359085104590551800A0A6FF7
:1017D0000951800A0A59D8B0F0EF0BF0F2EF0BF084
:1017E0001DEF0CF00251065D0A6F035107590B6F94
:1017F000045108590C6F055109590D6FFF0E0A2548
:10180000026FFF0E0B21036FFF0E0C21046FFF0E02
:101810000D21056F800E0E1B116D1151D8A413EF11
:101820000CF015EF0CF025EF0CF0010E0227000E66
:1018300003230423052325EF0CF00651025F075113
:10184000035B0851045B0951055B0251031104114C
:101850000511D8A42EEF0CF030EF0CF065EF0CF072
:101860001151D8A436EF0CF038EF0CF065EF0CF006
:10187000000E026F000E036F000E046F000E056F66
:1018800000EF0DF0D890023703370437053711AF5A
:101890004CEF0CF04EEF0CF04FEF0CF0028111A169
:1018A00054EF0CF056EF0CF05AEF0CF0D8801137D3
:1018B0005CEF0CF0D89011371051D8B462EF0CF0F7
:1018C00064EF0CF065EF0CF0100704AF6AEF0CF05A
:1018D0006CEF0CF042EF0CF0000E0F6F11AF73EFD6
:1018E0000CF075EF0CF08DEF0CF011C80AF87F0EBC
:1018F0000A17D8B47EEF0CF080EF0CF084EF0CF0F8
:10190000010E0F6F8DEF0CF002A189EF0CF08BEF41
:101910000CF08DEF0CF080EF0CF00F51D8B493EF7A
:101920000CF095EF0CF0C0EF0CF0010E0227000E4A
:1019300003230423052305A1A0EF0CF0A2EF0CF074
:10194000C0EF0CF002C80AF803C80BF804C80CF882
:1019500005C80DF80D350D330C330B330A330AC8A7
:1019600002F80BC803F80CC804F80DC805F81029D4
:10197000D8B4BDEF0CF0BFEF0CF0C0EF0CF0102BA3
:101980001029D8B4C6EF0CF0C8EF0CF0D0EF0CF073
:101990001051D8A4CEEF0CF0D0EF0CF0E2EF0CF029
:1019A000000E026F000E036F000E046F000E056F35
:1019B0001051D8A4DEEF0CF0E0EF0CF0E2EF0CF0E9
:1019C000000E0E6F10A1E7EF0CF0E9EF0CF0ECEF5A
:1019D0000CF0048FEDEF0CF0049FD8901031056FE0
:1019E0000EAFF5EF0CF0F7EF0CF0F8EF0CF0058F01
:1019F00002C802F803C803F804C804F805C805F8CB
:101A0000120005018551800B8E6F85518525906FE1
:101A100084AF0DEF0DF00FEF0DF010EF0DF0908192
:101A20009051D8B416EF0DF018EF0DF02DEF0DF02A
:101A30009029D8A41EEF0DF020EF0DF028EF0DF047
:101A4000000E826F000E836F000E846F000E856F94
:101A5000848F000E856F35EF0DF0000E826F000E43
:101A6000836F000E846F000E856F8951800B8F6F1E
:101A70008E518F19D8B43FEF0DF041EF0DF042EFCA
:101A80000DF08E8D895189258F6F88AF4AEF0DF04B
:101A90004CEF0DF04DEF0DF08F818F51D8B453EF17
:101AA0000DF055EF0DF06AEF0DF08F29D8A45BEF24
:101AB0000DF05DEF0DF065EF0DF0000E866F000E7E
:101AC000876F000E886F000E896F888F000E896FF8
:101AD00072EF0DF0000E866F000E876F000E886F9C
:101AE000000E896F90518F5DD8B079EF0DF07BEFCC
:101AF0000DF0A2EF0DF08EAD80EF0DF082EF0DF046
:101B000084EF0DF0800E8E1B90C591F58FC590F57A
:101B100091C58FF582C591F586C582F591C586F58B
:101B200083C591F587C583F591C587F584C591F582
:101B300088C584F591C588F585C591F589C585F574
:101B400091C589F5000E916F90518FC58AF58B6B09
:101B50008A5F000E8B5B8BBFB7EF0DF08B5109E1F5
:101B60001A0E8A5DD8A0B7EF0DF0B9EF0DF0F0EFC7
:101B70000DF08251831184118511D8A4C2EF0DF0AC
:101B8000C5EF0DF0010EC6EF0DF0000E916F000EC7
:101B9000826F000E836F000E846F000E856F8FC5FD
:101BA00090F5F9EF0DF091A1D8EF0DF0DAEF0DF00F
:101BB000E0EF0DF0D89091310109916FE2EF0DF057
:101BC000D890913382A1E7EF0DF0E9EF0DF0EAEF45
:101BD0000DF0918F85358533843383338233902B99
:101BE0008F51905DD8A0F7EF0DF0F9EF0DF0D3EF26
:101BF0000DF08EBDFEEF0DF000EF0EF040EF0EF099
:101C00009051D8A406EF0EF008EF0EF012EF0EF090
:101C1000000E826F000E836F000E846F000E856FC2
:101C200061EF0FF0865182278751832388518423E7
:101C30008951852385A11FEF0EF021EF0EF0CDEF26
:101C40000EF091A126EF0EF028EF0EF02EEF0EF021
:101C5000D89091310109916F30EF0EF0D890913307
:101C600082A135EF0EF037EF0EF038EF0EF0918FC6
:101C700085358533843383338233902BCDEF0EF05B
:101C80008651825D87518359885184598551800AD4
:101C90008A6F8951800A8A59D8B051EF0EF053EFFC
:101CA0000EF07EEF0EF08251865D8A6F8351875968
:101CB0008B6F845188598C6F855189598D6FFF0EB8
:101CC0008A25826FFF0E8B21836FFF0E8C21846F1C
:101CD000FF0E8D21856F800E8E1B916D9151D8A4C2
:101CE00074EF0EF076EF0EF086EF0EF0010E822705
:101CF000000E83238423852386EF0EF08651825FB6
:101D00008751835B8851845B8951855B8251831144
:101D100084118511D8A48FEF0EF091EF0EF0C6EF6D
:101D20000EF09151D8A497EF0EF099EF0EF0C6EF98
:101D30000EF0000E826F000E836F000E846F000E97
:101D4000856F61EF0FF0D8908237833784378537FE
:101D500091AFADEF0EF0AFEF0EF0B0EF0EF082816D
:101D600091A1B5EF0EF0B7EF0EF0BBEF0EF0D880FB
:101D70009137BDEF0EF0D89091379051D8B4C3EFA2
:101D80000EF0C5EF0EF0C6EF0EF0900784AFCBEF6C
:101D90000EF0CDEF0EF0A3EF0EF0000E8F6F91AFAF
:101DA000D4EF0EF0D6EF0EF0EEEF0EF091C58AF5FF
:101DB0007F0E8A17D8B4DFEF0EF0E1EF0EF0E5EFFB
:101DC0000EF0010E8F6FEEEF0EF082A1EAEF0EF033
:101DD000ECEF0EF0EEEF0EF0E1EF0EF08F51D8B415
:101DE000F4EF0EF0F6EF0EF021EF0FF0010E822768
:101DF000000E83238423852385A101EF0FF003EFD9
:101E00000FF021EF0FF082C58AF583C58BF584C5ED
:101E10008CF585C58DF58D358D338C338B338A33B9
:101E20008AC582F58BC583F58CC584F58DC585F58E
:101E30009029D8B41EEF0FF020EF0FF021EF0FF034
:101E4000902B9029D8B427EF0FF029EF0FF031EF46
:101E50000FF09051D8A42FEF0FF031EF0FF043EFB8
:101E60000FF0000E826F000E836F000E846F000E65
:101E7000856F9051D8A43FEF0FF041EF0FF043EF83
:101E80000FF0000E8E6F90A148EF0FF04AEF0FF0A9
:101E90004DEF0FF0848F4EEF0FF0849FD89090316C
:101EA000856F8EAF56EF0FF058EF0FF059EF0FF030
:101EB000858F82C582F583C583F584C584F585C584
:101EC00085F5120006010B51800B106F0B510B258D
:101ED000126F0AAF6EEF0FF070EF0FF071EF0FF0AF
:101EE00012811251D8B477EF0FF079EF0FF08CEF29
:101EF0000FF01229D8A47FEF0FF081EF0FF089EFD8
:101F00000FF0000E086F000E096F000E0A6F000E32
:101F10000B6F0A8F94EF0FF0000E086F000E096F21
:101F2000000E0A6F000E0B6F0F51800B101B0F512C
:101F30000F25116F0EAF9FEF0FF0A1EF0FF0A2EF83
:101F40000FF011811151D8B4A8EF0FF0AAEF0FF0E4
:101F5000BDEF0FF01129D8A4B0EF0FF0B2EF0FF0E2
:101F6000BAEF0FF0000E0C6F000E0D6F000E0E6F2B
:101F7000000E0F6F0E8FC5EF0FF0000E0C6F000EEE
:101F80000D6F000E0E6F000E0F6F1151D8B4CBEF16
:101F90000FF0CDEF0FF0D5EF0FF01251D8A4D3EF23
:101FA0000FF0D5EF0FF0DFEF0FF0000E086F000E0F
:101FB000096F000E0A6F000E0B6F98EF11F00E51B3
:101FC0000803F3C41BF6F4C41CF61B51136F146B07
:101FD000156B166B1C51176F186B196B1A6B0D5123
:101FE0000903F3C41BF6F4C41CF61B511327000E9F
:101FF0001423152316231C511727000E1823192309
:102000001A230C510A03F3C41BF6F4C41CF61B512B
:102010001327000E1423152316231C511727000E17
:10202000182319231A2315C616F614C615F613C657
:1020300014F6136B0C510903F3C41BF6F4C41CF61D
:102040001B5113271C511423000E1523000E1623B9
:102050000D510803F3C41BF6F4C41CF61B511327DF
:102060001C511423000E1523000E162315C616F658
:1020700014C615F613C614F6136B0C510803F3C4FB
:102080001BF6F4C41CF61B5113271C511423000E1D
:102090001523000E16230E510903F3C41BF6F4C4D6
:1020A0001CF61B5117271C511823000E1923000E74
:1020B0001A230D510A03F3C41BF6F4C41CF61B517A
:1020C00017271C511823000E1923000E1A230E5136
:1020D0000A03F3C41BF6F4C41CF61B510501A96FD7
:1020E00006011C510501AA6FAB6BAC6BABC5ACF51F
:1020F000AAC5ABF5A9C5AAF5A96BA9510601172771
:102100000501AA51060118230501AB510601192347
:102110000501AC5106011A2313C6A9F514C6AAF588
:1021200015C6ABF516C6ACF5190E9DEF10F00501FE
:10213000D890AC33AB33AA33A933E82E97EF10F025
:10214000A951060117270501AA5106011823050107
:10215000AB51060119230501AC5106011A2315C61E
:1021600016F614C615F613C614F6136B115112C6E3
:10217000A9F50501AA6BA927000EAA23820EA9259D
:1021800006011B6FFF0E0501AA2106011C6FDEEF81
:1021900010F0D8901737183719371A3716AFD3EF12
:1021A00010F0D5EF10F0D6EF10F01781D89013375C
:1021B0001437153716371B07D8A01C0719AFE3EFE4
:1021C00010F0E5EF10F0C9EF10F0000E116F16AF30
:1021D000ECEF10F0EEEF10F01BEF11F0FF0E131507
:1021E0000501A96FFF0E060114150501AA6FFF0E68
:1021F000060115150501AB6F7F0E060116150501C9
:10220000AC6FA951AA11AB11AC11D8B40AEF11F0FF
:102210000CEF11F011EF11F0010E0601116F1BEF21
:1022200011F0060117A117EF11F019EF11F01BEFD4
:1022300011F00CEF11F01151D8B421EF11F023EF90
:1022400011F049EF11F0010E1727000E1823192382
:102250001A231AA12EEF11F030EF11F049EF11F00F
:1022600017C6A9F518C6AAF519C6ABF51AC6ACF576
:102270000501AC35AC33AB33AA33A933A9C517F686
:10228000AAC518F6ABC519F6ACC51AF606011B4B64
:102290001C2B1CBF54EF11F01C5108E11B29D8A0C6
:1022A00054EF11F056EF11F060EF11F0000E176FC0
:1022B000000E186F800E196F7F0E1A6F8EEF11F0DF
:1022C0001CBF6DEF11F01C5106E11B05D8B06BEF80
:1022D00011F06DEF11F079EF11F0000E176F000E95
:1022E000186F000E196F000E1A6F000E106F8EEF30
:1022F00011F01BC612F6FF0E1717FF0E18177F0EF0
:102300001917000E1A1712A188EF11F08AEF11F0B9
:102310008BEF11F0198FD89012311A6F10511A13D8
:1023200017C608F618C609F619C60AF61AC60BF635
:10233000120008013451800B3D6F345134253F6F3A
:1023400033AFA5EF11F0A7EF11F0A8EF11F03F8127
:102350003F51D8B4AEEF11F0B0EF11F0C3EF11F070
:102360003F29D8A4B6EF11F0B8EF11F0C0EF11F08B
:10237000000E316F000E326F000E336F000E346F9F
:10238000338FCBEF11F0000E316F000E326F000E65
:10239000336F000E346F3851800B3D1B3851382598
:1023A0003E6F37AFD6EF11F0D8EF11F0D9EF11F043
:1023B0003E813E51D8B4DFEF11F0E1EF11F0F4EFC0
:1023C00011F03E29D8A4E7EF11F0E9EF11F0F1EF99
:1023D00011F0000E356F000E366F000E376F000ED5
:1023E000386F378FFCEF11F0000E356F000E366F2F
:1023F000000E376F000E386F3E51D8B402EF12F066
:1024000004EF12F00CEF12F03F51D8A40AEF12F0D3
:102410000CEF12F016EF12F0000E316F000E326F5B
:10242000000E336F000E346FAEEF13F037513103EF
:10243000F3C448F8F4C449F84851406F416B426B0B
:10244000436B4951446F456B466B476B36513203C2
:10245000F3C448F8F4C449F848514027000E41231A
:102460004223432349514427000E45234623472353
:1024700035513303F3C448F8F4C449F848514027B0
:10248000000E41234223432349514427000E452394
:102490004623472342C843F841C842F840C841F8A0
:1024A000406B35513203F3C448F8F4C449F848513D
:1024B000402749514123000E4223000E4323365149
:1024C0003103F3C448F8F4C449F84851402749514E
:1024D0004123000E4223000E432342C843F841C863
:1024E00042F840C841F8406B35513103F3C448F815
:1024F000F4C449F84851402749514123000E422372
:10250000000E432337513203F3C448F8F4C449F8AA
:102510004851442749514523000E4623000E4723C6
:1025200036513303F3C448F8F4C449F848514427FA
:1025300049514523000E4623000E472337513303EC
:10254000F3C448F8F4C449F84851396F49513A6F17
:102550003B6B3C6B3BC83CF83AC83BF839C83AF88F
:10256000396B395144273A5145233B5146233C515D
:10257000472340C839F841C83AF842C83BF843C835
:102580003CF8190EC9EF12F0D8903C333B333A3384
:102590003933E82EC4EF12F0395144273A5145231C
:1025A0003B5146233C51472342C843F841C842F8B7
:1025B00040C841F8406B3E513FC839F83A6B392763
:1025C000000E3A23820E3925486FFF0E3A21496FDB
:1025D000FFEF12F0D890443745374637473743AFBF
:1025E000F4EF12F0F6EF12F0F7EF12F04481D8900A
:1025F00040374137423743374807D8A0490746AFED
:1026000004EF13F006EF13F0EAEF12F0000E3E6F46
:1026100043AF0DEF13F00FEF13F033EF13F0FF0E96
:102620004015396FFF0E41153A6FFF0E42153B6F93
:102630007F0E43153C6F39513A113B113C11D8B410
:1026400024EF13F026EF13F02AEF13F0010E3E6F84
:1026500033EF13F044A12FEF13F031EF13F033EF0A
:1026600013F026EF13F03E51D8B439EF13F03BEFDF
:1026700013F05FEF13F0010E4427000E45234623AD
:10268000472347A146EF13F048EF13F05FEF13F035
:1026900044C839F845C83AF846C83BF847C83CF83A
:1026A0003C353C333B333A33393339C844F83AC8C4
:1026B00045F83BC846F83CC847F8484B492B49BF4A
:1026C0006AEF13F0495108E14829D8A06AEF13F0E6
:1026D0006CEF13F076EF13F0000E446F000E456FB1
:1026E000800E466F7F0E476FA4EF13F049BF83EF54
:1026F00013F0495106E14805D8B081EF13F083EF9C
:1027000013F08FEF13F0000E446F000E456F000EB4
:10271000466F000E476F000E3D6FA4EF13F048C8E0
:102720003FF8FF0E4417FF0E45177F0E4617000EA9
:1027300047173FA19EEF13F0A0EF13F0A1EF13F0A6
:10274000468FD8903F31476F3D51471344C831F809
:1027500045C832F846C833F847C834F81200000EAE
:102760000801596F000E586F000E556F000E546F20
:10277000380E5C6F5C0E436F080E446F000E466FA0
:10278000010E456F5A0E476F080E486F000E4A6FD4
:10279000010E496F6B0E11EC2FF0080143515827C1
:1027A000445159235AA7D7EF13F0D9EF13F0DBEFB9
:1027B00013F0F6EF13F00A0E026F000E036F000E17
:1027C000046F000E056F25EC27F00801544B552BC4
:1027D00055BFF4EF13F0555109E10A0E545DD8A02E
:1027E000F4EF13F0F6EF13F0B8EF13F05AB7FBEF76
:1027F00013F0FDEF13F0FFEF13F0BCEF15F0160E22
:102800005C6F5C0E436F080E446F000E466F010E46
:10281000456F5A0E476F080E486F000E4A6F010E43
:10282000496F6B0E11EC2FF00801435158274451AA
:1028300059235A5144095D6F5C0E3F6F080E406F7B
:10284000000E426F020E416F6B0E7CEC30F00801FF
:102850003F51582740515923640E026F000E036FF9
:10286000000E046F000E056F25EC27F0260E080100
:102870005C6F5C0E436F080E446F000E466F010ED6
:10288000456F5A0E476F080E486F000E4A6F010ED3
:10289000496F6B0E11EC2FF008014351582744513A
:1028A00059235A5180095D6F5C0E3F6F080E406FCF
:1028B000000E426F020E416F6B0E7CEC30F008018F
:1028C0003F51582740515923640E026F000E036F89
:1028D000000E046F000E056F25EC27F0300E080186
:1028E0005C6F5C0E436F080E446F000E466F010E66
:1028F000456F5A0E476F080E486F000E4A6F020E62
:10290000496F6B0E11EC2FF00801435158274451C9
:1029100059235B514F6F4E6B5A514E25566F000E27
:102920004F21576FFE0E56171F0E5717D89057316D
:102930004E6F5631566F4EC857F856C802F857C8F2
:1029400003F8046B056B000E64EC1CF002C831F850
:1029500003C832F804C833F805C834F8520E080129
:10296000356FB80E366FFE0E376F3F0E386F99EC2D
:1029700011F031C850F832C851F833C852F834C891
:1029800053F8260E08015C6F5C0E436F080E446F0F
:10299000000E466F010E456F5A0E476F080E486FC6
:1029A000000E4A6F010E496F6B0E11EC2FF00801FB
:1029B00043515827445159235A517F0B5D6F5C0E88
:1029C0003F6F080E406F000E426F020E416F6B0E9C
:1029D0007CEC30F008013F51582740515923160E26
:1029E0005C6F5C0E436F080E446F000E466F010E65
:1029F000456F5A0E476F080E486F000E4A6F010E62
:102A0000496F6B0E11EC2FF00801435158274451C8
:102A100059235A51BF0B5D6F5C0E3F6F080E406F1C
:102A2000000E426F020E416F6B0E7CEC30F008011D
:102A30003F5158274051592358515911D8A423EFD9
:102A400015F025EF15F07CEF15F0000E026F000E6B
:102A5000036FFA0E046F440E056F50C806F851C894
:102A600007F852C808F853C809F8C5EC22F0080165
:102A7000D8B03DEF15F03FEF15F07CEF15F0F00EFC
:102A8000565D0A0E5759D8B048EF15F04AEF15F0C9
:102A90007CEF15F0160E5C6F5C0E436F080E446FF2
:102AA000000E466F010E456F5A0E476F080E486FB5
:102AB000000E4A6F010E496F6B0E11EC2FF00801EA
:102AC00043515827445159235A5120095D6F5C0ED8
:102AD0003F6F080E406F000E426F020E416F6B0E8B
:102AE0007CEC30F008013F51582740515923959A0A
:102AF0000501D581ACEF15F0160E5C6F5C0E436FCF
:102B0000080E446F000E466F010E456F5A0E476F58
:102B1000080E486F000E4A6F010E496F6B0E11ECE4
:102B20002FF0080143515827445159235A51DF0BC4
:102B30005D6F5C0E3F6F080E406F000E426F020E1D
:102B4000416F6B0E7CEC30F008013F51582740512B
:102B50005923958A0501D591080158515911D8B4C6
:102B6000B4EF15F0B6EF15F0BAEF15F00501D58307
:102B7000BCEF15F00501D593120008011351800B2D
:102B8000206F13511325276F12AFC9EF15F0CBEF4C
:102B900015F0CCEF15F027812751D8B4D2EF15F0FE
:102BA000D4EF15F0E9EF15F02729D8A4DAEF15F0E6
:102BB000DCEF15F0E4EF15F0000E106F000E116F52
:102BC000000E126F000E136F128F000E136FF1EFD5
:102BD00015F0000E106F000E116F000E126F000E38
:102BE000136F1751800B201B17511725286F16AF35
:102BF000FCEF15F0FEEF15F0FFEF15F028812851DE
:102C0000D8B405EF16F007EF16F01CEF16F02829E0
:102C1000D8A40DEF16F00FEF16F017EF16F0000E18
:102C2000146F000E156F000E166F000E176F168FC3
:102C3000000E176F24EF16F0000E146F000E156FC4
:102C4000000E166F000E176F145115111611171183
:102C5000D8A42DEF16F02FEF16F047EF16F0000E68
:102C6000106F000E116F000E126F000E136F800EAA
:102C700012137F0E13132051131310C810F811C82C
:102C800011F812C812F813C813F88AEF17F0275179
:102C9000D8A44DEF16F04FEF16F059EF16F0000ED6
:102CA000106F000E116F000E126F000E136F8AEF7F
:102CB00017F0285127C818F8196B185F000E195B18
:102CC0007F0E1825216F000E1921226F10C81CF8E5
:102CD00011C81DF812C81EF813C81FF8000E106F97
:102CE000000E116F000E126F000E136F000E236F97
:102CF000000E246F000E256F000E266F000E286F49
:102D0000BAEF16F02851D8B488EF16F08AEF16F013
:102D1000A1EF16F0D8901C371D371E371F37D890FB
:102D2000103711371237133726AF99EF16F09BEF94
:102D300016F09CEF16F01081D890233724372537F2
:102D4000263714511C5D15511D5916511E59175126
:102D50001F59D8A0AEEF16F0B0EF16F0B9EF16F08D
:102D6000268D14511C5F15511D5B16511E5B1751AA
:102D70001F5B282B190E2865C0EF16F0C2EF16F066
:102D800082EF16F01C511D111E111F11D8B4CBEF8C
:102D900016F0CDEF16F0E5EF16F02381E5EF16F013
:102DA000D890103711371237133726AFDAEF16F0F5
:102DB000DCEF16F0DDEF16F01081D89023372437C2
:102DC000253726372107D8A0220712AFEAEF16F0E1
:102DD000ECEF16F0D0EF16F0000E286F26AFF3EFF1
:102DE00016F0F5EF16F019EF17F0FF0E2315186F18
:102DF000FF0E2415196FFF0E25151A6F7F0E26156D
:102E00001B6F185119111A111B11D8B40AEF17F0C2
:102E10000CEF17F010EF17F0010E286F19EF17F0F5
:102E200010A115EF17F017EF17F019EF17F00CEFCF
:102E300017F02851D8B41FEF17F021EF17F045EF26
:102E400017F0010E1027000E11231223132313A1D4
:102E50002CEF17F02EEF17F045EF17F010C818F809
:102E600011C819F812C81AF813C81BF81B351B3300
:102E70001A331933183318C810F819C811F81AC8BA
:102E800012F81BC813F8214B222B22BF50EF17F06A
:102E9000225108E12129D8A050EF17F052EF17F086
:102EA0005DEF17F0000E226F2169000E106F000E0B
:102EB000116F000E126F000E136F22BF6AEF17F032
:102EC000225106E12105D8B068EF17F06AEF17F03C
:102ED00078EF17F0000E226F000E216F000E106FBA
:102EE000000E116F000E126F000E136F000E206F98
:102EF00021C827F827A17FEF17F081EF17F084EFA3
:102F000017F0128F85EF17F0129FD8902731136FAB
:102F10003BEF16F0120005019351800BA06F935107
:102F20009325A76F92AF97EF17F099EF17F09AEFED
:102F300017F0A781A751D8B4A0EF17F0A2EF17F0B0
:102F4000B7EF17F0A729D8A4A8EF17F0AAEF17F04A
:102F5000B2EF17F0000E906F000E916F000E926F9F
:102F6000000E936F928F000E936FBFEF17F0000E5D
:102F7000906F000E916F000E926F000E936F97513D
:102F8000800BA01B97519725A86F96AFCAEF17F03B
:102F9000CCEF17F0CDEF17F0A881A851D8B4D3EF3C
:102FA00017F0D5EF17F0EAEF17F0A829D8A4DBEF58
:102FB00017F0DDEF17F0E5EF17F0000E946F000E3D
:102FC000956F000E966F000E976F968F000E976F9D
:102FD000F2EF17F0000E946F000E956F000E966FD3
:102FE000000E976F9451951196119711D8A4FBEF8D
:102FF00017F0FDEF17F015EF18F0000E906F000EB0
:10300000916F000E926F000E936F800E92137F0EE1
:103010009313A051931390C590F591C591F592C566
:1030200092F593C593F558EF19F0A751D8A41BEF6B
:1030300018F01DEF18F027EF18F0000E906F000E3B
:10304000916F000E926F000E936F58EF19F0A85118
:10305000A7C598F5996B985F000E995B7F0E982530
:10306000A16F000E9921A26F90C59CF591C59DF5A9
:1030700092C59EF593C59FF5000E906F000E916F5F
:10308000000E926F000E936F000EA36F000EA46FE0
:10309000000EA56F000EA66F000EA86F88EF18F047
:1030A000A851D8B456EF18F058EF18F06FEF18F099
:1030B000D8909C379D379E379F37D890903791375F
:1030C00092379337A6AF67EF18F069EF18F06AEF01
:1030D00018F09081D890A337A437A537A63794511C
:1030E0009C5D95519D5996519E5997519F59D8A0D5
:1030F0007CEF18F07EEF18F087EF18F0A68D945152
:103100009C5F95519D5B96519E5B97519F5BA82B51
:10311000190EA8658EEF18F090EF18F050EF18F028
:103120009C519D119E119F11D8B499EF18F09BEFFF
:1031300018F0B3EF18F0A381B3EF18F0D8909037E0
:10314000913792379337A6AFA8EF18F0AAEF18F08F
:10315000ABEF18F09081D890A337A437A537A637E6
:10316000A107D8A0A20792AFB8EF18F0BAEF18F0F5
:103170009EEF18F0000EA86FA6AFC1EF18F0C3EFD6
:1031800018F0E7EF18F0FF0EA315986FFF0EA415C7
:10319000996FFF0EA5159A6F7F0EA6159B6F98511C
:1031A00099119A119B11D8B4D8EF18F0DAEF18F0F2
:1031B000DEEF18F0010EA86FE7EF18F090A1E3EF33
:1031C00018F0E5EF18F0E7EF18F0DAEF18F0A85173
:1031D000D8B4EDEF18F0EFEF18F013EF19F0010E7F
:1031E0009027000E91239223932393A1FAEF18F0D6
:1031F000FCEF18F013EF19F090C598F591C599F50B
:1032000092C59AF593C59BF59B359B339A339933B9
:10321000983398C590F599C591F59AC592F59BC5D7
:1032200093F5A14BA22BA2BF1EEF19F0A25108E10A
:10323000A129D8A01EEF19F020EF19F02BEF19F0FB
:10324000000EA26FA169000E906F000E916F000E2C
:10325000926F000E936FA2BF38EF19F0A25106E1F2
:10326000A105D8B036EF19F038EF19F046EF19F094
:10327000000EA26F000EA16F000E906F000E916FF6
:10328000000E926F000E936F000EA06FA1C5A7F500
:10329000A7A14DEF19F04FEF19F052EF19F0928FEF
:1032A00053EF19F0929FD890A731936F09EF18F060
:1032B000120035EC32F002C850F803C851F804C8C7
:1032C00052F805C853F806C854F807C855F808C896
:1032D00056F809C857F8080157515611551154119D
:1032E0005311521109E1880E505D130E5159D8B097
:1032F0007CEF19F07EEF19F080EF19F079EF1AF0FA
:1033000088C660F835EC32F002C850F803C851F8AE
:1033100004C852F805C853F806C854F807C855F849
:1033200008C856F809C857F821EE61F2C40EDE2429
:103330000801586F090EDE20596F000EDE205A6F0B
:10334000000EDE205B6F000EDE205C6F000EDE20C4
:103350005D6F000EDE205E6F000EDE205F6F50514D
:10336000585D5151595952515A5953515B59545101
:103370005C5955515D5956515E5957515F59D8B0F6
:10338000C4EF19F0C6EF19F0CDEF19F00501D49391
:10339000000E0601886FD2EF19F00501D483010EEB
:1033A0000601886F9C51D8B4D8EF19F0DAEF19F004
:1033B00015EF1AF08851D8B4E0EF19F0E2EF19F0E8
:1033C000F2EF19F0000E08010A6F640E096FD9ECD4
:1033D00031F0000E0801026F000E036F1AEC34F09A
:1033E00015EF1AF00501D205D8A4F9EF19F0FBEF9B
:1033F00019F0FCEF19F093989E0E0801026F060E6B
:10340000036F51EC33F035EC32F002C8ADF503C870
:10341000AEF504C8AFF505C8B0F506C8B1F507C8E4
:10342000B2F508C8B3F509C8B4F506019C51D8A493
:103430001CEF1AF01EEF1AF073EF1AF08851D8B48F
:1034400024EF1AF026EF1AF03EEF1AF0080160514F
:10345000D8A42DEF1AF02FEF1AF03EEF1AF0000E5D
:103460000A6F640E096FD9EC31F0000E0801026F8B
:10347000000E036F1AEC34F073EF1AF00601885156
:10348000D8A445EF1AF047EF1AF073EF1AF00801CD
:103490006051D8B44EEF1AF050EF1AF073EF1AF0F3
:1034A0000501D205D8A457EF1AF059EF1AF05AEFD8
:1034B0001AF093989E0E0801026F060E036F51ECEE
:1034C00033F035EC32F002C8ADF503C8AEF504C8F0
:1034D000AFF505C8B0F506C8B1F507C8B2F508C81C
:1034E000B3F509C8B4F5000E06019C6F080E84EC14
:1034F00029F012000501786F62EF1BF01F0EF66EC7
:10350000150EF76EF86A0900F5C476F50900F5C4E2
:1035100077F502D895EF1AF00500FA6E7651FD6E38
:103520007751FE6EFF6AFA5012000009D8A49BEF93
:103530001AF09DEF1AF084EF1BF0010E1D6E84EF60
:103540001BF01D50D8B4A7EF1AF0A9EF1AF0C5EF81
:103550001AF01B0EF66E150EF76EF86A0900F5C428
:1035600076F50900F5C477F502D8C0EF1AF005002A
:10357000FA6E7651FD6E7751FE6EFF6AFA501200B8
:103580001E6E000E1D6E84EF1BF01E50D8B4CBEFE4
:103590001AF0CDEF1AF0D5EF1AF0090E1E64D3EF32
:1035A0001AF0D5EF1AF0D9EF1AF0000E1E6E84EF64
:1035B0001BF0CA0E1E24D96EDA6A050EDA221B0E23
:1035C000F66E150EF76EF86A0900F5C476F5090077
:1035D000F5C477F502D8F6EF1AF00500FA6E7651C9
:1035E000FD6E7751FE6EFF6AFA501200DF6E1E2AE2
:1035F00084EF1BF0190EF66E150EF76EF86A0900CF
:10360000F5C476F50900F5C477F502D818EF1BF07C
:103610000500FA6E7651FD6E7751FE6EFF6AFA5024
:10362000CA0E1E24D96EDA6A050EDA22DF501200A5
:103630001E2A130E1E641FEF1BF021EF1BF084EFF8
:103640001BF0D5EF1AF0000E1E6E1D0EF66E150E55
:10365000F76EF86A0900F5C476F50900F5C477F548
:1036600002D83CEF1BF00500FA6E7651FD6E7751E3
:10367000FE6EFF6AFA5012000501796F7951CB1383
:103680007905D8A446EF1BF048EF1BF04AEF1BF07A
:1036900084EF1BF0020E7919D8A451EF1BF053EF01
:1036A0001BF055EF1BF084EF1BF0030E7919D8A423
:1036B0005CEF1BF05EEF1BF060EF1BF084EF1BF084
:1036C00084EF1BF005017851766F776B7751000A14
:1036D000D8B46DEF1BF084EF1BF07651010AD8B41B
:1036E0007EEF1AF0030AD8B4A1EF1AF0010AD8B499
:1036F000FAEF1AF0070AD8B4D5EF1AF0010AD8B4D5
:1037000023EF1BF084EF1BF0010E12000801366F4F
:10371000000ED4EC29F0000E0801426F000E416F3C
:10372000000E406F000E3F6F35EC32F002C837F8E4
:1037300003C838F804C839F805C83AF806C83BF891
:1037400007C83CF808C83DF809C83EF8000E060155
:10375000896F36C804F80801056B1EC806F81FC833
:1037600007F820C808F821C809F822C80AF823C8B1
:103770000BF824C80CF825C80DF889EC2CF00009CA
:10378000D8A4C5EF1BF0C7EF1BF022EF1CF0CDEC67
:103790002EF092EC2FF00A0E0801026F000E036F5C
:1037A000000E046F000E056F25EC27F0FF0E0801D8
:1037B000426FFE0E416F4EEF1CF035EC32F002C846
:1037C00026F803C827F804C828F805C829F806C849
:1037D0002AF807C82BF808C82CF809C82DF80801E2
:1037E0003751265D2E6F385127592F6F395128597F
:1037F000306F3A512959316F3B512A59326F3C5140
:103800002B59336F3D512C59346F3E512D59356F23
:103810003551341133113211311130112F1109E1A9
:10382000650E2E5DD8A017EF1CF019EF1CF022EFEB
:103830001CF0CDEC2EF092EC2FF0080141694269AA
:103840002BEF1CF006018951D8B429EF1CF02BEFA7
:103850001CF0DDEF1BF006018905D8A432EF1CF047
:1038600034EF1CF03DEF1CF0CDEC2EF092EC2FF07D
:10387000FF0E0801426FFD0E416F020E060189190D
:10388000D8A445EF1CF047EF1CF04EEF1CF0000EE3
:103890000801426F000E416F5CEF1CF008013F4BC6
:1038A000402B405109E1030E3F5DD8A05AEF1CF0B8
:1038B0005CEF1CF094EF1BF0010ED4EC29F041C832
:1038C0001EF842C81FF8120008010A6F08010A51C9
:1038D000D8B46DEF1CF06FEF1CF091EF1CF005BF3A
:1038E00076EF1CF074EF1CF091EF1CF002C806F8A4
:1038F00003C807F804C808F805C809F8061F071F19
:10390000081F091F062B000E07230823092306C8DA
:103910000CF807C80DF808C80EF809C80FF899EF99
:103920001CF002C80CF803C80DF804C80EF805C84E
:103930000FF80251031104110511D8A4A2EF1CF0D5
:10394000A4EF1CF0AEEF1CF0000E026F000E036F30
:10395000000E046F000E056F3FEF1DF0960E0B6F0B
:10396000B8EF1CF00B2BD8900F330E330D330C3304
:10397000000E0C15066F000E0D15076F000E0E15CC
:10398000086FFE0E0F15096F065107110811091176
:10399000D8A4CDEF1CF0CFEF1CF0B2EF1CF0DDEFA0
:1039A0001CF00B2B010E0C27000E0D230E230F23F2
:1039B000D8900F330E330D330C33000E0C15066FF9
:1039C000000E0D15076F000E0E15086FFF0E0F1578
:1039D000096F0651071108110911D8A4F2EF1CF064
:1039E000F4EF1CF0D1EF1CF0FCEF1CF00B07D890AB
:1039F0000C370D370E370F370EBF01EF1DF003EFF9
:103A00001DF00BEF1DF0020E0B6109EF1DF00BEF27
:103A10001DF0F6EF1CF00BB110EF1DF012EF1DF0D2
:103A200013EF1DF00E9FD8900B330BC806F8076BF1
:103A3000086B096B06C809F8086B076B066B065123
:103A40000C1307510D1308510E1309510F130A518E
:103A5000D8B42DEF1DF02FEF1DF037EF1DF005BF8F
:103A600036EF1DF034EF1DF037EF1DF00F8F0CC84F
:103A700002F80DC803F80EC804F80FC805F81200C4
:103A800005018A6F05018A51D8B449EF1DF04BEF4B
:103A90001DF06DEF1DF085BF52EF1DF050EF1DF0D2
:103AA0006DEF1DF082C586F583C587F584C588F561
:103AB00085C589F5861F871F881F891F862B000EE5
:103AC00087238823892386C58CF587C58DF588C50E
:103AD0008EF589C58FF575EF1DF082C58CF583C510
:103AE0008DF584C58EF585C58FF5825183118411BE
:103AF0008511D8A47EEF1DF080EF1DF08AEF1DF038
:103B0000000E826F000E836F000E846F000E856FB3
:103B10001BEF1EF0960E8B6F94EF1DF08B2BD89041
:103B20008F338E338D338C33000E8C15866F000EE1
:103B30008D15876F000E8E15886FFE0E8F15896F9D
:103B40008651871188118911D8A4A9EF1DF0ABEF18
:103B50001DF08EEF1DF0B9EF1DF08B2B010E8C27A1
:103B6000000E8D238E238F23D8908F338E338D3389
:103B70008C33000E8C15866F000E8D15876F000E2E
:103B80008E15886FFF0E8F15896F865187118811EA
:103B90008911D8A4CEEF1DF0D0EF1DF0ADEF1DF0D0
:103BA000D8EF1DF08B07D8908C378D378E378F3735
:103BB0008EBFDDEF1DF0DFEF1DF0E7EF1DF0020E11
:103BC0008B61E5EF1DF0E7EF1DF0D2EF1DF08BB13B
:103BD000ECEF1DF0EEEF1DF0EFEF1DF08E9FD89093
:103BE0008B338BC586F5876B886B896B86C589F5AA
:103BF000886B876B866B86518C1387518D13885128
:103C00008E1389518F138A51D8B409EF1EF00BEF30
:103C10001EF013EF1EF085BF12EF1EF010EF1EF026
:103C200013EF1EF08F8F8CC582F58DC583F58EC581
:103C300084F58FC585F512000801326F000ED4ECB3
:103C400029F0000E08013E6F000E3D6F000E3C6F24
:103C5000000E3B6F35EC32F002C833F803C834F87D
:103C600004C835F805C836F806C837F807C838F864
:103C700008C839F809C83AF8000E0601896F32C839
:103C800004F80801056B1EC806F81FC807F820C80D
:103C900008F821C809F8B9EC2CF00009D8A453EFB2
:103CA0001EF055EF1EF0B0EF1EF0CDEC2EF092ECB2
:103CB0002FF00A0E0801026F000E036F000E046F52
:103CC000000E056F25EC27F0FF0E08013E6FFE0E7B
:103CD0003D6FDCEF1EF035EC32F002C822F803C86D
:103CE00023F804C824F805C825F806C826F807C82C
:103CF00027F808C828F809C829F808013351225DB7
:103D00002A6F345123592B6F355124592C6F36515A
:103D100025592D6F375126592E6F385127592F6F3E
:103D200039512859306F3A512959316F3151301179
:103D30002F112E112D112C112B1109E1650E2A5D69
:103D4000D8A0A5EF1EF0A7EF1EF0B0EF1EF0CDEC4F
:103D50002EF092EC2FF008013D693E69B9EF1EF09C
:103D600006018951D8B4B7EF1EF0B9EF1EF06BEF22
:103D70001EF006018905D8A4C0EF1EF0C2EF1EF0A8
:103D8000CBEF1EF0CDEC2EF092EC2FF0FF0E0801E1
:103D90003E6FFD0E3D6F020E06018919D8A4D3EFC8
:103DA0001EF0D5EF1EF0DCEF1EF0000E08013E6F96
:103DB000000E3D6FEAEF1EF008013B4B3C2B3C51DF
:103DC00009E1030E3B5DD8A0E8EF1EF0EAEF1EF01C
:103DD0002AEF1EF0010ED4EC29F03DC81EF83EC8B3
:103DE0001FF812000101EAA5F8EF1EF0FAEF1EF02D
:103DF0000EEF1FF0000EEA6FE585ED69EE6902D85F
:103E00000CEF1FF00500FA6E1550FD6E1650FE6E99
:103E1000FF6AFA50040E1200B1EF1FF0EAA713EF89
:103E20001FF015EF1FF061EF1FF0EA9781EC33F000
:103E300075C517F576C518F5000E1B6E02D82BEF69
:103E40001FF00500FA6E1550FD6E1650FE6EFF6AEB
:103E5000FA50010E1200E806D8A431EF1FF033EF3C
:103E60001FF05DEF1FF00101E4A939EF1FF03BEFF8
:103E70001FF059EF1FF0E5AB40EF1FF042EF1FF0CE
:103E800059EF1FF002D84FEF1FF00500FA6E1550E2
:103E9000FD6E1650FE6EFF6AFA50030E1200000906
:103EA000D8A455EF1FF057EF1FF059EF1FF0010195
:103EB000E78D0101E79DB1EF1FF00101E78DB1EF43
:103EC0001FF0E4A966EF1FF068EF1FF08FEF1FF0FF
:103ED000E5AB6DEF1FF06FEF1FF0B1EF1FF0E7BB29
:103EE00074EF1FF076EF1FF0B1EF1FF002D883EFF1
:103EF0001FF00500FA6E1550FD6E1650FE6EFF6A3B
:103F0000FA50030E12000009D8A489EF1FF08BEFBE
:103F10001FF0B1EF1FF00101E78DB1EF1FF0E5A138
:103F200094EF1FF096EF1FF0B1EF1FF002D8A3EF50
:103F30001FF00500FA6E1550FD6E1650FE6EFF6AFA
:103F4000FA50020E1200E806D8A4A9EF1FF0ABEF5A
:103F50001FF0AFEF1FF00101E79DB1EF1FF001016E
:103F6000E78D0101E69912000501C14BC22BC25138
:103F700007E1630EC15DD8B0C0EF1FF0C2EF1FF0C4
:103F8000C4EF1FF075EF20F0000EC26F000EC16F7E
:103F9000030EC919D8A4CFEF1FF0D1EF1FF0D3EF54
:103FA0001FF075EF20F0C905D8A4D9EF1FF0DBEFA3
:103FB0001FF019EF20F0C551C35DC651C459D8A0F8
:103FC000E4EF1FF0E6EF1FF014EF20F0000EC46FD7
:103FD000000EC36FC851D8B4F0EF1FF0F2EF1FF01E
:103FE00004EF20F0000EC86F000E0601286F000ECF
:103FF000276F000E2A6F640E296FF90E2C6F2B6944
:1040000029EC25F014EF20F0010EC86F000E060118
:10401000286F640E276F000E2A6F640E296FF90E49
:104020002C6F2B6929EC25F00501C34BC42B75EFD0
:1040300020F0020EC919D8A420EF20F022EF20F0C2
:1040400075EF20F0BF51C011D8A429EF20F02BEF5D
:1040500020F02DEF20F075EF20F0C75106012F6FF3
:10406000306B050120EE02F0BF51D926C051DA2293
:10407000DF500601316FFF0E3125326F336BFF0EBB
:1040800033232F51325D3351800A346F3051800A0F
:104090003459D8B04EEF20F050EF20F053EF20F01D
:1040A000000E0501C76FBFC5D9F4C0C5DAF4DEC480
:1040B0002FF6DDC430F60501C75106012F25D96E54
:1040C0000501000E06013021DA6EDF50316F3151EB
:1040D000276F286B000E2A6F640E296FF90E2C6F64
:1040E0002B6929EC25F00501C72B1200FAC429F52C
:1040F000FBC42AF5F6C42BF5F7C42CF5F8C42DF54E
:10410000F5C42EF58EEC34F0E806D8A48AEF20F042
:104110008CEF20F090EF20F0C8EC23F020EF21F09E
:1041200006014C51D8B497EF20F099EF20F01CEF26
:1041300021F026EC33F00009D8B4A1EF20F0A3EF72
:1041400020F0ACEF20F0030E0601586F0101EC9B4C
:10415000B1EC2FF003EF21F031EC33F00009D8B4CB
:10416000B4EF20F0B6EF20F0D1EF20F005EC33F003
:104170000009D8A4BEEF20F0C0EF20F0C8EF20F077
:104180000101ECA9C6EF20F0C8EF20F0D1EF20F03C
:10419000010E0601586F0101EC994CEC34F003EF6D
:1041A00021F010EC33F00009D8B4D9EF20F0DBEFA8
:1041B00020F0F4EF20F005EC33F00009D8A4E3EF91
:1041C00020F0E5EF20F0EDEF20F00101ECA9EBEF9E
:1041D00020F0EDEF20F0F4EF20F0020E0601586F12
:1041E0000101EC99CDEF20F01BEC33F00009D8B4BD
:1041F000FCEF20F0FEEF20F003EF21F0040E0601AB
:10420000586F0101EC9D06015851D8B40AEF21F016
:104210000CEF21F020EF21F0000E4C6F02D81AEFC6
:1042200021F00500FA6E8451FD6E8551FE6EFF6A25
:10423000FA50120020EF21F00101EC99EC9DEC9B6B
:104240002EC5F5F42DC5F8F42CC5F7F42BC5F6F4FE
:104250002AC5FBF429C5FAF41100060171BF39EF34
:1042600021F0715108E17005D8A039EF21F03BEF42
:1042700021F0B8EF21F0000E0801656F000E646FA9
:1042800064C802F865C803F8000E056F050E046FD8
:10429000B1EC31F0500E08010225D96E070E032152
:1042A000DA6EDE50DE10D8B458EF21F05AEF21F06C
:1042B000A5EF21F064C802F865C803F8000E056F89
:1042C000050E046FB1EC31F0540E08010225D96ED1
:1042D000070E0321DA6EDF50D8A471EF21F073EFDF
:1042E00021F0A5EF21F064C802F865C803F8000EBC
:1042F000056F050E046FB1EC31F0500E0801022578
:104300004E6F070E03214F6F64C802F865C803F8AB
:10431000000E056F050E046FB1EC31F0500E080170
:104320000225D96E070E0321DA6EDEC462F8DDC401
:1043300063F802D8A5EF21F00500FA6E6251FD6E18
:104340006351FE6EFF6AFA5012000801644B652B40
:1043500065BFB4EF21F0655109E10D0E645DD8A091
:10436000B4EF21F0B6EF21F040EF21F02DEF21F076
:104370006FEC33F02DEF21F0120008014C354D3574
:10438000536F5351D8A4C7EF21F0C9EF21F0D3EFF9
:1043900021F0000E4A6F000E4B6F000E4C6F000EA6
:1043A0004D6F40EF22F04AC84EF84BC84FF84CC84A
:1043B00050F84DC851F8200EE3EF21F0D89051335A
:1043C00050334F334E33E82EDEEF21F04E51526F13
:1043D0004C8FFF0E4A17FF0E4B17FF0E4C17000EA7
:1043E0004D17960E535F53BFFAEF21F0F8EF21F00F
:1043F00010EF22F05351800A970FD8B002EF22F04D
:1044000004EF22F006EF22F0C9EF21F0D8904D33EF
:104410004C334B334A33533F06EF22F028EF22F060
:104420001F0E536516EF22F018EF22F020EF22F056
:10443000C9EF21F0D8904A374B374C374D375307E7
:104440005351D8A426EF22F028EF22F01AEF22F0E1
:104450005251D8B42EEF22F030EF22F038EF22F094
:104460004D1F4C1F4B1F4A6D000E4B234C234D23F9
:104470004AC84AF84BC84BF84CC84CF84DC84DF8E0
:10448000120006011F352035266F2651D8A44BEFA8
:1044900022F04DEF22F057EF22F0000E1D6F000EBC
:1044A0001E6F000E1F6F000E206FC4EF22F01DC69E
:1044B00021F61EC622F61FC623F620C624F6200EBD
:1044C00067EF22F0D8902433233322332133E82EB0
:1044D00062EF22F02151256F1F8FFF0E1D17FF0E77
:1044E0001E17FF0E1F17000E2017960E265F26BF01
:1044F0007EEF22F07CEF22F094EF22F02651800A2A
:10450000970FD8B086EF22F088EF22F08AEF22F0E2
:104510004DEF22F0D89020331F331E331D33263F3A
:104520008AEF22F0ACEF22F01F0E26659AEF22F000
:104530009CEF22F0A4EF22F04DEF22F0D8901D372F
:104540001E371F37203726072651D8A4AAEF22F09E
:10455000ACEF22F09EEF22F02551D8B4B2EF22F05A
:10456000B4EF22F0BCEF22F0201F1F1F1E1F1D6D95
:10457000000E1E231F2320231DC61DF61EC61EF679
:104580001FC61FF620C620F61200000E08010215F5
:104590000A6F000E03150B6F800E04150C6F7F0E53
:1045A00005150D6F0A510B110C110D11D8A4DBEF7D
:1045B00022F0DDEF22F0E5EF22F0000E026F000E98
:1045C000036F000E046F000E056F000E06150A6FD4
:1045D000000E07150B6F800E08150C6F7F0E091566
:1045E0000D6F0A510B110C110D11D8A4FAEF22F026
:1045F000FCEF22F004EF23F0000E066F000E076FB1
:10460000000E086F000E096F05AF09EF23F00BEFE6
:1046100023F014EF23F0026D031FD8B0032B041F07
:10462000D8B0042B800E055709AF19EF23F01BEF0C
:1046300023F024EF23F0066D071FD8B0072B081FC7
:10464000D8B0082B800E0957000E021B000E031B6A
:10465000000E041B800E051B000E061B000E071B20
:10466000000E081B800E091B0651025D07510359FD
:104670000851045909510559D8B041EF23F043EFCF
:1046800023F046EF23F0D89047EF23F0D8801200B4
:10469000FAC422F5FBC423F5F6C424F5F7C425F5C6
:1046A000F8C426F5F5C427F58EEC34F0E806D8A456
:1046B0005CEF23F05EEF23F062EF23F0F2EC1EF0EC
:1046C000BBEF23F006014C51D8B469EF23F06BEF38
:1046D00023F0B6EF23F00101EBA571EF23F073EFA8
:1046E00023F07EEF23F0EAA578EF23F07AEF23F0B2
:1046F0007EEF23F0EFEC2EF0BBEF23F0EBAF83EF78
:1047000023F085EF23F0A2EF23F0EAAF8AEF23F046
:104710008CEF23F0A2EF23F006015751D8B493EFAA
:1047200023F095EF23F09EEF23F0000E576F010169
:10473000EA91EA9FDFEC30F0BBEF23F04CEC34F071
:104740007AEF23F0EBA3A7EF23F0A9EF23F0BBEF61
:1047500023F0EAA3AEEF23F0B0EF23F0BBEF23F09A
:1047600091EC34F00101EA93BBEF23F0000E01015C
:10477000EA6FBBEF23F027C5F5F426C5F8F425C58D
:10478000F7F424C5F6F423C5FBF422C5FAF41100AE
:104790000101ECABCEEF23F0D0EF23F0E3EF23F0F9
:1047A000010E1B6E02D8DFEF23F00500FA6E1550E4
:1047B000FD6E1650FE6EFF6AFA50050E12000101E2
:1047C000EC9B42EF24F0E5AFE8EF23F0EAEF23F0B3
:1047D000FDEF23F0020E1B6E02D8F9EF23F0050067
:1047E000FA6E1550FD6E1650FE6EFF6AFA50050EF9
:1047F00012000101E59F42EF24F0E7A502EF24F04B
:1048000004EF24F017EF24F0030E1B6E02D813EF11
:1048100024F00500FA6E1550FD6E1650FE6EFF6A0C
:10482000FA50050E12000101E79542EF24F0E7A3CC
:104830001CEF24F01EEF24F031EF24F0040E1B6E69
:1048400002D82DEF24F00500FA6E1550FD6E1650BB
:10485000FE6EFF6AFA50050E12000101E79342EF67
:1048600024F0050E1B6E02D840EF24F00500FA6E0E
:104870001550FD6E1650FE6EFF6AFA50050E1200BE
:104880000101E597EC99E6991200100E936E800EE7
:10489000946E210E956E070E8D6E000E8E6EC20EFA
:1048A0008F6E030E0401166F000E206F000E2A6F2C
:1048B000100E176F000E216F000E2B6F100E186F69
:1048C000E00E226FB90E2C6F370E196FE00E236FBA
:1048D000FB0E2D6F3F0E1A6FE00E246FFB0E2E6F36
:1048E000200E0301126F200E136F000E156F000EC5
:1048F000166F210E0F6F210E106F110E526F020EE8
:10490000536F170E546F070E296F0E0EAD6F1C0EEE
:10491000276F0D0EAE6F1D0E266F000E04011B6F6C
:10492000040E1C6F000E1D6F000E576F000E586FA7
:10493000000E596F000E256F000E266F000E276FB8
:10494000000E2F6FC00E306F000E316F5E0E08012B
:10495000026F690E036F10EC34F0600E0801026FF5
:10496000690E036F15EC34F0620E0801026F690ED8
:10497000036F1AEC34F07688120058C802F859C850
:1049800003F80801046B056B000E64EC1CF002C810
:1049900035F803C836F804C837F805C838F856C8DB
:1049A00002F857C803F80801046B056B000E64ECAD
:1049B0001CF002C814F803C815F804C816F805C896
:1049C00017F854C802F855C803F80801046B056BC2
:1049D000000E64EC1CF002C810F803C811F804C8FB
:1049E00012F805C813F8BDEC15F010C82DF811C861
:1049F0002EF812C82FF813C830F8000E0801296FDE
:104A0000000E2A6F800E2B6F3F0E2C6F62EC2EF083
:104A100029C831F82AC832F82BC833F82CC834F822
:104A200099EC11F031C84AF832C84BF833C84CF849
:104A300034C84DF8BDEC21F04AC85AF84BC85BF8B1
:104A40005AC802F85BC803F8BCEC33F08BEC34F0C6
:104A500012002BC682F52CC683F50501846B856B8D
:104A6000000E40EC1DF082C50CF683C50DF684C522
:104A70000EF685C50FF629C682F52AC683F505010F
:104A8000846B856B000E40EC1DF082C594F583C5E8
:104A900095F584C596F585C597F527C682F528C690
:104AA00083F50501846B856B000E40EC1DF082C51B
:104AB00090F583C591F584C592F585C593F58BEC8A
:104AC00017F090C504F691C505F692C506F693C594
:104AD00007F6000E0601006F000E016F800E026FD8
:104AE0003F0E036F86EC2EF000C608F601C609F6ED
:104AF00002C60AF603C60BF662EC0FF008C61DF6F6
:104B000009C61EF60AC61FF60BC620F641EC22F0B7
:104B10001DC62DF61EC62EF62DC682F52EC683F5B1
:104B2000D1EC33F09DEC34F01200080120EE02F0DD
:104B30004E51D9264F51DA22DEC460F8DDC461F847
:104B400020EE09F06051D9266151DA22DF50D8A455
:104B5000ACEF25F0AEEF25F0B3EF25F0090E84ECB5
:104B600029F0FDEF25F035EC32F002C850F803C80B
:104B700051F804C852F805C853F806C854F807C8D5
:104B800055F808C856F809C857F8080120EE01F092
:104B90006051D9266151DA225051DE5C5151DE5804
:104BA0005251DE585351DE585451DE585551DE589B
:104BB0005651DE585751DE58D8B0E1EF25F0E3EFFB
:104BC00025F0FDEF25F060C8D9F461C8DAF4DF50B4
:104BD000D8B4EDEF25F0EFEF25F0F2EF25F0948E4D
:104BE000F3EF25F0949E20EE09F06051D926615133
:104BF000DA22DF6A090E84EC29F012000501D4A341
:104C000004EF26F006EF26F055EF26F0D481949EAF
:104C1000010E0601936F010E8A6F640E35EC32F0BF
:104C200002C850F803C851F804C852F805C853F830
:104C300006C854F807C855F808C856F809C857F800
:104C40000801502506018B6F000E08015121060155
:104C50008C6F000E0801522106018D6F000E0801B5
:104C6000532106018E6F000E0801542106018F6F3B
:104C7000000E080155210601906F000E0801562113
:104C80000601916F000E080157210601926F2A0E4E
:104C90000801026F4B0E036F8A0E046F060E056F3C
:104CA000090E89EC28F061EF26F0660E0801026F0C
:104CB000500E036F000E046F000E056F0A0E89EC94
:104CC00028F0070E84EC29F01200D60EF66E5B0E6B
:104CD000F76E000EF86E01EE00F310EE50F00900D2
:104CE000F5C4EEF4E550E150FAE1B00EF66E670E51
:104CF000F76E000EF86E01EE94F210EE0DF0090062
:104D0000F5C4EEF4E550E150FAE18E0EF66E660E53
:104D1000F76E000EF86E01EECAF110EE14F0090005
:104D2000F5C4EEF4E550E150FAE1FE0EF66E680EC1
:104D3000F76E000EF86E01EE37F110EE06F0090086
:104D4000F5C4EEF4E550E150FAE101EE50F3410E06
:104D5000EE6AE806FDE101EE4CF2480EEE6AE80666
:104D6000FDE101EEADF11D0EEE6AE806FDE101EE9A
:104D700001F11F0EEE6AE806FDE1080E666E000EF8
:104D8000676E000E686E0001DEEF2BF0010E06016B
:104D90005927000E5A235B235C235D235E235F2388
:104DA000602360515F115E115D115C115B110BE1BD
:104DB000E90E595D030E5A59D8A0E1EF26F0E3EF52
:104DC00026F024EF27F0945159150701C16F060111
:104DD00095515A150701C26F060196515B150701DF
:104DE000C36F060197515C150701C46F0601985106
:104DF0005D150701C56F060199515E150701C66F64
:104E000006019A515F150701C76F06019B51601596
:104E10000701C86FC151C211C311C411C511C61118
:104E2000C711C811D8A417EF27F019EF27F024EF06
:104E300027F0B20EB76F320EB86F000EB96F000ECA
:104E4000BA6F080EDDEC28F0120059C616F85AC6E3
:104E500017F85BC618F85CC619F85DC61AF85EC686
:104E60001BF85FC61CF860C61DF808010251066FEA
:104E70000351076F0451086F0551096F0A6B0B6BE3
:104E80000C6B0D6B165106250E6F175107210F6F16
:104E900018510821106F19510921116F1A510A2157
:104EA000126F1B510B21136F1C510C21146F1D51DC
:104EB0000D21156F0E510601595D08010F510601B4
:104EC0005A590801105106015B5908011151060198
:104ED0005C590801125106015D5908011351060180
:104EE0005E590801145106015F5908011551060168
:104EF0006059D8A07EEF27F080EF27F035EF27F03C
:104F00001200000E0801556F000E546F1D0E506FF9
:104F1000500E436F080E446F000E466F010E456F32
:104F2000560E476F080E486F000E4A6F010E496F0C
:104F3000320E11EC2FF008014351542744515523F0
:104F400054515511D8A4A7EF27F0A9EF27F0D8EFB7
:104F500027F056B7AEEF27F0B1EF27F0010EB2EF12
:104F600027F0000E526F56B9B8EF27F0BBEF27F0CD
:104F7000010EBCEF27F0000E536F5251D8A4C3EFBF
:104F800027F0C5EF27F0CDEF27F05351D8B4CBEF82
:104F900027F0CDEF27F0D8EF27F0660E026F500E06
:104FA000036F000E046F000E056F0A0E89EC28F0E7
:104FB0000B0E84EC29F01200FAC480F5FBC481F5D5
:104FC0006D9E01015BA1E7EF27F0E9EF27F009EF04
:104FD00028F05AA1EEEF27F0F0EF27F009EF28F0C4
:104FE0005A91060182518311D8B4F9EF27F0FBEFF3
:104FF00027F02EEF28F002D807EF28F00500FA6E10
:105000008251FD6E8351FE6EFF6AFA5012002EEF40
:1050100028F05BA30EEF28F010EF28F02EEF28F019
:105020005AA315EF28F017EF28F02EEF28F05A9327
:10503000060180518111D8B420EF28F022EF28F02A
:105040002EEF28F002D82EEF28F00500FA6E8051DE
:10505000FD6E8151FE6EFF6AFA50120081C5FBF4AD
:1050600080C5FAF411009388000E0801516F000EFC
:10507000506F000E576F000E566F380E526F520E63
:10508000436F080E446F000E466F010E456F540EBD
:10509000476F080E486F000E4A6F010E496F6B0E86
:1050A00032EC2FF00801435150274451512354A7AB
:1050B0005CEF28F05EEF28F060EF28F07BEF28F03F
:1050C0000A0E026F000E036F000E046F000E056FD4
:1050D00025EC27F00801564B572B57BF79EF28F0E6
:1050E000575109E10A0E565DD8A079EF28F07BEF01
:1050F00028F03DEF28F0640E026F000E036F000EE3
:10510000046F000E056F25EC27F00A0E84EC29F0E1
:10511000120008010B6F010E08010A6F0B51050DFB
:10512000500EF324D96E070EF420DA6EDE50DE1036
:10513000D8B49DEF28F09FEF28F0B1EF28F00B5185
:10514000050D540EF324D96E070EF420DA6EDF50ED
:10515000D8A4ADEF28F0AFEF28F0B1EF28F0000EA3
:105160000A6F0AC808F8096B0B51050D500EF3249D
:10517000D96E070EF420DA6E02C8DEF403C8DDF43F
:105180000B51050D520EF324D96E070EF420DA6E82
:1051900004C8DEF405C8DDF40B51050D540EF324EC
:1051A000D96E070EF420DA6EDF6A08510601702707
:1051B000080109510601712312000701C06F010E99
:1051C0000701BF6FC051050D500EF324D96E070EB5
:1051D000F420DA6EDE50DE10D8B4F1EF28F0F3EFF1
:1051E00028F005EF29F0C051050D540EF324D96EB7
:1051F000070EF420DA6EDF50D8A401EF29F003EF98
:1052000029F005EF29F0000EBF6FBFC7BDF7BE6BD9
:10521000C051050D500EF324D96E070EF420DA6E3E
:10522000B7C7DEF4B8C7DDF4C051050D520EF32444
:10523000D96E070EF420DA6EB9C7DEF4BAC7DDF412
:10524000C051050D540EF324D96E070EF420DA6E0A
:10525000DF6ABD51060170270701BE5106017123A7
:105260001200000E0801096F000E086F08C802F84E
:1052700009C803F8000E056F050E046FB1EC31F09C
:10528000500E08010225D96E070E0321DA6EDE6A80
:10529000DD6A08C802F809C803F8000E056F050E9C
:1052A000046FB1EC31F0520E08010225D96E070EE1
:1052B0000321DA6EDE6ADD6A08C802F809C803F85D
:1052C000000E056F050E046FB1EC31F0540E0801AD
:1052D0000225D96E070E0321DA6EDF6A084B092B0F
:1052E00009BF7CEF29F0095109E10D0E085DD8A036
:1052F0007CEF29F07EEF29F036EF29F0000E060151
:10530000716F000E706F12000801076F000E080128
:10531000066F0751050D500EF324D96E070EF420C9
:10532000DA6EDE50DE10D8B498EF29F09AEF29F04B
:10533000ACEF29F00751050D540EF324D96E070E7A
:10534000F420DA6EDF50D8A4A8EF29F0AAEF29F0F4
:10535000ACEF29F0010E066F06C804F8056B075183
:10536000050D500EF324D96E070EF420DA6EDE6AB6
:10537000DD6A0751050D520EF324D96E070EF42095
:10538000DA6EDE6ADD6A0751050D540EF324D96E1C
:10539000070EF420DA6EDF6A04510601705F08011F
:1053A00005510601715B12000801076F82EC34F0B1
:1053B00008010719D8A4DFEF29F0E1EF29F0E3EFA6
:1053C00029F022EF2AF0075116EC2DF008010751C1
:1053D000D8A4EDEF29F0EFEF29F0FEEF29F0F00E61
:1053E000026F660E036F67EC32F0D60E0801026F93
:1053F000680E036F76EC32F022EF2AF00705D8A48E
:1054000004EF2AF006EF2AF022EF2AF0F40E026FE2
:10541000340E036F230EF66E150EF76EF86A090050
:10542000F5C405F80900F5C406F802D821EF2AF002
:105430000500FA6E0551FD6E0651FE6EFF6AFA50C8
:105440001200958812000701C66F89A22AEF2AF080
:105450002CEF2AF04BEF2AF006016C516A5D6D517A
:105460006B59D8A036EF2AF038EF2AF047EF2AF030
:1054700002D845EF2AF00500FA6E0701C451FD6E0F
:10548000C551FE6EFF6AFA5012006AEF2AF011EC65
:1054900032F06AEF2AF006016A4B6B2B6E516A5D9F
:1054A0006F516B59D8A057EF2AF059EF2AF06AEFE5
:1054B0002AF011EC32F002D86AEF2AF00500FA6EF9
:1054C00006017251FD6E7351FE6EFF6AFA500701BC
:1054D000C65112001200618A000E61BE010E080161
:1054E000046F619E550E606EAA0E606E6090000E95
:1054F000686E000E676E080E666E550E606EAA0E20
:10550000606E608004B102D0619E01D0618E7D82A8
:105510007D847D868088808A808C818C8486848846
:10552000848A848C69926190640E0801026F690E0E
:10553000036F3DEC34F0738269946192660E08014A
:10554000026F690E036F24EC34F0738469966194E2
:10555000680E0801026F690E036F1FEC34F073864A
:105560001200040E0101E66F800EE76F080EE86F6F
:10557000040EE96F020EF96F000EEA6F000EEB6F7A
:10558000000EEC6FEC83EC81000EED6F000EEE6F01
:10559000270EF86F000EFA6FE4EC32F00101EB9188
:1055A000EB95E68F050EE82EFED700000000000008
:1055B00000000000000000000101EA91EA95EB857F
:1055C000540E0801026F690E036F76EC32F0BE0EC6
:0E55D0000801026F670E036F67EC32F01200E5
:1055E000FAC46FF5FBC470F5F6C471F5F7C472F533
:1055F000F8C473F5F5C474F58EEC34F0E806D8A45D
:1056000004EF2BF006EF2BF00AEF2BF0F2EC1EF07C
:1056100021EF2BF006014C51D8B411EF2BF013EF12
:105620002BF01FEF2BF09AEC34F053C6D9F454C68C
:10563000DAF4DF6E0601534B542B21EF2BF09AEC7A
:1056400034F074C5F5F473C5F8F472C5F7F471C598
:10565000F6F470C5FBF46FC5FAF41100000E0801F2
:10566000086F000E076F04510511D8B43AEF2BF004
:105670003CEF2BF064EF2BF0010E066F44EF2BF0A4
:10568000D89004370537062B05AF49EF2BF04BEFC9
:105690002BF040EF2BF0D890073708370451025D0C
:1056A00005510359D8A057EF2BF059EF2BF05EEFBF
:1056B0002BF00451025F0551035B0781D89005333D
:1056C0000433062F4BEF2BF007C802F808C803F885
:1056D0001200000E0101536F020E546F000E556F41
:1056E0005669F90E576F000E586F000E596F000E75
:1056F0005A6F000E5B6F000E5D6F000E5E6FFA0E4C
:105700005F6F800E606F020E616F6D9C6D9E5A918F
:105710005A93779E778C580E0801026F690E036FBB
:1057200006EC34F0560E0801026F690E036F01ECAF
:1057300034F05A0E0801026F690E036F0BEC34F05F
:10574000800E01015C6F1200BAEF2BF09CEC33F07D
:10575000DDEF2BF095EC30F0DDEF2BF093EC33F038
:10576000DDEF2BF08AEC33F0DDEF2BF011EC32F0B3
:10577000DDEF2BF0060169510701C76FC86BC851F7
:10578000000AD8B4C6EF2BF0B6EF2BF0C751010AD0
:10579000D8B4A6EF2BF0030AD8B4AAEF2BF0010A75
:1057A000D8B4AEEF2BF0070AD8B4AAEF2BF0010A59
:1057B000D8B4B2EF2BF0B6EF2BF01200ECEC31F0D6
:1057C0009388E5EC33F031EC29F0C7EC30F0840E2F
:1057D0000801026F5A0E036F94EC32F0580E080164
:1057E000026F600E036F10EC34F00501D493C40E09
:1057F0000801026F600E036F15EC34F0618E618C4E
:105800008C0E0801026F4D0E036FF7EC33F0AFEC16
:1058100013F0680E0801026F3F0E036F0BEC34F0BB
:0E582000000E6EEC2DF02DEC21F055EF00F097
:10583000FAC47AF5FBC47BF5F6C47CF5F7C47DF5B4
:10584000F8C47EF5F5C47FF58EEC34F0E806D8A4F4
:105850002CEF2CF02EEF2CF032EF2CF0F2EC1EF0AF
:1058600044EF2CF006014C51D8B439EF2CF03BEF4B
:105870002CF044EF2CF04FC6D9F450C6DAF44F4B5D
:10588000502BDF5056EC34F07FC5F5F47EC5F8F4AC
:105890007DC5F7F47CC5F6F47BC5FBF47AC5FAF454
:1058A0001100010E0101E66F000EE76F000EE86FB8
:1058B000000EE96FED69EE69660EF36FFE0EF46F90
:1058C000660EF56FFE0EF66F7F0EF86F7A8A7A8C91
:1058D0007A867A88EB85EB87EC814C0E0801026FA3
:1058E000690E036FA3EC32F00101EB95E68FEB91AB
:1058F000EB95E68F050EE82EFED7000000000000B5
:1059000000000000000000000101EA91EA95EB852B
:105910001200000E08010E6F48EC30F00009D8A408
:1059200094EF2CF096EF2CF0B6EF2CF0010E060160
:105930004C6F04C84DF605C84EF6010E576F06C8E9
:105940004FF607C850F608C851F609C852F60AC8FB
:1059500053F60BC854F60CC855F60DC856F6000E93
:10596000586FAAEC2EF0010E08010E6F08010E51BF
:105970001200000E08010A6F48EC30F00009D8A4AC
:10598000C4EF2CF0C6EF2CF0E6EF2CF0010E060170
:105990004C6F04C84DF605C84EF6000E576F06C88A
:1059A0004FF607C850F608C851F609C852F6000E5F
:1059B000536F000E546F000E566F000E556F000EA1
:1059C000586FAAEC2EF0010E08010A6F08010A5167
:1059D0001200F7EF2CF0F1EC33F015EF2DF073EC33
:1059E00034F015EF2DF06FEC34F015EF2DF00601CB
:1059F0006951426F436B4351000AD8B402EF2DF056
:105A000015EF2DF04251000AD8B4EBEF2CF0010A4B
:105A1000D8B4EBEF2CF0030AD8B4EFEF2CF0060A61
:105A2000D8B4F3EF2CF015EF2DF012000801046F3D
:105A300006019D5108010419D8A421EF2DF023EF90
:105A40002DF025EF2DF041EF2DF0619C619E04516A
:105A5000D8A42DEF2DF02FEF2DF038EF2DF0C2EC64
:105A60002DF0B1EC2AF0000E06019D6F3FEF2DF0F6
:105A700013EC2EF051EC2CF0010E06019D6F618E9F
:105A8000618C12000701C36F53EF2DF0FC0EB76F4E
:105A90004B0EB86F000EB96F000EBA6F070EDDEC3B
:105AA00028F06DEF2DF00701C351C16FC26BC251D9
:105AB000000AD8B45EEF2DF06DEF2DF0C151000A51
:105AC000D8B446EF2DF0010AD8B46DEF2DF0030ADB
:105AD000D8B46DEF2DF06DEF2DF0120008015C6F62
:105AE000030E0501C96F08015C51D8B47AEF2DF09F
:105AF0007CEF2DF08BEF2DF0000E556F640E546F80
:105B0000000E576F640E566FF90E596F5869BDEC51
:105B100024F098EF2DF0000E556F000E546F000E1C
:105B2000576F640E566FF90E596F5869BDEC24F02B
:105B3000120001010991000E0A6F000E0B6F010E99
:105B40000C6FF80E086F300E076F08510801046FD4
:105B5000010107510601786F04C879F66A0E080141
:105B6000026F690E036FF7EC33F0700E0801026FDD
:105B7000690E036FFCEC33F06C9C768C350E0101E2
:105B8000096F1200000E0101E66F000EE76F000EB4
:105B9000E86F000EE96F000EED6F000EEE6F000E65
:105BA000F36F000EF46F000EF56F000EF66F000E2F
:105BB000F86F000EE46F000EEC6F7A9A7A9C7A967A
:105BC0007A98EB95EB974C0E0801026F690E036F04
:105BD000A3EC32F01200646464646464646464641A
:105BE0000000000000000000000000050A0F14196A
:105BF0001E23282D32373C41464B50555A5F646472
:105C000064646464646464645F5A55504B46413C08
:105C100037322D28231E19140F0A0500000000003A
:105C2000000000000000000E0101E66F000EE76FAB
:105C3000000EE86F000EE96F000EF96F000EEA6FBC
:105C4000000EEB6F000EEC6F000EED6F000EEE6FAE
:105C5000000EF86F5BEC33F0540E0801026F690E12
:105C6000036F76EC32F0BE0E0801026F670E036F11
:065C700067EC32F01200A7
:105C7800FAC4C9F7FBC4CAF76C9C78C6B7F779C6EB
:105C8800B8F7AEEC30F0060176517711D8B44FEF83
:105C98002EF051EF2EF05DEF2EF002D85DEF2EF0D2
:105CA8000500FA6E7651FD6E7751FE6EFF6AFA5066
:105CB8001200CAC7FBF4C9C7FAF41100000E0801A4
:105CC8002D1B000E2E1B000E2F1B800E301B29C80B
:105CD80002F82AC803F82BC804F82CC805F82DC800
:105CE80006F82EC807F82FC808F830C809F8A0EC3D
:105CF8000AF002C829F803C82AF804C82BF805C80E
:105D08002CF81200000E0601041B000E051B000EE5
:105D1800061B800E071B00C682F501C683F502C666
:105D280084F503C685F504C686F505C687F506C657
:105D380088F507C689F501EC0DF082C500F683C524
:105D480001F684C502F685C503F612000601515115
:105D58005211D8B4B2EF2EF0B4EF2EF0C5EF2EF0FA
:105D680051C602F852C603F8B5EC33F00601575194
:105D7800D8B4C1EF2EF0C3EF2EF0C5EF2EF088ECAB
:105D880034F006014D514D2529EC34F085EC34F002
:105D98001200000E06014C6F000E4E6F4D69000E8A
:105DA8004F6F000E506F000E536F000E546F5BEC78
:105DB80034F02EEC34F033EC34F002D8EEEF2EF061
:105DC8000500FA6E06018651FD6E8751FE6EFF6A68
:105DD800FA5012001200000E06014C6F000E4E6FB2
:105DE8004D69000E4F6F000E506F000E536F000E7E
:105DF800546F63EC34F042EC34F047EC34F002D8E2
:105E080010EF2FF00500FA6E06018651FD6E8751DE
:105E1800FE6EFF6AFA501200120008014B6F959847
:105E280043C81EF844C81FF845C820F846C821F8DA
:105E380047C822F848C823F849C824F84AC825F8AA
:105E480008014B5186EC1BF01EC84CF81FC84DF8D2
:105E580095884CC843F84DC844F8120008014B6FA8
:105E6800958843C81EF844C81FF845C820F846C896
:105E780021F847C822F848C823F849C824F84AC86E
:105E880025F808014B5186EC1BF01EC84CF81FC8BA
:105E98004DF84CC843F84DC844F81200FAC435F61A
:105EA800FBC436F66D9C0501BD51BE11D8B45FEF39
:105EB8002FF061EF2FF06DEF2FF002D86DEF2FF07C
:105EC8000500FA6EBD51FD6EBE51FE6EFF6AFA50B6
:105ED800120036C6FBF435C6FAF41100FAC400F80D
:105EE800FBC401F86C9E060174517511D8B47FEF9C
:105EF8002FF081EF2FF08DEF2FF002D88DEF2FF0DC
:105F08000500FA6E7451FD6E7551FE6EFF6AFA5007
:105F1800120001C8FBF400C8FAF411005BEC34F07D
:105F28002EEC34F05BEC33F033EC34F00101E69FF7
:105F3800E4EC32F00101EB91EB95E68F050EE82ECB
:105F4800FED7000000000000000000000000000074
:105F58000101EA91EA95EB85120063EC34F042EC1A
:105F680034F065EC33F047EC34F00101E69FFAECCD
:105F780032F00101EB91EB95E68F050EE82EFED786
:105F88000000000000000000000000000000010107
:105F9800EA91EA95EB85120004011DA5D6EF2FF0D2
:105FA800D8EF2FF0DAEF2FF0F7EC30F0040131AD35
:105FB800E0EF2FF0E2EF2FF0E4EF2FF00FEC31F0ED
:105FC800040131AFEAEF2FF0ECEF2FF0EEEF2FF0F6
:065FD80027EC31F012007D
:105FE000FAC44AF6FBC44BF66C9A2F503010D8B462
:105FF000FCEF2FF0FEEF2FF00AEF30F002D80AEF9F
:1060000030F00500FA6E2F50FD6E3050FE6EFF6AC4
:10601000FA5012004BC6FBF44AC6FAF41100286E7F
:106020002850050D500EF324D96E070EF420DA6EB9
:10603000DEC4B7F7DDC4B8F72850050D520EF324BF
:10604000D96E070EF420DA6EDEC4B9F7DDC4BAF7F4
:106050002850DDEC28F0120087B431EF30F033EF38
:1060600030F047EF30F00501D4B339EF30F03BEFBB
:1060700030F047EF30F0020E0701B76F4F0EB86FE8
:10608000000EB96F000EBA6F0B0EDDEC28F0120097
:10609000010E0801026F06014C51D8A452EF30F0F6
:1060A00054EF30F05FEF30F00101E4AF5AEF30F021
:1060B0005CEF30F05FEF30F0000E0801026F080176
:1060C0000251120089BC67EF30F069EF30F07BEFCE
:1060D00030F046EC32F037C661F638C662F639C6A3
:1060E00063F63AC664F63BC665F63CC666F63DC640
:1060F00067F63EC668F612000801436F95983FC8E0
:106100001EF840C81FF841C820F842C821F808010D
:1061100043511CEC1EF01EC844F81FC845F8958872
:1061200044C83FF845C840F8120089A29AEF30F001
:106130009CEF30F09FEF30F006016A4B6B2B0601AD
:106140006E516A5D6F516B59D8A0A9EF30F0ABEF7B
:1061500030F0ADEF30F011EC32F01200010109A582
:10616000B4EF30F0B6EF30F0C0EF30F00991070136
:10617000B8510101086FB7C707F10981C6EF30F0C8
:106180000701B8510101086FB7C707F11200D20E1D
:106190000801026F590E036F3DEC34F0480E080100
:1061A000026F570E036F38EC34F06E0E0801026F69
:1061B000690E036F94EC32F03FEC31F012000601EF
:1061C00055515611D8B4E7EF30F0E9EF30F0EFEF6A
:1061D00030F055C620F556C621F5EBEC33F0D880EB
:1061E00006014D3567EC34F094EC34F01200355074
:1061F0003610D8B4FEEF30F000EF31F00CEF31F094
:1062000002D80CEF31F00500FA6E3550FD6E3650B5
:10621000FE6EFF6AFA50120004011D951200335001
:106220003410D8B416EF31F018EF31F024EF31F01C
:1062300002D824EF31F00500FA6E3350FD6E345071
:10624000FE6EFF6AFA5012000401319D12003150B7
:106250003210D8B42EEF31F030EF31F03CEF31F0A6
:1062600002D83CEF31F00500FA6E3150FD6E32502D
:10627000FE6EFF6AFA5012000401319F120062AEF6
:1062800044EF31F011EF32F0000E0601696F000E9D
:106290006B6F000E6A6F000E6D6F000E6C6F000E5C
:1062A0006F6F000E6E6FA5EC33F0120006017E5189
:1062B0007F11D8B45EEF31F060EF31F06CEF31F068
:1062C00002D86CEF31F00500FA6E7E51FD6E7F5101
:1062D000FE6EFF6AFA501200120006017C517D1119
:1062E000D8B475EF31F077EF31F083EF31F002D8A9
:1062F00083EF31F00500FA6E7C51FD6E7D51FE6E2C
:10630000FF6AFA501200120006017A517B11D8B4CC
:106310008CEF31F08EEF31F09AEF31F002D89AEF36
:1063200031F00500FA6E7A51FD6E7B51FE6EFF6A08
:10633000FA5012001200000E0001386F070E3F6F76
:10634000070E3B6F070E3C6F070E3D6F070E3E6F4B
:10635000070E396F070E3A6F000EF46E000EF36EE3
:106360001200080102510403F3C406F8F4C407F84C
:1063700002510503F350072703510403F350072785
:1063800006C802F807C803F81200600E0101046F86
:10639000000E036F7F0E066F6C0E0801026F690E10
:1063A000036F38EC34F06C9A768A800E0101056F29
:1063B0001200010E0501C96F09C802F80AC803F8E6
:1063C000000E0801056F640E046F2EEC2BF002C85E
:1063D000C5F503C8C6F5120057EC32F045EC24F0C1
:1063E000C5EC31F09BEC31F0B1EC2AF0A8EC34F0C4
:1063F00069EC2BF099EC2DF06BEC2AF01200060101
:10640000416F41C669F6000E06016B6F000E6A6FA0
:10641000000E6D6F020E6C6F000E6F6F3C0E6E6F94
:106420001200000E0601696F000E6B6F000E6A6F9E
:10643000000E6D6F000E6C6F000E6F6F000E6E6FB2
:10644000A3EC34F012000701B76FB7C769F6000E6E
:1064500006016B6F000E6A6F000E6D6F3C0E6C6F65
:10646000000E6F6F3C0E6E6F120059C602F85AC6CE
:1064700003F85BC604F85CC605F85DC606F85EC6A0
:1064800007F85FC608F860C609F8120059C637F663
:106490005AC638F65BC639F65CC63AF65DC63BF6B8
:1064A0005EC63CF65FC63DF660C63EF61200600E64
:1064B00000017A6F400E7C6F000E7E6F080E806FB9
:1064C000000E7F6F000E816F000E826F12000801B8
:1064D00002510311D8B46FEF32F071EF32F075EF63
:1064E00032F002C886F603C887F61200080102518E
:1064F0000311D8B47EEF32F080EF32F084EF32F047
:1065000002C884F603C885F6120062AE8AEF32F044
:10651000ADEF33F0D00E0801026FC90EE82EFED7A2
:10652000022FFCD700D01200080102510311D8B489
:106530009CEF32F09EEF32F0A2EF32F002C872F61A
:1065400003C873F61200080102510311D8B4ABEF6F
:1065500032F0ADEF32F0B1EF32F002C815F503C8FA
:1065600016F51200CAEC33F0030AD8A4BAEF32F0E1
:10657000BCEF32F0BFEF32F0010E0FEC30F0120042
:10658000FAC444F6FBC445F6699256EC31F045C6B0
:10659000FBF444C6FAF41100FAC446F6FBC447F60D
:1065A00069946DEC31F047C6FBF446C6FAF411006D
:1065B000FAC448F6FBC449F6699684EC31F049C642
:1065C000FBF448C6FAF411007A8A7A8C7A867A88C3
:1065D0000101EB85EB83EB8FEC81EC831200010171
:1065E000E4B9F5EF32F0F8EF32F0010EF9EF32F0E6
:1065F000000E12007A8A7A8C7A867A880101EB85FD
:10660000EB83EB8FEC81EC8312000101E7BB0BEF16
:1066100033F00EEF33F0010E0FEF33F0000E1200E7
:106620000101E4B716EF33F019EF33F0010E1AEF62
:1066300033F0000E12000101ECBD21EF33F024EF26
:1066400033F0010E25EF33F0000E12000101ECBB18
:106650002CEF33F02FEF33F0010E30EF33F0000E5C
:1066600012000101E4A737EF33F03AEF33F0010EE7
:106670003BEF33F0000E1200FAC43FF6FBC440F6C5
:10668000D0EC2FF040C6FBF43FC6FAF411000080B6
:1066900000000000000000000000000000000001F9
:1066A0000009020E0501C96F02C8BFF503C8C0F595
:1066B000000EC76F12007A9A7A9C7A967A98000E2A
:1066C0000101EB6F000EEC6F12007A9A7A9C7A96B9
:1066D0007A98000E0101EB6F000EEC6F1200F28E43
:1066E0000300000000000000000000000000120095
:1066F00062AE7DEF33F05FEF34F0020E0601896F7A
:106700001200F1C177F50501D89077337751756F95
:10671000766B1200220E0701C46F640EC56F020E65
:1067200023EC2AF01200EE0E0701C46F680EC56F4D
:10673000010E23EC2AF01200F60E0701C46F680E5A
:10674000C56F000E23EC2AF0120062AEAAEF33F000
:10675000A3EF34F00101059F1200D00E206ECA0E87
:10676000E82EFED7202EFCD71200080103510101AC
:10677000EE6F02C8EDF1120002C85EF1080103518C
:1067800001015F6F12001BC575F5000E1B6E050140
:106790007551120058C628F5000E0601586F285092
:1067A000120082C55EF10501835101015F6F120085
:0D67B0000F00000000000000010214073C73
:1067BE0062AEE4EF33F0A9EF34F01200010E0601E1
:1067CE009D6F51EC2CF0120021500101EE6F20C58F
:1067DE00EDF11200010EFFEC31F0A0EC34F01200DE
:1067EE0002C876F603C877F6120002C874F603C81C
:1067FE0075F6120002C880F603C881F6120002C8B0
:10680E0082F603C883F6120002C8BDF503C8BEF5B2
:10681E00120002C835F503C836F5120002C833F56A
:10682E0003C834F5120002C831F503C832F5120060
:10683E0002C87AF603C87BF6120002C87CF603C8BB
:10684E007DF612000801026F02C8F2F1120001017A
:10685E00EC9BEC9DEC991200000E0101E56FE585B5
:10686E00120002C82FF503C830F5120002C87EF6DA
:10687E0003C87FF612000101EC9BEC9DEC9912000F
:10688E00000E0101E56FE585120091EC34F0010177
:10689E00E78712000501756F75C5F0F1120005014D
:1068AE00756F75C5F0F11200000E0101EA6F12004E
:1068BE00020E0601896F1200000E0101EA6F12002E
:1068CE00206E20C5F2F11200010E0601896F120032
:1068DE00050EFFEC31F01200030EFFEC31F012004A
:1068EE00040E23EC32F01200020E23EC32F01200F2
:1068FE0001003200381806019D5112000101E68B8D
:10690E0012000101E68D120001015C8512000601E4
:10691E009D5112000101E69D12000101E68B12004D
:10692E000101EF5112000101EF51120001015C85CE
:10693E0012000101058F12000101059F1200000EC9
:10694E0012001200120012001200120012001100AA
:10695E001200120012001200120012001200120099
:04696E001200120001
:020000040030CA
:0B000000ECFFFFFF9FFFFF7FFFFFFFF3
:02001800FFFFE8
:00000001FF
